:020000040800F2
:1000000000A00020051900084D1900084D1900082E
:100010004D1900084D1900084D1900080000000096
:100020000000000000000000000000004D19000862
:100030004D190008000000004D1900084D19000876
:1000400000000000000000000000000000000000B0
:1000500000000000000000000000000000000000A0
:100060000000000000000000000000000000000090
:100070000000000000000000000000000000000080
:100080000000000000000000000000000000000070
:100090000000000000000000000000000000000060
:1000A0000000000000000000000000000000000050
:1000B0000000000000000000000000000000000040
:1000C0000000000000000000000000000000000030
:1000D0000000000000000000000000000000000020
:1000E0000000000000000000000000000000000010
:1000F0000000000000000000000000000000000000
:1001000000000000000000000000000000000000EF
:1001100000000000000000000000000000000000DF
:1001200000000000000000000000000000000000CF
:1001300000000000000000000000000000000000BF
:1001400000000000000000000000000000000000AF
:10015000000000000000000000000000000000009F
:10016000000000000000000000000000000000008F
:10017000000000000000000000000000000000007F
:08018000000000000000000077
:1001880010B5054C237833B9044B13B10448AFF3C9
:1001980000800123237010BDB888002000000000F3
:1001A800741C000808B5034B1BB103490348AFF39F
:1001B800008008BD00000000BC880020741C0008F6
:1001C80080F0004002E000BF81F0004142001FBF04
:1001D8005FEA410392EA030F7FEA226C7FEA236C0D
:1001E8006AD04FEA1262D2EB1363C1BFD218414002
:1001F80048404140B8BF5B42192B88BF704710F098
:10020800004F40F4000020F07F4018BF404211F03A
:10021800004F41F4000121F07F4118BF494292EAA2
:10022800030F3FD0A2F1010241FA03FC10EB0C00CE
:10023800C3F1200301FA03F100F0004302D549425B
:1002480060EB4000B0F5000F13D3B0F1807F06D308
:1002580040084FEA310102F10102FE2A51D2B1F100
:10026800004F40EBC25008BF20F0010040EA0300F5
:100278007047490040EB0000013A28BFB0F5000F75
:10028800EDD2B0FA80FCACF1080CB2EB0C0200FA2B
:100298000CF0AABF00EBC25052421843BCBFD0407A
:1002A8001843704792F0000F81F4000106BF80F4F4
:1002B80000000132013BB5E74FEA41037FEA226CB7
:1002C80018BF7FEA236C21D092EA030F04D092F082
:1002D800000F08BF0846704790EA010F1CBF0020B6
:1002E800704712F07F4F04D1400028BF40F0004013
:1002F800704712F100723CBF00F50000704700F033
:10030800004343F0FE4040F4000070477FEA226259
:1003180016BF08467FEA23630146420206BF5FEA2A
:10032800412390EA010F40F4800070474FF000032A
:1003380004E000BF10F0004348BF40425FEA000CF1
:1003480008BF704743F0964301464FF000001CE099
:1003580050EA010208BF70474FF000030AE000BFEF
:1003680050EA010208BF704711F0004302D540422D
:1003780061EB41015FEA010C02BF8446014600209F
:1003880043F0B64308BFA3F18053A3F50003BCFABA
:100398008CF2083AA3EBC25310DB01FA02FC634467
:1003A80000FA02FCC2F12002BCF1004F20FA02F26E
:1003B80043EB020008BF20F00100704702F1200261
:1003C80001FA02FCC2F1200250EA4C0021FA02F2C2
:1003D80043EB020008BF20EADC7070474FF0FF0CC7
:1003E8001CEAD0521EBF1CEAD15392EA0C0F93EAC2
:1003F8000C0F6FD01A4480EA010C400218BF5FEA64
:1004080041211ED04FF0006343EA501043EA5111D6
:10041800A0FB01310CF00040B1F5000F3EBF4900D0
:1004280041EAD3715B0040EA010062F17F02FD2AD4
:100438001DD8B3F1004F40EBC25008BF20F00100B7
:10044800704790F0000F0CF0004C08BF49024CEACE
:10045800502040EA51207F3AC2BFD2F1FF0340EA60
:10046800C250704740F400004FF00003013A5DDCD1
:1004780012F1190FDCBF00F000407047C2F1000212
:10048800410021FA02F1C2F1200200FA02FC5FEAFF
:10049800310040F1000053EA4C0308BF20EADC7049
:1004A800704792F0000F00F0004C02BF400010F4BB
:1004B800000F013AF9D040EA0C0093F0000F01F068
:1004C800004C02BF490011F4000F013BF9D041EA8A
:1004D8000C018FE70CEAD15392EA0C0F18BF93EA8C
:1004E8000C0F0AD030F0004C18BF31F0004CD8D1B6
:1004F80080EA010000F00040704790F0000F17BF3D
:1005080090F0004F084691F0000F91F0004F14D082
:1005180092EA0C0F01D142020FD193EA0C0F03D1DA
:100528004B0218BF084608D180EA010000F00040DD
:1005380040F0FE4040F40000704740F0FE4040F4B8
:10054800400070474FF0FF0C1CEAD0521EBF1CEA57
:10055800D15392EA0C0F93EA0C0F69D0A2EB030275
:1005680080EA010C49024FEA402037D04FF080530F
:1005780043EA111143EA10130CF000408B4238BFD4
:100588005B0042F17D024FF4000C8B4224BF5B1AE2
:1005980040EA0C00B3EB510F24BFA3EB510340EA30
:1005A8005C00B3EB910F24BFA3EB910340EA9C00DE
:1005B800B3EBD10F24BFA3EBD10340EADC001B014E
:1005C80018BF5FEA1C1CE0D1FD2A3FF650AF8B42F2
:1005D80040EBC25008BF20F0010070470CF0004CFF
:1005E8004CEA50207F32C2BFD2F1FF0340EAC2502A
:1005F800704740F400004FF00003013A37E792F0EB
:10060800000F00F0004C02BF400010F4000F013A48
:10061800F9D040EA0C0093F0000F01F0004C02BF43
:10062800490011F4000F013BF9D041EA0C0195E7AC
:100638000CEAD15392EA0C0F08D142027FF47DAF45
:1006480093EA0C0F7FF470AF084676E793EA0C0F35
:1006580004D14B023FF44CAF08466EE730F0004C33
:1006680018BF31F0004CCAD130F000427FF45CAFC3
:1006780031F000437FF43CAF5FE700BF4FF0FF3C31
:1006880006E000BF4FF0010C02E000BF4FF0010C84
:100698004DF804CD4FEA40024FEA41037FEA226C4D
:1006A80018BF7FEA236C11D001B052EA530C18BF6F
:1006B80090EA010F58BFB2EB030088BFC81738BFD4
:1006C8006FEAE17018BF40F0010070477FEA226CC2
:1006D80002D15FEA402C05D17FEA236CE4D15FEABE
:1006E800412CE1D05DF8040B704700BF84460846F2
:1006F8006146FFE70FB5FFF7C9FF002848BF10F1B3
:10070800000F0FBD4DF808EDFFF7F4FF0CBF0120F7
:1007180000205DF808FB00BF4DF808EDFFF7EAFF81
:1007280034BF012000205DF808FB00BF4DF808ED3C
:10073800FFF7E0FF94BF012000205DF808FB00BF31
:100748004DF808EDFFF7D2FF94BF012000205DF8B7
:1007580008FB00BF4DF808EDFFF7C8FF34BF0120C4
:1007680000205DF808FB00BF4FEA4002B2F1FE4FDF
:100778000FD34FF09E03B3EB12620DD94FEA00235B
:1007880043F0004310F0004F23FA02F018BF404234
:1007980070474FF00000704712F1610F01D142021B
:1007A80005D110F0004008BF6FF0004070474FF0CF
:1007B800000070472DE9F04F95B0282200216846C7
:1007C80001F04CFA282200210DEB020001F046FA54
:1007D80000F03CFA00F041FA2B4E6F464FF000084B
:1007E8004FF07E5957F8044BDFF8A0B0B246002509
:1007F8005BF8041B5AF8040BFFF7F0FD014620468E
:10080800FFF7E4FC0135B5F5447F0446F0D100F16B
:10081800004001F099F84946FFF7D8FC01464846E0
:10082800FFF790FE08F54478B8F5F55F47F8040C33
:1008380006F54466D6D1164E0AAF4FF0000857F8B1
:10084800044BEA46B14600255AF8041B59F8040B34
:10085800FFF7C4FD01462046FFF7B8FC01350A2D15
:100868000446F1D108F10A08B8F1640F47F8040CFE
:1008780006F12806E3D10AAA2821722000F080F8A0
:10088800002015B0BDE8F08FD00D002090010020A9
:100898000000002008B500F037F900F075F900F005
:1008A800B1F900F05BF8044A0021612000F03CF83F
:1008B80000F0BCF8FCE700BFBD0700080346014490
:1008C80000208B4200D1704713F8012B50400822BA
:1008D80010F0800F4FEA400018BF80F04D00013A39
:1008E800C0B2F5D1EDE730B50022044601238B42B2
:1008F80001D3002030BD14F8015F15B99D1A855445
:100908001A460133DBB2F2E710B502780024034639
:1009180004701046884200D202B910BD1A5C1C54FB
:100928001044C0B2F6E7000038B50B4D2B680F2B0A
:1009380004DD612000F0B2F9012038BDFF2901D99A
:100948006220F7E70C2404FB035401332071C4E947
:1009580002122B600020F0E7D488002008B5064A70
:1009680000217620FFF7E0FFBDE80840034A002198
:100978007720FFF7D9BF00BFDF090008FD0900088D
:1009880070B5C0B00C46002511468DF8010022460E
:100998000DF103008DF802408DF8005001F050F978
:1009A800A11CC9B20DF10100FFF788FF0DEB04038C
:1009B800261D611DD870C9B268460DF80650FFF7AC
:1009C80092FF6C4614F8010B013500F067F9AE424E
:1009D800F8DA40B070BD07B503230DF10702012115
:1009E80072208DF80730FFF7CBFF002003B05DF8C9
:1009F80004FB000030B50C48017885B000220C24B7
:100A0800D3B28B4202F1010206DB6A467220FFF77D
:100A1800B7FF002005B030BD04AD1D4404FB03033F
:100A28001B7905F8103CEBE7D48800202DE9F04746
:100A3800C2B0002502AE8DF80750344600F014F914
:100A480006F8010B58B905238DF807300DF1070298
:100A580001216520FFF794FF42B0BDE8F08701351A
:100A6800042DEBD129462046FFF74EFF254F61782C
:100A78003A68804600230C205FFA83F9914502DB2F
:100A880007D10123E0E700FB0976013336798E426E
:100A9800F2D1E3780533434502DA0423D4E7354637
:100AA80000F0E2F860550028CDD0E3786E1C0433DE
:100AB800B342F4DA00F0D8F8A0550028EDD1C8F117
:100AC800010151FA86F1C9B25FFA86FA04EB08000F
:100AD800FFF71AFFAAF10201C9B20DF10900FFF7E9
:100AE800EDFE635D834201D00223ADE70C2303FBD7
:100AF8000977E278FD68A17860786B44A8478DF89B
:100B08000700A3E7D488002070B596B00024032618
:100B18004FF4A0230CA80125CDE90C63109414947C
:100B280000F0D4F80F23214602A8CDE90235CDE91B
:100B38000444069400F038FB114B5A6942F4002231
:100B48005A615B69CDE9094603F400230D4C019312
:100B5800019B07A94FF4C0432046CDE9073500F0B3
:100B6800C9FB2A4620464FF4005100F087FC2A466C
:100B78004FF48041204600F081FC16B070BD00BFE4
:100B8800001002400008004810B54FF4C06288B059
:100B98000223CDE9032301210323CDE90513164CD4
:100BA80007230793636943F400336361636903F4BC
:100BB8000033019303A94FF09040019B00F09AFB8A
:100BC8000E48DFF83CC04FF46133C0E900C300238E
:100BD800C0E90233036183610C234361A36943F4D1
:100BE8008043A361A36903F480430293029B00F04E
:100BF80099FD08B010BD00BF001002409889002080
:100C080000380140104B30B55A6942F400325A613D
:100C18005B6987B003F400330093009B4FF4805462
:100C28000123CDE901430025032301A94FF090409A
:100C3800CDE9035300F05EFB2A4621464FF0904071
:100C480000F01CFC07B030BD0010024001224FF438
:100C580080514FF0904000F011BC00224FF48051B9
:100C68004FF0904000F00ABC37B50A4D0A4C41F2EB
:100C7800883301220DF10701284600F0D4FD18B988
:100C88009DF8070003B030BD236A43F008032362D0
:100C9800EDE700BF988900200038014007B541F210
:100CA80088338DF8070001220DF10701024800F092
:100CB80064FD03B05DF804FB98890020024B1868B6
:100CC800421C1A60704700BF088A002003682DE99B
:100CD800F341D907044611D423689A0700F18680A6
:100CE80023681E0700F1F48023685D0700F1408146
:100CF800E269002A40F0CB81002021E09A494B6844
:100D080003F00C03042B07D04B6803F00C03082BEB
:100D180019D14B68DB0316D54FF4003393FAA3F2CD
:100D2800096893FAA3F3B3FA83F303F01F030122CC
:100D380002FA03F30B42CFD06368002BCCD1012019
:100D480002B0BDE8F0816268B2F5803F24D10B683B
:100D580043F480330B60CB6AA06823F00F0303438E
:100D6800CB624AB3FFF7AAFF4FF4003605460127C6
:100D780096FAA6F30A6896FAA6F3B3FA83F303F091
:100D88001F0307FA03F31342A6D1FFF797FF401B8F
:100D98006428EDD90320D3E70B6832B923F48033F4
:100DA8000B600B6823F48023D4E7B2F5A02FF5D1AC
:100DB80043F480230B60CAE7FFF780FF4FF4003647
:100DC8000546012796FAA6F30A6896FAA6F3B3FA37
:100DD80083F303F01F0307FA03F313423FF47CAFD6
:100DE800FFF76CFF401B6428ECD9D3E75E494B68DA
:100DF80013F00C0F07D04B6803F00C03082B21D11C
:100E08004B68DF031ED4022393FAA3F2086893FA0F
:100E1800A3F3B3FA83F303F01F03012202FA03F3E7
:100E2800034202D02369934289D10868F82393FAD0
:100E3800A3F3B3FA83F26369934020F0F8021343F3
:100E48000B604DE72269012502B395FAA5F3B3FAC1
:100E580083F303F1845303F584139B0002271D6079
:100E6800FFF72CFF064697FAA7F30A6897FAA7F345
:100E7800B3FA83F303F01F0305FA03F31342D4D143
:100E8800FFF71CFF801B0228EDD983E795FAA5F32D
:100E9800B3FA83F303F1845303F584139B00022709
:100EA8001A60FFF70BFF064697FAA7F30A6897FA46
:100EB800A7F3B3FA83F303F01F0305FA03F313420E
:100EC8003FF40EAFFFF7FAFE801B0228ECD961E76A
:100ED800A269254D2548012112B391FAA1F3B3FA6D
:100EE80083F303449B0002261960FFF7E7FE0746D9
:100EF80096FAA6F396FAA6F396FAA6F36A6A96FA0B
:100F0800A6F3B3FA83F303F01F0301FA03F31342C2
:100F18007FF4EAAEFFF7D2FEC01B0228E8D939E712
:100F280091FAA1F3B3FA83F303449B0002261A60F3
:100F3800FFF7C4FE074696FAA6F396FAA6F396FAC2
:100F4800A6F36A6A96FAA6F3B3FA83F303F01F03CB
:100F580001FA03F313423FF4C7AEFFF7AFFEC01B1D
:100F68000228E8D916E700BF00100240208190103F
:100F78008A49CB69D80033D4CB6943F08053CB611D
:100F8800CB6903F080530193019B0125844E33689C
:100F9800DA0527D5E368012B34D10B6A43F0010346
:100FA8000B62FFF78BFE022607464FF0010896FA00
:100FB800A6F396FAA6F3002B61D00A6A96FAA6F36E
:100FC800B3FA83F303F01F0308FA03F313424ED076
:100FD800002D3FF48DAECB6923F08053CB6187E6BB
:100FE8000025D3E7336843F480733360FFF766FE68
:100FF80007463368DB05CDD4FFF760FEC01B6428C5
:10100800F7D9C7E62BBB0B6A23F001030B620B6A07
:1010180023F004030B62FFF751FE022607464FF048
:10102800010896FAA6F396FAA6F363B30A6A96FA43
:10103800A6F3B3FA83F303F01F0308FA03F313428A
:10104800C6D0FFF73BFE41F28833C01B9842E8D96F
:10105800A0E6052B0B6A03D143F004030B629CE75F
:1010680023F001030B620B6A23F0040398E7FFF7F0
:1010780025FE41F28833C01B984298D98AE696FA31
:10108800A6F34A6A9AE796FAA6F34A6ACFE743496B
:101098004B6803F00C03082B3FF451AE022A4FF0C3
:1010A800807354D193FAA3F3B3FA83F303F184530F
:1010B80003F584139B0000221A60FFF7FFFDDFF899
:1010C800E48006464FF00077012597FAA7F30A68EF
:1010D80097FAA7F3B3FA83F303F01F0305FA03F3B0
:1010E80013422ED1D4E908034A68034322F4741248
:1010F80013434B604FF0807393FAA3F3B3FA83F36F
:1011080003F1845303F584139B00264F1D60FFF7FA
:10111800D5FD4FF000750446012695FAA5F30A6837
:1011280095FAA5F3B3FA83F303F01F0306FA03F362
:1011380013427FF4E1ADFFF7C1FD001BB842ECD9C3
:1011480028E6FFF7BBFD801B4045BED922E693FA8F
:10115800A3F3B3FA83F303F1845303F584139B00D9
:1011680000221A60FFF7AAFD0E4F04464FF00075E3
:10117800012695FAA5F30A6895FAA5F3B3FA83F35D
:1011880003F01F0306FA03F313423FF4B5ADFFF76C
:1011980095FD001BB842ECD9FCE500BF00100240E9
:1011A80000700040400D0300504AF8B5136803F082
:1011B80007038B4204461BD32268900724D4D20726
:1011C8002AD44A4A136803F007038B427AD8206866
:1011D800430700F1828010F0080014D0444A2169C6
:1011E800536823F4605343EAC103536000200AE0C4
:1011F800136823F007030B431360136803F0070316
:101208008B42D9D00120F8BD3948A568436823F03E
:10121800F0032B434360D2E76268354D012A27D19A
:101228004FF4003393FAA3F0286893FAA3F3B3FAC0
:1012380083F303F01F0302FA03F30342E2D06B685F
:1012480023F003031A436A60FFF738FD6368012B34
:10125800064641F288371ED16B6803F00C03042B55
:10126800AFD0FFF72BFD801BB842F5D90320CAE7A2
:10127800022A0CBF4FF00073022393FAA3F02E68E2
:1012880093FAA3F3B3FA83F303F01F03012000FAE0
:1012980003F33342D2E7022B0FD16B6803F00C0340
:1012A800082B8ED0FFF70AFD801BB842F5D9DDE781
:1012B800FFF704FD801BB842D8D86B6813F00C0FF9
:1012C800F6D17EE7136823F007030B431360136816
:1012D80003F007038B4295D179E70549E3684A682B
:1012E80022F4E0621A434A6075E700BF002002401A
:1012F800001002402DE9F74FDFF874815D4C0023A0
:101308004FF001090A6832FA03F502D103B0BDE8CB
:10131800F08F09FA03FA1AEA020200F09E804D687B
:1013280025F0100EBEF1020F14D14FEAD30C00EBDA
:101338008C0C03F0070BDCF820604FEA8B0B0F27AF
:1013480007FA0BF726EA07070E6906FA0BF63E437B
:10135800CCF82060D0F800B04FEA430C032606FA18
:101368000CF72BEA070BFE4305F0030707FA0CF707
:101378000EF1FF3E47EA0B07BEF1010F076011D8D7
:10138800876806EA070ECF6807FA0CF747EA0E07E0
:101398008760476827EA0A0AC5F300179F4047EAAB
:1013A8000A074760C76837408E6806FA0CF63E435E
:1013B800C660EE0051D5D8F8186046F00106C8F8A6
:1013C8001860D8F8186023F0030707F1804706F083
:1013D800010607F58037019603F0030E019EBE68EB
:1013E8004FEA8E0E4FF00F0C0CFA0EFCB0F1904F36
:1013F80026EA0C0C33D0204EB04232D006F5806677
:10140800B04230D006F58066B0422ED006F5806630
:10141800B0420CBF0426052606FA0EF646EA0C066C
:10142800BE602668D74315F4803F0CBF3E40164384
:101438002660666815F4003F0CBF3E4016436660A0
:10144800A66815F4801F0CBF3E401643A660E668E8
:10145800AD0254BF3E401643E660013352E7002612
:10146800DAE70126D8E70226D6E70326D4E700BF45
:101478000010024000040140000400480AB18161E4
:10148800704781627047000002688168C36930B59F
:10149800056914682943456924F41644294324F04E
:1014A8000C041943214311605168C468056A21F48A
:1014B8004051214351609468816924F43064294380
:1014C8002143916062498A4216D101F55841096B5E
:1014D80001F003010139022900F2B2805D4CB3F535
:1014E800004F615C77D1082972D8DFE801F0ACAC15
:1014F8002471AC717171A40057498A422CD101F54D
:10150800E631096B01F44031B1F5003F00F09080FD
:101518000BD8002900F09480B1F5803F00F090804E
:10152800B3F5004F54D0012015E0B1F5403FF7D195
:10153800B3F5004F66D141684B0803F1F47303F526
:101548009043B3FBF1F300209BB223F00F01C3F3E8
:1015580042030B43D36030BD40498A4210D101F5A4
:10156800E431096B01F44021B1F5002F60D004D8B3
:10157800002965D0B1F5802FD0E7B1F5402FD6E727
:1015880037498A4210D101F5E231096B01F4401163
:10159800B1F5001F4CD004D8002951D0B1F5801FF7
:1015A800BCE7B1F5401FC2E72E498A42B8D101F520
:1015B800E031096B01F44001B1F5000F38D004D8CF
:1015C80000293DD0B1F5800FA8E7B1F5400FAEE78F
:1015D80001200023B9E70829A5D801A353F821F071
:1015E80025160008251600080D1600082F150008F6
:1015F800251600082F1500082F1500082F150008BC
:101608002F16000841684B0803F5740303F51053BF
:10161800B3FBF1F39BB2D36000209CE741684B0811
:1016280003F5E103F4E741684B0803F50043EFE7EE
:10163800B3F5004FF7D141684B0803F5803380E7D5
:10164800B3F5004FEAD141684B0803F5610378E729
:10165800003801408C1C000800440040004800404D
:10166800004C004000500040F8B5069F044615465F
:101678001E462268D36931EA03030CBF0123002305
:10168800AB4201D0002014E07B1CF3D097B923684B
:101698001A6822F4D0721A609A6822F001029A60DD
:1016A800202384F8693084F86A30002384F868308D
:1016B8000320F8BDFFF702FB801BB842D9D9E6E743
:1016C80037B504460021C166FFF7F8FA23681B689E
:1016D8001A07054617D423681B685B070AD56FF0FD
:1016E8007E43009300222B464FF480012046FFF7EB
:1016F800BBFFA0B92023002084F8693084F8680073
:1017080084F86A300CE06FF07E4300930A46034683
:101718004FF400112046FFF7A7FF0028DBD0032075
:1017280003B030BD10B5044628B390F8693003F013
:10173800FF020BB980F868202268242384F86930F6
:10174800136823F0010313602046FFF79DFE01286C
:1017580011D023685A6822F490425A609A6822F09D
:101768002A029A601A6842F0010220461A60BDE80F
:101778001040FFF7A5BF012010BDF7B51E4690F831
:101788006930202B0D46044611464AD1002D46D01B
:10179800002A44D090F86830012B42D0012380F809
:1017A80068300023C366212380F86930FFF786FA82
:1017B800A4F850100746A4F85210B4F8522092B278
:1017C80062B900963B4640212046FFF74DFF98B985
:1017D800202384F8693084F868000EE0B4F85220B9
:1017E8000096013A92B2A4F852203B46002280218A
:1017F8002046FFF739FF10B1032003B0F0BDA368FE
:101808002268B3F5805F07D123692BB935F8023B0D
:10181800C3F308031385D0E715F8013BFAE7012065
:10182800EBE70220E9E72DE9F3411E4690F86A301C
:10183800202B0D46044611465CD1002D58D0002AB5
:1018480056D090F86830012B54D0012380F86830C6
:1018580003684FF0FF321A620023C366222380F820
:101868006A30FFF72BFAA368A4F85810B3F5805F25
:101878008046A4F85A1015D123698BB940F2FF139A
:10188800A4F85C30B4F85C70B4F85A0080B280B93F
:10189800202384F86A3084F8680002B0BDE8F0813B
:1018A800FF23EDE7002BEDD12369002BF8D07F2330
:1018B800E6E7B4F85A200096013A92B2A4F85A2002
:1018C8004346002220212046FFF7CEFEA0B9A26899
:1018D8002368B2F5805F06D1226922B99B8C3B4010
:1018E80025F8023BD0E79B8C3B4005F8013BCBE752
:1018F8000120D2E70220D0E70320CEE7002103E051
:101908000B4B5B58435004310A480B4B42189A4220
:10191800F6D30A4A02E0002313600432084B9A42C5
:10192800F9D3AFF3008000F067F9FEF7B3FFFEE7E5
:10193800B01C000800000020B8880020B8880020EB
:10194800108A0020FEE7000038B5044600F02AF8A7
:10195800114B93F90030013305460DD0204600F0B5
:101968003DF948B10D492046FEF7F4FE60B90C492F
:101978002046FEF7D1FE08B9284638BD00F036F9F2
:10198800222300250360F7E700F030F922234FF007
:10199800FF450360F0E700BF508800208071B14226
:1019A800B5F1CFC220F00042B2F1FF4F2DE9F04768
:1019B80004466AD84FEAD07500F0C2807749884259
:1019C80068DC0028C0F2B580754B9A4268D9754B1F
:1019D8009A4200F2C080744B204653F82510FEF757
:1019E800F3FB724BC5F1010653F825908046761B30
:1019F80049464046FEF7E8FB01460546FEF7EEFC81
:101A08006B490446FEF7EAFC6A49FEF7DDFB21460E
:101A1800FEF7E4FC6849FEF7D9FB2146FEF7DEFC39
:101A28006649FEF7D1FB2146FEF7D8FC6449FEF76C
:101A3800CDFB2146FEF7D2FC01462846FEF7C4FB43
:101A48002C4607468246002E5CD039462846FEF7CB
:101A5800C5FC394604464FF08040FEF7B5FB014609
:101A68002046FEF76FFD01464846FEF7ADFB4146AE
:101A7800FEF7AAFB01464FF07E50FEF7A5FB16F1D4
:101A88007D0F60DB00EBC65002E00146FEF79EFBCF
:101A9800BDE8F0874B490846FEF7A0FCBDE8F08793
:101AA800B2F1465F09D247492046FEF78FFB4FF057
:101AB8007E51FEF74FFE00286AD121462046FEF7E8
:101AC8008DFC3B490546FEF789FC3A49FEF77CFB4D
:101AD8002946FEF783FC3849FEF778FB2946FEF7CE
:101AE8007DFC3649FEF770FB2946FEF777FC344942
:101AF800FEF76CFB2946FEF771FC01462046FEF70F
:101B080063FB824651462046FEF768FC4FF0804151
:101B180005465046FEF758FB01462846FEF712FDDB
:101B28002146FEF751FB01464FF07E50FEF74CFB75
:101B3800AEE7254B9A427FF647AF0020BDE8F08715
:101B4800002DFAD1A4E764364FF0586100EBC65077
:101B5800FEF744FC9CE71D492046FEF73FFC1C4B62
:101B680053F82510FEF732FBFEF7FEFD0646FEF79A
:101B7800E1FB18490546FEF731FC01462046FEF711
:101B880023FB154980462846FEF728FC81462FE7A7
:101B98004FF07E512046FEF719FB79E71772B142E4
:101BA8001872B13E9115853F981C0008A01C0008CA
:101BB8004CBB31330EEADD3555B38A38610B363B01
:101BC800ABAA2A3ECAF24971B5F1CF423BAAB83F47
:101BD800901C00088071313FD1F7173720F0004082
:101BE800B0F1FF4FACBF002001207047014B1868CF
:101BF800704700BF5488002070B50D4D0D4C641B14
:101C0800A4100026A64209D10B4D0C4C00F02EF86A
:101C1800641BA4100026A64205D170BD55F8043BEC
:101C280098470136EEE755F8043B98470136F2E746
:101C3800A81C0008A81C0008A81C0008AC1C000868
:101C48000A44914200F1FF3300D1704710B511F8F2
:101C5800014B03F8014F9142F9D110BD02440346EC
:101C6800934200D1704703F8011BF9E7F8B500BFAC
:101C7800F8BC08BC9E467047F8B500BFF8BC08BC65
:041C88009E467047BD
:101C8C00040802000000003F000000BF8071313FDB
:0C1C9C00807131BFD1F71737D1F717B7AF
:041CA800AD01000882
:041CAC0089010008A2
:101CB00032C71ABF1E882CBD8E3C21408676ECBFF1
:101CC00055341E402F17264009E27EC0F94E0F40C2
:101CD000D8D868C0AA9B2CC0512F1FC0E6E7564039
:101CE000A7E840C0C6192F40B53516C0279F6DC064
:101CF0000437923E6C24C9BEEBFC36406FD62740B9
:101D000057797A3FF83518C026C703404CC5923F33
:101D100035990AC09FACB03FBAE881C0AB083B3FE1
:101D20000189723FC74C87402652DABF3BC3494006
:101D300086576B4057EB1BC038A336BF889C3ABF11
:101D4000001EB33F2521AFBF72C2C43E408903408D
:101D50005C7367403EB3D2BFC7F2A0BFBE3248C07B
:101D6000492F09C02C29C53F20EF973F2387E8BFA3
:101D700061C12B408BC63EC04B21BCBFA8E1533F85
:101D80009A3F13C0E8F42CC0A1BDB63F8BFE8EBFB6
:101D90004DA32E40FA6EA540917FEE3E6612973F0E
:101DA000E44A313FC590FC3DD8F41FC07715E83FA9
:101DB000821ADA3F2AFFB83F7C19B0C0AE82B83D24
:101DC00082005A406E8931C0DC475D403F54FEBFFF
:101DD000A9303A4036936B3FD3844D3FF6FAA0C00A
:101DE00047002F4071C9713E8029E3BF26FC8A3E1F
:101DF00015BA8EC061FA42C0352824C0096EDE3F94
:101E000036760540522720408239104018082CC0F1
:101E10001B4899BF83DAD53FA1BE014083FC923FA6
:101E2000855C5D3F9B74D53FB054E5BFEAECBE3F97
:101E3000D21A354089282EC0B1FB7DC026DF5FC095
:101E40000000000000000000000000000000000092
:101E50000000000000000000000000000000000082
:101E60000000000000000000000000000000000072
:101E70000000000000000000000000000000000062
:101E80000000000000000000000000000000000052
:101E90000000000000000000000000000000000042
:101EA0000000000000000000000000000000000032
:101EB0000000000000000000000000000000000022
:101EC0000000000000000000000000000000000012
:101ED0000000000000000000000000000000000002
:101EE00000000000000000000000000000000000F2
:101EF00000000000000000000000000000000000E2
:101F000000000000000000000000000000000000D1
:101F100000000000000000000000000000000000C1
:101F200000000000000000000000000000000000B1
:101F300000000000000000000000000000000000A1
:101F40000000000000000000000000000000000091
:101F50000000000000000000000000000000000081
:101F60000000000000000000000000000000000071
:101F70000000000000000000000000000000000061
:101F80000000000000000000000000000000000051
:101F90000000000000000000000000000000000041
:101FA0000000000000000000000000000000000031
:101FB0000000000000000000000000000000000021
:101FC0000000000000000000000000000000000011
:101FD0000000000000000000000000000000000001
:101FE00000000000000000000000000000000000F1
:101FF00000000000000000000000000000000000E1
:1020000000000000000000000000000000000000D0
:1020100000000000000000000000000000000000C0
:1020200000000000000000000000000000000000B0
:10203000000030410000164300007D4300004A4389
:102040000000F84100000000000000000000000057
:102050000000000000000000000000000000000080
:102060000000000000000000000000000000000070
:102070000000000000000000000000000000000060
:102080000000000000000000000000000000000050
:102090000000000000000000000000000000000040
:1020A0000000144200007B4300007B4300007D439E
:1020B0000000D64200000000000000000000000008
:1020C0000000000000000000000000000000000010
:1020D0000000000000000000000000000000000000
:1020E00000000000000000000000000000000000F0
:1020F00000000000000000000000000000000000E0
:102100000000000000000000000000000000A841E6
:102110000000454300007B4300007B4300007D43FB
:102120000000D64200000000000000000000000097
:10213000000000000000000000000000000000009F
:10214000000000000000000000000000000000008F
:10215000000000000000000000000000000000007F
:10216000000000000000000000000000000000006F
:1021700000000000000000000000DC4200003E43C0
:1021800000007B4300007B4300007B4300007D4355
:10219000000029430000DA420000784200000000FD
:1021A000000000000000000000000000000000002F
:1021B000000000000000000000000000000000001F
:1021C000000000000000000000000000000000000F
:1021D00000000000000000000000000000000000FF
:1021E000000000000000000000007D4300007B4371
:1021F00000007B4300007B4300007B4300007D43E5
:1022000000007B4300007B4300005C4300004C4225
:1022100000000000000000000000000000000000BE
:1022200000000000000000000000000000000000AE
:10223000000000000000000000000000000000009E
:10224000000000000000000000000000000000008E
:10225000000000000000364300007F4300007D4383
:1022600000007D4300007D4300007D4300006A4381
:1022700000005E4300007D4300007D4300007D437D
:10228000000000000000000000000000000000004E
:10229000000000000000000000000000000000003E
:1022A000000000000000000000000000000000002E
:1022B000000000000000000000000000000000001E
:1022C00000007C4200005D4300007D4300007B4332
:1022D00000007B4300007B430000134300009A4250
:1022E000000078420000004300007B4300007B4375
:1022F0000000D242000000000000000000000000CA
:1023000000000000000000000000000000000000CD
:1023100000000000000000000000000000000000BD
:10232000000000000000000000000000000000426B
:102330000000674300007B4300007D4300007B43B7
:1023400000005C4300000943000020410000000041
:10235000000000000000F8410000664300007B43DD
:10236000000073430000E2420000A04000000000B3
:10237000000000000000000000000000000000005D
:10238000000000000000000000000000000000004D
:1023900000000000000000000000000000001442E7
:1023A00000007B4300007B4300007D4300003C4372
:1023B0000000A0410000000000000000000000003C
:1023C00000000000000000000000DA4200007B4333
:1023D00000007D4300007B4300000C420000000031
:1023E00000000000000000000000000000000000ED
:1023F00000000000000000000000000000000000DD
:102400000000000000000000000000000000144276
:1024100000007B4300007B43000049430000F04183
:1024200000000000000000000000000000000000AC
:1024300000000000000000000000F84100004843D8
:1024400000007D4300007B4300000C4200000000C0
:10245000000000000000000000000000000000007C
:10246000000000000000000000000000000000006C
:102470000000000000000000000000000000144206
:1024800000007D4300007D430000000000000000CC
:10249000000000000000000000000000000000003C
:1024A00000000000000000000000004200004A435D
:1024B00000007F4300007D43000024430000000033
:1024C000000000000000000000000000000000000C
:1024D00000000000000000000000000000000000FC
:1024E00000000000000000000000000000000C439D
:1024F00000007B4300007B43000000000000000060
:1025000000000000000000000000000000000000CB
:1025100000000000000000000000DA4200007B43E1
:1025200000007D4300007B4300000C4200000000DF
:10253000000000000000000000000000000000009B
:10254000000000000000000000000000000000008B
:1025500000000000000000000000000000005943DF
:1025600000007B4300007B430000000000000000EF
:10257000000000000000000000000000000000005B
:102580000000A84100007C420000674300007B433C
:1025900000007D43000066430000F04100000000A1
:1025A000000000000000000000000000000000002B
:1025B000000000000000000000000000000000001B
:1025C000000000000000000000000000000059436F
:1025D00000007B4300007B4300000000000000007F
:1025E00000000000000000000000000000000000EB
:1025F0000000104300007B4300007B4300007B434E
:1026000000005D4300007442000000000000000074
:1026100000000000000000000000000000000000BA
:1026200000000000000000000000000000000000AA
:1026300000000000000000000000000000005943FE
:1026400000007B4300007B4300000000000000000E
:102650000000000000000000000000000000364301
:1026600000005D4300007B4300007B4300007B4390
:1026700000003443000000000000000000000000E3
:10268000000000000000000000000000000000004A
:10269000000000000000000000000000000000003A
:1026A00000000000000000000000000000005A438D
:1026B00000007D4300007D430000924200009242F2
:1026C0000000644300007D4300007D4300007F4321
:1026D00000007D4300007D4300007D4300007D43FA
:1026E00000000000000000000000000000000000EA
:1026F00000000000000000000000000000000000DA
:1027000000000000000000000000000000000000C9
:102710000000000000000000000000000000E24295
:1027200000007B4300007B4300007D4300007B43AF
:1027300000007B4300007B4300007B4300007D439F
:1027400000007B4300007B4300007B4300001343F9
:102750000000000000000000000000000000000079
:102760000000000000000000000000000000000069
:102770000000000000000000000000000000000059
:102780000000000000000000000000000000F84110
:102790000000664300007B4300007D4300007B4354
:1027A00000007B4300007B4300007B4300007D432F
:1027B0000000664300003D4300000C420000204141
:1027C0000000000000000000000000000000000009
:1027D00000000000000000000000000000000000F9
:1027E00000000000000000000000000000000000E9
:1027F00000000000000000000000000000000000D9
:102800000000784200000E4300007D4300007B433F
:1028100000007B4300007B4300007B4300007D43BE
:102820000000D64200000000000000000000000090
:102830000000000000000000000000000000000098
:102840000000000000000000000000000000000088
:102850000000000000000000000000000000000078
:102860000000000000000000000000000000000068
:1028700000000000000000000000904200002E4315
:1028800000007B4300002D4300008E420000904278
:102890000000F04100000000000000000000000007
:1028A0000000000000000000000000000000000028
:1028B0000000000000000000000000000000000018
:1028C0000000000000000000000000000000000008
:1028D00000000000000000000000000000000000F8
:1028E00000000000000000000000000000000000E8
:1028F00000000000000000000000000000000000D8
:1029000000000000000000000000000000000000C7
:1029100000000000000000000000000000000000B7
:1029200000000000000000000000000000000000A7
:102930000000000000000000000000000000000097
:102940000000000000000000000000000000000087
:102950000000000000000000000000000000000077
:102960000000000000000000000000000000000067
:102970000000000000000000000000000000000057
:102980000000000000000000000000000000000047
:102990000000000000000000000000000000000037
:1029A0000000000000000000000000000000000027
:1029B0000000000000000000000000000000000017
:1029C0000000000000000000000000000000000007
:1029D00000000000000000000000000000000000F7
:1029E00000000000000000000000000000000000E7
:1029F00000000000000000000000000000000000D7
:102A000000000000000000000000000000000000C6
:102A100000000000000000000000000000000000B6
:102A200000000000000000000000000000000000A6
:102A30000000000000000000000000000000000096
:102A40000000000000000000000000000000000086
:102A50000000000000000000000000000000000076
:102A60000000000000000000000000000000000066
:102A70000000000000000000000000000000000056
:102A80007440B23D7F32E6BD89D0883C67808B3C84
:102A900023BC3DBD1EFB09BE0FEF793D906B23BEED
:102AA000B493C1BD41F008BE064874BD40A0B3BD9B
:102AB000452FC33DD8F51B3EB45B4BBD84D8193CB4
:102AC000C09316BD3D7F1ABE93E0CDBD7D0995BC78
:102AD00069C48CBDCD5BD5BD99A0463DD1028C3E6D
:102AE000516819BD4FCAE4BD9085683C61FE4A3DFE
:102AF00018D01BBED0B8F0BCD45FAF3C30D80DBEF0
:102B000041D7BE3C00E1433D3A040E3C5C39FBBD7D
:102B1000739D76BEC37DE4BB08E9693EDEAE973C9B
:102B2000BF49D3BC931ADA3BE542153E8A74BF3CD9
:102B3000A1F8B1BC287FF7BC8DCF643EF8E336BD69
:102B4000095269BD996379BDBB7F6C3DE965543D10
:102B50005AD63DBE8F187DBDD883893D6EC1F2BD6A
:102B6000E03031BE29AEAABCAC910D3EAFB0603EA4
:102B70009983C0BD132BA3BD3A074F3C3750203D6E
:102B8000268EBCBCD40FCA3DD480A13D4ED27CBCA5
:102B90003F1D8FBCFD859EBC297A803D8654B1BD0A
:102BA000EE77A83DC440B7BD6075E4BB9B58003EBE
:102BB000800C9D3CD3F970BBAFCC5BBEA6D1143E5C
:102BC000F75A203E213C5A3B0588A23DACFFF3BD9D
:102BD000CAFB183E7A5010BD0B44AFBDFD12F13C4C
:102BE000679D31BD30A1E23DCDAF263E8D7AA83D37
:102BF00090DD053E2DECE9BC081DD4BD126C5C3D9A
:102C0000189900BEC710803C38F4363E09C0BFBDDD
:102C10003925803E5706A53E0F27D03DC957723E45
:102C200022C37A3E7DCD823EAAB79E3EFED7293E84
:102C3000D504B13D1FDB723DBE697ABC3CF7BEBD19
:102C40005CAC28BC24979F3D62D68BBC27C070BD6E
:102C5000D2A9ABBC7EE0AA3D2B1815BB1A3349BDE7
:102C6000C16ED83BDECB7DBD52B9893C99663A3DF9
:102C7000897B0CBE070991BDE199B0BD40BD91BEF5
:102C800036E760BDAD6E253E29AEEA3D3753213DA6
:102C9000F7E7023EC158BF3D7077963E1DE64BBD3B
:102CA00074B2D43BC3A0CC3DD2E0B63B2FF8D43DA8
:102CB00018CC3FBE7218EC3D3EE9843DE109BDBC35
:102CC00051F8ACBD1AA3253EFA6099BC14B0FD3D85
:102CD000AB25DD3D02D3693DA65E273E1AC201BE8B
:102CE000AE0C4ABE0668FBBE43FEA1BEBB284ABE70
:102CF0003A0363BEE1CE65BE75AB37BE94315EBEAE
:102D00006E356B3C2A022CBE6DC9AA3B207D93BD5B
:102D1000E294B9BDC636C93DB20FB23B78EE3DBDB7
:102D2000D21908BEE887B13D6C7BBB3CC51BD93DC1
:102D3000B54E2C3ECDACA5392026A13D00AA183EAB
:102D40009127C93D51F52B3E4C518EBE4BB028BE4C
:102D5000A79166BE99F093BE05A217BE290648BE8C
:102D60007C4311BE01A135BD9D9E77BD637AC2BE75
:102D7000F2ECB2BE3CA127BEE08422BEA871EFBD3A
:102D8000016E36BEDC8205BEDECC08BE3272D6BE17
:102D9000B2D8463E12DDB33CA587A13DA40051BD8B
:102DA000A779C7BC40A2093D4ED55D3E2460743D65
:102DB0000F0C80BD26A9CCBCCF9ECB3CE8D9AC3C47
:102DC00047E4BB3CC1FEAB3D0916BFBE60CC06BEAE
:102DD000DC0F38BDE2AF493C90665CBEDE9151BE6F
:102DE000EAAE2C3DBFB94FBE29054DBEC1FFB6BDF1
:102DF00079EA01BE38DBDCBD68B23F3D45BA5FBD54
:102E000054E1CFBA884938BADA579E3D1B6492BD67
:102E1000AB23E73D94A5B63D4DBC433D5B248D3DC2
:102E20004B5906BB1BBEA5BD82E79EBD679DF1BD8C
:102E3000AA7E25BEFA0CA83CF5688A3D7D96673CC3
:102E4000A6D405BE7B15F9BD301305BDB72A59BE02
:102E5000A96B1DBE75016FBDC40746BEDEC606BEAA
:102E60007FF518BE312708BE9B3879BDE481C83B89
:102E70000EBF3B3E4E64163E207D533D13EE953C07
:102E800055DAC2BDDE019E3B2AA7FDBDC11E23BE91
:102E90005C1BAABCF3AA0E3EED7F103EF566043E15
:102EA00008223B3E29CD663C2EE4B13DDDEC0F3DD2
:102EB0002B2F81BE74EB35BDFA9C3BBD83C38B3C8D
:102EC0009D4840BE1366BABD99D711BDF0DC7BBEEC
:102ED0009E96D7BEE965A4BE2C2C38BE5585A63D6E
:102EE000C0072FBCBC96D03DFDDBC5BD1B4902BC55
:102EF000F5824F3E170D81BEB62D8A3DBA12013CB8
:102F0000744614BD2272DA3DC9E3C93D6078E5BD5F
:102F10004818E63D5C93AE3DF35532BE2B6B4BBE7D
:102F20001D77CABC5743E23BF12DAC3C6C2188BDF8
:102F3000B87381BD0A1110BE7654ADBE2B85E0BEBC
:102F400079AF06BF189554BE189960BE459E24BE41
:102F500040A695BD8CBE023EFC6EDABD0858ABBCE7
:102F6000A913103DEED10BBE431F4C3EF5131E3E80
:102F7000CEA8F93B5F9A323E124B4ABC33888F3D54
:102F80009FABAD3A33E1D7BDBE8670BEC2128F3D56
:102F90004DF5843D1536133EE947133EA20C153D11
:102FA0007521D63D78D5833CCB659BBE3D6016BF71
:102FB000B118E5BE9ED3CCBE492DB4BD6AA1643D17
:102FC000B804E03D96B4223E92AE593DD2005EBDBB
:102FD000C6BEE43C47E350BD59885E3EA73B1F3E5A
:102FE000E294893EC025E0BD67801B3E624E703E84
:102FF0007A6C4BBC61FC34BE8ECEB1BE3049A53D6F
:1030000075E7693ED8B7433E4D2D7B3EF9D8DD3D8F
:103010008A1F933E162FD63D89782BBE1AE1ADBE8E
:103020007C2746BE1805C1BD56F211BEC2FBCA3D83
:103030006AA1A4BDF5DB97BDD8B7933CC0D033BE21
:103040003A5B903E38321F3E9E07373EC8B68CBC76
:10305000D2704ABC84B90DBEFAB3A73EB58AFEBB96
:103060005704DF3D67F1A2BD85D0E13D9D4CDC3EBC
:10307000E8BDD93E85B2003E1879993D85B4163E2B
:103080003D0A073E3AAEBE3E05A5803E501CC0BC80
:103090003FFE123D753D01BE388515BE0550EC3D25
:1030A0006FF085BD15701FBE69AD283DBD729DBD19
:1030B0008F17F23D51855F3E20B7BFBDC3671B3EF2
:1030C0002D09B03DB37B123ED9E9773E304A803EB0
:1030D0006003A2BC2E8F9DBEBEBF013E802A3E3E35
:1030E000C9C7123FFC8B403E1D5BAF3E459CC63EB0
:1030F00038A0CD3E3080A83EB9C5943E016C403E1C
:10310000B7EB853D2176263C1ABFD0BD19A977BD06
:10311000603BD83DC592D23D48503CBDC504F53D0D
:103120004EF1483E5E67233E4242043E6E6B3B3E9C
:10313000CEDF143EDAE18F3D5776313E6B602B3D9A
:10314000085B4CBEDB5081BEBDC3EDBB386ADD3EC3
:10315000923C9F3E0A2BFD3E0262423EFCFEA53E93
:1031600068CEC23E0265833EA913B83E151F1F3DBF
:103170007924FEBD39F1D53CAC581CBEFB1EF53C94
:1031800001FB283E081D343DAEB9A3BD72A6493DE2
:10319000A051FABD8CB96B3D61C6343E87A4163E82
:1031A000676064BC780D7ABD2C0EE73CE0491BBE1D
:1031B000C7F1A3BD4969F6BD63D25F3C46CDF73E7A
:1031C00029ED953E90F8053FC7F1AB3EB894233EFC
:1031D000A14AFD3E93ABB83E3B6F9B3E72C5C5BC5A
:1031E000BCCA6A3E2849F73D703E35BE78EE9D3D2B
:1031F0007EC986BDF0F836BDE3C241BE7A8989BE7C
:10320000D89F443D90BFB43B47E992BD48FB5F3D2A
:103210001591813E81E8493D99115E3D723407BDAB
:1032200013D666BE2A3B0D3E1119963EB341DE3ED3
:103230000070D43E7F12873E2827CA3E65C4853C75
:10324000342D313E24EF7C3EF7AE613E404F83BCCF
:10325000A5BE2C3D40DF96BCDD43C2BCEA931CBD3D
:103260001442073D69733CBEC5750CBC815B57BEFB
:10327000AD8A703DAA2DF53DBBB9F8BC0648B4BD7A
:10328000CDEADD3DC11A87BDA80103BB12A4D23D22
:103290003D47043E603EF93D7FA69E3EE4A2A23E2D
:1032A00010917A3ECBDAA63D7E8E6F3E548E193E4B
:1032B0001C7D843EADDFCC3D6762FABDEB00083D6E
:1032C0009AEC1F3D3D9D8BBD7EFC453E93A902BD02
:1032D00086582D3E562CBE3D5DA4F0BD70227ABDB1
:1032E0000EF5BB3B26C507BD763604BEB3D08EBDFA
:1032F0006BBA5EBE0CEAC3BE670B88BE752201BD09
:10330000BA2EFCBC427854BED66E0B3E1059043E19
:103310001615013EBEA4D1BD020C4BBED410953D86
:103320009B7265BE9CF9D5BDB5DD84BEBA4DB83C77
:10333000BB48813D7DCAF13D7841C4BD5D1A4FBE99
:103340003082A6BD79CBD5BC3A40B0BD7556EBBD39
:103350002314FBBDC39B95BED462A8BEFAD5B4BEF0
:10336000FEF3FCBE2A91A4BE098BA2BED13B15BEC2
:10337000022C72BCDA5568BEF5130EBDC0D0E3BD99
:10338000209B84BDC36204BEC4999FBD693A7BBDC6
:10339000CB4BD6BE2BF9E8BE10B2A4BE81CF6FBE18
:1033A0005798BEBC1EA8133D3FFDC73DC407063E4F
:1033B00079EA11BD941583BD533EC4BDE84C1A3D56
:1033C000869003BE5A105ABE1BA1BFBEE8F7A5BE29
:1033D000D1CF84BE09332DBEA854A1BEF60CA9BE20
:1033E0009566D3BDB933BBBE59DCDFBE07B4DCBEC6
:1033F0005132B9BD751E75BEA0509FBE850715BF61
:10340000406C29BF5034FFBEBD3766BEBADA0ABE73
:10341000A5A33C3EB265B93D3927F63BD7C26CBD8A
:10342000363B92BD6D54373EEC5178BD42D207BE5B
:1034300022C796BD118D6EBED504A9BE232F7BBEBB
:103440007FFBDABDFDDB85BED53DB2BE5AD986BE57
:10345000F23F91BEE63DCEBEF8E293BE2F86BABEE5
:103460008ECCABBE639827BFC347E4BE8A3CC9BEBF
:1034700012A29CBEE92BD0BE8C9E6BBE8735153E3A
:10348000BDA908BD3E3F0C3C707756BC7041B63DAF
:10349000DC9D053E8A3D743DBF4602BED95F06BE37
:1034A0008B8B53BECF8406BE3C671BBE2786643E13
:1034B0008787B0BCCA6D5BBEAE2CF1BD9FAAA2BE11
:1034C000DB5297BEFDBBBEBE5E13B2BE16A411BFDB
:1034D000A9DC10BF556BD9BE9E7DEDBEA8C475BEDC
:1034E0000266AEBEC72B40BED28B5ABDD59735BE45
:1034F0003A79F1BD40DC553C705B5B3D92CF2BBD12
:10350000CEDFE43D140685BDC2DD49BEB9FFC83B30
:103510002B15D4BCAFB577BC7F886D3E38BE8E3ED0
:10352000C9918E3D00378BBD5A11753D31B1F9BC43
:10353000920742BEE1615ABE5CE38BBE8A2149BE5E
:10354000FF0562BEA5F361BCC4995FBD0ED72ABD5D
:1035500032E8843BCEFC3A3EB40469BE9BAF423EA7
:103560008CD9323E7218CC3D67B4153D5649243D86
:10357000FCA8063C204191BDD40CE93D13EE55BD9D
:10358000CBF78CBB2BDA8C3E0741C73CB22D533EA8
:103590003D81303CBFD3043E8BC26EBDCE1C02BE0B
:1035A0006F9BA93B54ABAF3D3544B53D8C66E53CC4
:1035B000AFEB97BD0BEE873D868FA83D653909BD02
:1035C0000FD6DFBD033E1F3E990EFD3DB72487BDDC
:1035D000AF06A8BCA378953DEC69573E831507BE9E
:1035E000749704BD0B25133D1747353E5D50BF3D15
:1035F000697146BC4B3F61BBFFCFE13D9FCB043EB1
:103600009623A43E4C16473EA626313E36CC503B70
:103610004B90213E6D8D88BC721721BDDBA6783E94
:103620008DB62A3D19E3433BA017EE3D548B583E1F
:103630007EC3A43D6BBABE3DD6FECE3B38DB6C3EAE
:10364000FD859E3CE928373E01A60CBDCD3A233EC0
:10365000823639BD844AA43EA08AFBBDECA2283D37
:103660000114633D693B763EF8C6503DA0E2B8BD0B
:10367000B0CAC53DDD9703BE3FC4463D7FFB9A3DC2
:10368000D461853D71E4C13DEDD3313EA297D13C7B
:10369000184078BCB309B03C583C353D87DE323E1B
:1036A0007EC770BB9D4745BD876FE1BC29E75B3E88
:1036B000C2DE443AFA27083E8388243E3BE5B1BD8A
:1036C00031CEDFBB240FC4BDF0DFDC3D3F8BA53A1C
:1036D00041F2EEBD876D0B3EDAE1CFBD20EF55BD67
:1036E0003F56303D15E1A6BC037D62BDD49AE6BCD1
:1036F000EACBB2BD36E7103E268FA73DB438833DF6
:1037000041472BBD328FBC3DB955503D41D77E3D21
:103710008BA6133E9982B5BD5F0A4FBD75E8243E66
:10372000978F243D31CEDF3B59C3153E0C04413DFC
:10373000BD5206BEFAB7EBBDB16D913DF5F3263D26
:103740007B49133E8CD7BC3C210434BE48E0CF3DBE
:103750000A81DC3C802B19BEFC52FF3DF20B2FBCD2
:1037600073F418BEF96AC7BD55A367BE981675BC39
:10377000B9FAB1BD3605B2BDB075E9BDFDDA7ABDA5
:10378000E7559DBCBBD67EBEEC6B9DBD6519A23DC9
:10379000E623493E4EB7ECBCFCE212BD4A282DBEE2
:1037A0002A3B7D3CF73F803D8D7A083C1F4773BD27
:1037B000D9AF9BBDCBBF96BCEB3793BE85251EBD55
:1037C00072C36F3C1D03723DEED0303B016A8ABD6F
:1037D000E608B9BDE351AABDCE8BD33DA988133D00
:1037E000B0FEEF3D4969363E198EE73CC4B3C43D97
:1037F000B5182C3E35B6973DAC3B963C21CE23BE4A
:1038000037A9283D17A02D3D828DEBBC5A108ABDEB
:103810003DF322BE82C63CBECD0318BD9DD5423DC0
:103820001920513CD68C0C3D8C4AEA3B0B0E6F3D67
:103830001ABF70BCC347BCBEBDFC6EBE95EF993CC1
:10384000C7F404BCCBA2303CE6CDE13BAF27BA3C89
:10385000C2DA283E4436103CE6B01B3E5D8CE13DAA
:10386000AA287E3E757547BC465DEB3C705E9CBCED
:103870001BF550BD37A6673DF8FDBB3DAA44593C3A
:1038800098BE573BB20EC73C04E78C3A0D1C90BD66
:10389000AEA069BD6FF3863DEACBD23B2A53CCBCC8
:1038A0009B38393CBFD299BDB22D33BEC2C3343C24
:1038B000626875BDC1FD103E9565E8BD810445BDDA
:1038C000DA01573C0FB8AEBB6D1F723D0684F63D62
:1038D0002E586A3EFCC83D3E4A96F33D17B7D13795
:1038E00022502DBE433B47BEAB21313D5DA8BC3DC0
:1038F000FE2C963BBFF08ABD2B31AF3DC842743DD4
:103900008D2938BE0B635B3E08E81E3EC47A133E29
:103910000FD2F3BD5FB4A7BDC38005BE51BD15BEB8
:10392000B76049BE4A0A6CBD755510BE79B21BBD61
:1039300024800BBE19558EBEB2D6103D0DFCA83D9D
:103940004D11203DA88F403C13807FBD477700BEBE
:10395000EBFCDB3DF25B04BEA7CEC33D67286EBD2A
:1039600064B0E23C44888B3D7159853EB249FEBC4F
:10397000C076403EDD7CE33DB6F4C83D3A0664BE09
:103980006477813BF757EF3DE887F1BDF228953B1F
:1039900053D02DBDDFA34E3EB517513DAF42CABD3A
:1039A00093A6413DA0329EBD04C96B3EB91738BEF7
:1039B000A2F0593D5C93EEBD20D4A5BE139D9DBEE3
:1039C000B5508ABE8CD8A73CE8BC463D810AC7BD2D
:1039D000FF41243D78F093BD1004C83B0B7F063CAB
:1039E000FFB0153E7D04FEBBBF801EBE9C8C2ABE70
:1039F000829157BE276873BE0E8800BEBF0F87BD79
:103A0000A6D079BDA986FDBBB801BF3E64B2B83C63
:103A1000F2233E3DC0EA783EC4B46F3D9B370E3D75
:103A2000CADFBD3CAD1432BED506DFBEBF60A7BE47
:103A3000CEE388BE20F000BE336D9FBD8AE8173DFF
:103A40005BEB8B3C1805E1BDF4A78DBB211D1EBDB2
:103A5000670D863E6FD6C03DECF6D93CB4913BBEB7
:103A6000573DC0BD83352EBE2E0233BE3E0425BE5B
:103A7000BA102B3D053667BB0325153ECAFC9B3E9D
:103A8000AB09C23DD2709A3E5E65ADBDC66E9F3C2D
:103A9000202689BE28D398BEB4E607BD8603C9BEDA
:103AA000BAF47FBEA69843BEEFCA0EBEF10E10BE9A
:103AB000CC7906BEADF9F13CF33A62BBE3507F3DF1
:103AC00024B7A63DFC36A4BDF372F8BDED0C533D02
:103AD000A111EC3DEB8FB03C3E79F8BD096F0FBEF4
:103AE00033A78BBDEE7BD43DBF2B9A3E2313003E04
:103AF0006726B8BD849C37BECDCA86BE7C46AABEAA
:103B0000B93486BE2A745EBEA92FB3BEE2E72FBECB
:103B1000AB7512BE085605BE847E163E42CC053EED
:103B2000C024B5BDF9F4D83B2D6042BE32C948BDB2
:103B30005E8564BE594F3DBE369515BE01F9B2BDD6
:103B400090DA443C723572BE596A1DBE0F8143BE85
:103B5000A6EF35BEB0E640BDB54E0C3EF5B99A3D78
:103B6000CEC349BE088EB3BEF8FC60BE2DEC89BE44
:103B7000710554BE1D7188BD6155BD3C74B2143EC3
:103B80000B43143EB456043E7841843D1A89503D9F
:103B90000BD492BEAD50643D75AF133C247B84BD05
:103BA000F0C12B3D1AC30CBEC40746BE5A2BDA3CEB
:103BB000C4D03ABE3EAF98BE0E859FBE3DF0B1BDAB
:103BC000ED7DCA3DCA179C3E6B48C43E9980DF3CE0
:103BD000607223BE126C3C3E71AEE13DA450963C37
:103BE000C1E03A3E59A36EBE9373E23D0C01403DE5
:103BF0002C0EE73CA5A4873C44C0C1BD9FE579BD20
:103C000075E7C9BD66A3F3BDD8BCCABD6ADD86BD74
:103C10009A93B7BDA1A13FBE1F1389BD145A06BE1A
:103C2000DCB950BEBC7A953D08E53D3E2D5FD73DE1
:103C30009467B63EF7CB573E0F7FE53E22C4753EF4
:103C400066BC8D3E9E270E3EAA9D993EDA1EBDBDE6
:103C5000A9DDCFBD36B160BE0AD969BE567FA43D8D
:103C6000DF6B883CBB426FBE0761CEBDB79609BD16
:103C70009773293D02F3103C0134CABC28BB993D1F
:103C800022A882BE2B8746BEC47AE3BDBF6077BD43
:103C90009FC768BDBA69133E785F15BE04AF16BEF4
:103CA0007A6F4C3E6D6F073F46B29F3EDC2D393E2A
:103CB0006C76A43E5E6608BE89EAED3D9127893D9B
:103CC000D49A76BE33C4C9BE8595B2BEFFEB5C3CC8
:103CD000770FD0BD25919DBDE50C45BC3D5FF33D03
:103CE000A470BDBDA71F54BC66DCD4BD54905FBD9D
:103CF00035D0BC3D9C3538BD7CD291BE0C7891BE90
:103D00009D2CB5BB17829C3D778192BD00E3193D88
:103D1000E010BA3E2FFB753D0D71AC3CE4D78F3DF2
:103D2000566434BDE02CE5BD93C53DBDE81424BE0A
:103D3000AA6282BEF0FA0C3D3B6E98BDC6C2003E40
:103D400058E7D83DA6998EBD0FB5ED3C90A2EEBDCB
:103D5000AC378A3D7FA533BE821F353E6C97D6BDFA
:103D6000C85B8EBD2A8FEEBD664A3BBE3486E1BE7F
:103D7000581F6FBEE9EF253A1B4902BA787C7B3E9B
:103D8000E069D23E0228263EE603223E3447D6BDF5
:103D9000BDE4FF3D684148BE5B979ABDB64C86BD09
:103DA0007009603ECE39083EE0D5123E4511123E04
:103DB000AC1EB03DB7081CBE3B3913BEABD0003DB6
:103DC000A1F4453D693A4B3E6078C5BD0551D73DEC
:103DD0000F9847BD8EAC7C3D005431BE541BD4BE01
:103DE000C6A300BFE0140EBF881077BEDFA9303E27
:103DF0007BF4063EC8CE5BBD857799BD8C6655BE0B
:103E0000320345BE3B528DBE4A07AB3D32C9383EF8
:103E1000E19A3B3DA7E7DD3CA1869F3E86CABF3CB9
:103E2000D2A682BE8C643FBEA81ADDBDD0D2953C1E
:103E30006B60AB3C0C23BDBC2AC4633D3509DEBAC4
:103E4000BDABDE3D5358393E4E6145BE2191C6BEE5
:103E5000116F29BF537686BF027E3DBF180852BF3F
:103E600017BB35BF79E807BFABECBBBE650088BEAA
:103E700061E134BE994A7FBD452C823D7BBC103E3A
:103E80004293843DD8D4B93E79E98E3E6021F3BC9B
:103E9000813F6CBEE140A8BDD5059CBD008EBD3DF7
:103EA000472149BCA9A363BC99D9073E12A5853E09
:103EB0009C15F13D55C1A83CF29716BDB91B94BEA7
:103EC0001BD49EBE31EE0EBF27F50DBFA4FC14BF60
:103ED000C6A241BF80D8F2BE5930A1BE38320F3BD6
:103EE00057086B3D3A3F053D39626DBD77BB6E3E6D
:103EF00082C8A23D3527873E7DB3CD3C695480BE44
:103F0000944D79BE810801BED271753E0F7B61BDB3
:103F1000E69480BA8108B1BDA8354D3D34BF923ECC
:103F200003CCFC3D268F673D0DE4B93D212295BDB4
:103F300094F6A63DA0FBB23DA01A6FBDF33A22BD98
:103F4000F50EB7BC00AB23BDFC3604BD0C02AB3C88
:103F5000FAEE263E3717BF3D1DAC3F3EE2AF49BDEE
:103F60001441BCBD0BB8C73D2F1771BC99D9673C34
:103F70005EBEB5BE3D1059BD82E3B23CA1112CBD61
:103F8000EED0703DAE8313BEC9C9A4BD643D153EDD
:103F9000583934BC0473B4BDDF6CB33DDB69EB3C12
:103FA0006555043E2FDD643EFDA1993E0932AA3ECF
:103FB000F91094BDD68C0C3DD1AD173DC6FC2CBE7E
:103FC0007B2F1E3EA872BA3D213B3F3ECD1EE83DF1
:103FD000566474BD7923733DBDE3943C16BE86BE22
:103FE0001FF4ECBD95D6DF3DCBD7E5BCCF2D343DDE
:103FF000747E0ABC2C11E83D1EE29F3C397F033ED3
:10400000EE93733E97E4703E7079AC3CC8282F3E27
:104010002EC9E13DDA5974BDEC4B363DB41FA93DC4
:10402000E0BB2D3E8E7446BE556AF6B97AC2023E9A
:10403000E527553DDE3914BDA375B43D7907783DBC
:104040005299E23CD00EB8BC724F17BEC8D091BE98
:10405000A3B08BBD6809323D27BEDABCCC44B13D6C
:104060002AACD43C36AC693DBABE4FBD5FCFD73D1C
:1040700072365D3D289D283E54E11F3EF44E45BDFD
:10408000A6489E3DA967013DF569953C367744BE3B
:1040900008E723BE745D783C23116ABEAA0EB9BC42
:1040A000B60EAEBD83C2803DD21C99BD317CC4BC6E
:1040B00030487A3B71ADD6BD9FAEEE3BA0A646BE62
:1040C000A260C63B0264E83D76A8E6BD2EC515BEDB
:1040D000BA1417BD9752973DD7860A3DA9A3A33DB1
:1040E0005AB8C43E71569C3EF549EEBAB1BFCC3DBC
:1040F0004302C63CDDB1783E99F2013EC8EF8D3DEA
:104100006407253E5D6AC4BDD71834BD9F1EDBBC65
:10411000CEFD95BD0D52D03DC1AB653C116ED2BDFB
:10412000850838BE111D72BE6A33EEBD5DFD983D37
:1041300004206E3C483316BD0663C43C3CF7BE3DCC
:104140007FA1E73D0D8DA7BD9A5DF7BD5359543E44
:104150004606493E211F343E7522A13D2522FC3CE6
:1041600065AB2B3EE38DAC3DC2BEAD3E2768B3BD13
:104170008B5157BD4C1CF9BC8FE4F2BC7369FCBC7D
:10418000D31772BEAD889A3C068155BE287C46BEC8
:104190002730FDBDE2EA003DDC2A08BE3D2B29BDEB
:1041A00094F8BCBD2C2C783D3B199CBC2575323E47
:1041B000E561813D77DB85BB8FC41B3E7AA6073E58
:1041C00010CC113EE8A2E13D2B6E1CBD4985313E6D
:1041D0006C24393EC8D3123E06BD473EBFB8D43D1D
:1041E000297AC83EB3CE783E05176BBDFA09C7BD24
:1041F000378BF7BDC71389BEAA8251BDDE558FBD6F
:10420000C57130BE1003DD3CA9893E3DE5257FBD6B
:10421000A851083DAE29903D1D90843C4F24B8BD67
:10422000543B43BD12BE973D9678C0BCBD01E63DF0
:10423000FF3E133E0D8A263D3F0059BE799109BDD0
:10424000064B953D321D3A3D9ACF493E28F04E3DF2
:104250008062E43D80B7403D97C990BDAC001F3DF2
:10426000C1C4BF3D22507D3D7F50B73D7369FCBB4B
:104270008028983CF62626BEC4B384BD643C0A3D23
:10428000970117BE5226B53C76C58C3DAD13973CC1
:1042900090879EBD933AC1BD4D3232BD08E9C93DFC
:1042A00011C865BDBDC5533E3881493E785EEA3DC3
:1042B000A6F080BD901386BDAA0CE33D47CC6C3DB3
:1042C0003E3CAB3D605628BD1EC4CE3CBB29253EBE
:1042D0005EDAB0BD3D9A6A3C2D0B86BD3D44C33DC0
:1042E000A35C9A3C8CBCCC3D2448253C548F943D27
:1042F00009DE10BD07998CBEA779A73DBB26A43C5B
:10430000F67C5DBEBD512B3DC992B93DBD8E583E78
:1043100062F6B2BD289E933D0EF87C3AC97719BE6D
:10432000A792013DBFD5BABC17F0523ED940BA3C66
:10433000A4C5D93D978F04BE2252B33DC5909C3B86
:10434000B22FF93D9F71C1BD21210ABDAD6893BD5A
:10435000F6460D3EC2167B3D2E2014BE40F715BE1C
:10436000F7CC12BAC0CF78BD7BDCF7BDED9E2CBE7A
:104370003083713DA08C71BC882CF23D42D14C3E03
:1043800009C556BDD2E54D3DA394F0BD81EA1F3E5F
:10439000AE7FF73DD8F4A0BCBBF003BD2F87BD3D79
:1043A00023DA4EBD5988AEBDF8E3F63C92CCEABCA8
:1043B000AB96F4BD0CE8A5BD2AAB49BE38C00C3D98
:1043C000E064BBBD185D5EBD3F1A5E3E87A5A1BD22
:1043D0009599D2BDC99033BEAF08FEBDA393E5BD8C
:1043E00098F60D3D3204A0BD2A38BC3DF568EABD03
:1043F000F581A43D965B5ABD2C7ED3BCA707053D35
:10440000C89A313E57D0443EFD4DC8BDE0DA893DE3
:104410008847623C5E688EBD6B0F9BBD6F824FBE4E
:10442000CD3B9EBE9A07B0BBAA29093D827025BE2E
:10443000FE0EE53D9221A7BDE5D579BD8E06303E45
:104440003FADE2BDBD008B3E0DC347BD460AE53C16
:1044500089D0C8BD7D05A9BD86701CBE4C8D40BEEF
:1044600053CA2B3D598638BD670D1EBDA73E903DF2
:10447000BB7B803BBDFBE3BCAD695EBCA130283D8E
:10448000D927D03EB7D2AB3E5B41F33DF7226A3E1F
:104490008EE7933DC74A0C3E446F01BE1E32E5BC19
:1044A000EF8DC13D76E252BE36CA7ABD2E8ECABCB1
:1044B00079AF0ABE9813743D37E0F3BC9C1812BE66
:1044C00065A5A93DFD12F1BCDE5850BE72FB65BC6E
:1044D000D333FDBD844B07BD21AFA73DFD130C3E7B
:1044E0008467323EE200AA3ED234E83EDB15E23E6B
:1044F00076A8563EB933B33E3A1E333EEDD8A03EC1
:1045000045F4ABBD2E02733EA14A0D3EE9456D3D1B
:10451000AE8303BD5665BF3D87FE69BE795C84BE30
:1045200098158A3B10E666BE403308BD72A85F3C12
:1045300031B5253DF6D294BDC9CB1ABDA9F8BF3C13
:104540007155593D3FC99D3E3067863EBCC9DF3E2F
:10455000E8F5473E8E3B653E37E3243E29CED13E0B
:10456000018A513EDA3A883E7F6C023E69C8903E2D
:104570003EE72E3E8639813DE02E9B3D18212C3EA4
:104580008F8C55BD425CF93D25E982BE2428BEBE14
:10459000367348BDE5EEF33C80F10C3D850A4EBD17
:1045A000669FE7BD7313B5BDB402C33CACC5A7B7E6
:1045B000D3F5843E9D4CE43E9EEC1E3FE76D943E59
:1045C000213B8F3E76FBAC3E59DDA23ED541AE3E4F
:1045D000821B293EC972023F3FC9FD3D0DE1483EA5
:1045E00063F2AE3E875326BD5EBAA93E48A46DBDB8
:1045F000F10E70BB6C5D2A3DFB1FA0BD1094A3BEE5
:10460000051A8CBEB875B7BDFAECA03DBCE88BBDF1
:10461000561083BD8E95183DDE7300BE13F156BC57
:10462000BB47663EA148273E164DB73EBD3786BA0A
:10463000CA36203E344C2D3E54000C3E64909B3EC6
:10464000A321CB3E88309E3EDBA26C3E11FD1A3E7C
:10465000A54FAB3B162F663E7CB90F3E6D567D3D98
:104660002829103E3F19633CA88DAABD12FB34BE19
:10467000A4A8C3BECD029DBEC80848BE56815A3DFF
:10468000C2F6933CB6F37DBBE14133BC145F3D3EC3
:104690008B6BBC3E8D46D63EE621733E0534B93E5B
:1046A000BA2D51BD5298173E3C87023EAAF1D23D29
:1046B000F661953EDD9AF43CE0A0FD3EFA970C3F92
:1046C000DD7A0D3E3BE03A3C836C993D1F49193E33
:1046D000D941E53D643A743DBCE6553D7F889DBEB9
:1046E00008E620BF8D463EBE18D281BDDDB32EBD8B
:1046F0003EEC853BCB49C8BD72DFAA3D32AD4D3E95
:10470000AF419F3E98696B3EFDBF7A3E9E279EBD9E
:104710003E3D36BC051A1CBEAC56A6BC0BB621BE2F
:10472000290432BD68973F3E7A8D213F6D6F473F28
:1047300005A8093FA778083F1780E63ECB843F3E97
:104740009DF2683E0934583D3946723D890CAB3CB8
:10475000B092BFBE32AE98BEF7CD7DBDAC8DB13C40
:104760005D8C01BCCEE2A53DCD901A3E3832DF3ED5
:10477000E36FBB3D90F6BFBCEA3D55BD8B37AABE8B
:10478000DDB1D0BEB11401BF0F0FE1BE289DD0BE78
:1047900011A608BFF1457BBDF86D283E6E15BC3EE5
:1047A0005C57343F043A173FBBD5EB3E9F1EC33ED8
:1047B000ED2DDD3E8E943D3EA511133EBC23A3BDE1
:1047C0002D2696BE41B93DBEA91350BC986C3CBD88
:1047D000138295BD7AE324BB163031BE66A2383E03
:1047E0005306EE3D35091EBED503D6BEE8131DBFE8
:1047F0006A171FBF9E61D2BE1BA1F7BE352A80BEBD
:10480000B66801BF23F6F1BEF8DE0BBFECF7A4BE1D
:10481000F967E6BD5CC8C33DFC6F653E7383213E0E
:10482000C0EDA13E6E16D73E240A8D3E8445A53DBF
:10483000F12FAABE36CD83BEBADC10BECD759A3C30
:1048400087C091BDE910783DD481AC3CC3EF863D73
:104850003C33E13D95D74ABE7C42F6BE26FFB3BE4F
:10486000795828BEA0870ABEA1BE15BE0AA379BE8C
:10487000CB82A1BED6A9F2BEAD30CDBEA13000BF65
:10488000076083BD8BA889BC3293A8BCB796C9BA10
:104890001092C53D153C053C2F4F8F3E3D61093EB2
:1048A000C5758C3CEFC9033E10EB4D3D26559B3D35
:1048B000B37A073C0C021B3E13D22A3E0AA3D93D11
:1048C000F1A1C43C2F1626BE207AE2BE43FF84BE6F
:1048D00058FF97BE16FC96BDC31039BD53792BBE49
:1048E0006B0BAFBE757371BE508FC5BE2270B4BE68
:1048F000CA51803B6B62013DD449B6BDDBFAC9BDEC
:10490000E7AA993D14CB0DBEE3FB62BCD32D3BBDA2
:10491000BD8D3D3EED0B383E13621EBEDBFC7FBD00
:1049200039D0833DAA804B3E0C21573EB1FDA43DBA
:104930009EB3C53DD5AFF43CD49A86BD4D65893E46
:10494000C8D392BD512F28BEDEC6A6BE2978DABED6
:10495000BA2DA9BE444D74BD7E1899BEDA56B3BEB9
:10496000252006BEDBA4A2BCF949853EA890ABBCBD
:10497000C7292A3E1ADC06BE970167BE89B297BDD9
:104980009E9A8BBD8B54283E842C0B3D1FBAA03DB4
:10499000FF96803D17D738BD6D3997BD7FBF583D15
:1049A0004CC13A3E8F183D3E7766823EAED8BF3D41
:1049B00038A491BDF54B54BE7FF548BE8CF690BE31
:1049C00071E792BEAFEB87BE2A1BEEBE7AFF5FBED9
:1049D000ACFE88BD4A0DED3D0A9F8DBDE02CA53D86
:1049E0002F85373EEE24323E65178CBC39294C3C6E
:1049F000B91BC4BCAA63553D8177323E8929113B5E
:104A00000B61D5BD62F4BCBDB77DCF3D01FC53BD8C
:104A10002AE35F3EA9FA953E15E5123E6269A03D84
:104A20001D8F49BEDC9E50BED3C0EFBD7B49E3BDA8
:104A3000EA098BBD24D2D6BD2C7FCEBEC24B90BE20
:104A4000028043BE38F7373E9EB2DA3D5C21EC3D32
:104A500089B74E3C8883443D2A54B73DE92B88BD35
:104A60009D2E0BBC51F56B3DA03800BD6B61D63D52
:104A7000035FD1BD994BAABB0F63523CB9A5D53C8E
:104A800035EBD43E0036203ECD3D64BD3D9E06BE96
:104A9000414595BDDBA678BE1D3D96BE3C2FBDBEF3
:104AA000FF212DBEEB02C6BEF1F6F0BE67D286BE78
:104AB00064204F3DEE09D23DFF5BC93CA98853BC41
:104AC000C98F68BE8B6E7D3D38DC473DFBCBEEBDAC
:104AD000B7D095BD75CC293EFB5756BDD0B65ABD53
:104AE0000FB8AE3BD498B0BD3410CB3CA2B8133E47
:104AF000B14EB53DD124F13DA4AA89BE5261CCBDD1
:104B00007F6806BEFB76F2BDC82714BE43E474BEC0
:104B1000E5D042BEE606B3BECB66BEBE04AF963C51
:104B2000552E543E0BB8173E50DF723E06BB013E79
:104B30006DE43ABC1A518A3EF29A673E456543BD20
:104B40007E54C3BC92E9503DC93EA83D85D257BDB5
:104B500068CC843D8AE5B6BDDAC63F3E520E263E9D
:104B6000D0465E3ED9D04DBC13BB16BE7C2C7D3DDD
:104B7000B81D6ABECEA72EBE3CFABFBD037D02BEE5
:104B8000B2D43A3D5E4B08BDB24AE93C4C540F3EAC
:104B900004AE2BBDC6A8833E26C70D3E365CE43D61
:104BA00028BA0E3E8F19183E2D254BBDEA208FBD29
:104BB000E068473D56D7513E6D38AC3DE562CCBD0F
:104BC000F1B9533D6FD40ABE28F04EBD6C3FF93D9C
:104BD000D7674E3E774C3D3ED124313D58CA223EE8
:104BE000B63196BDD87D873D90C10A3D88BB3ABDA0
:104BF000569A94BC95EE7E3E8E90013DA453D73DCF
:104C0000DC9BFF3DAA0C233D130B2C3EE0F5F93D48
:104C10008446203EA8E41CBDB612FABDBE2D18BEC7
:104C200044BF963D9EB18F3D2921183D1BBA193EC8
:104C30008E7531BEB27F1EBC2367013EC636593E1B
:104C4000EBFCBB3D9DF47E3D8FC3403E0DE419BDA2
:104C5000679C86BB62126E3D89F08FBD9F1C053D2F
:104C6000E867EA3C1D7223BE08763CBDD8D73ABB44
:104C7000A75835BD22FA35BCDD28B23DB3B5DE3DBF
:104C8000C7D673BDE388353BE1B6B6BA556A96BD63
:104C9000F3AEFA3C15551F3EE928C73D8DD2A5BCA1
:104CA0005CAD533EE5801D3EF6462D3D42B280BDD3
:104CB000CA31093E9FCBF43DB6F6BE3D9545C13D98
:104CC000DA72AE3DF0A6DB3C5DDF87BC6EA597BD1A
:104CD0003A3C143EE3A947BD226E8EBD774E33B9F0
:104CE0000F7B21BD1A15F8BD1DE3CABD139CFA390F
:104CF00012695B3D952C673D7078C13C386704BEF6
:104D00002923CEBD50C6F83A4B581BBE72A5DEBD56
:104D10003CDD29BE19E8DABCAB4243BD1630C13DCB
:104D200000AAB8BCEC4F623C99B9403E59C4883ED9
:104D3000F3768CBE6EA6A2BDA2293BBDF969DC3C10
:104D4000053667BEE107E73CFAD140BE34F40FBE3A
:104D5000799169BE2A8DD8BD1BA0D4BD92774EBD76
:104D6000997E49BD85B64C3E58E3ACBD9E79913ED7
:104D70009CDC2FBDFF5D4FBE2349103D2B87563D68
:104D8000CDCC8C3DA8FF6CBD965B1A3D8EC9C23D53
:104D90004568243E5A9D2C3E48A7863E0FB4E23D0E
:104DA00008CCC33D280DB5BDD28F063C20600D3E1A
:104DB000EA0735BDAE0D653EA6B6543ECEA70E3C05
:104DC00033F9A6BDBABEEF3DE00E64BE705C8EBE88
:104DD00081CF8FBC328E913CF7E88D3CBC3C9DBCB2
:104DE00004E3E0BBF4535C3D0C9113BD90849D3D06
:104DF0003AE7A73D8E7591BD2C67AF3D1A50AF3D88
:104E0000DDD1FF3B8ECC233EA81B783E3448993E33
:104E1000713A013F0FBA8C3EA7768E3EEE5CD03ED3
:104E20005F5F9B3E71CB473EC763863DD3838A3E1F
:104E3000DA8E093ECBBB2A3E6895993CA3AE953DE0
:104E4000A65E473E793A173EF207E33D9D4BB1BD62
:104E5000F6CF13BE42951A3C8E584B3D61A4973D48
:104E6000EB52033E7C2726BD87C3D23C904FC83C03
:104E7000C2A4B8BD081CC9BD2A52613D83682D3E3D
:104E8000D0259C3C1B48673E6FA0103ECCB2A73C8F
:104E90006FB7A4BC2C9EBA3DB492263E97AA143E8E
:104EA00025CD1F3E6A13573E923D023DFBB2743D35
:104EB0000F0E963D9F3C8C3D395FCC3D240DEE3D61
:104EC000056A21BE6FB7243D4EECA13D6556EF3B10
:104ED000D201C9BC5378D03C9D81113E8D7C1EBD52
:104EE0002FA443BC42ED973DAA48A5BDA648BE3BB2
:104EF000EFFF633DD2FC313DE15DAE3D30BD7D3C19
:104F0000D6A817BE7712613E459E84BD13D3A53D3A
:104F1000747E0A3D00FFB43D03080FBE630C4C3E97
:104F2000B9C627BDCBA2B03C18B23ABC817A03BE49
:104F3000255D233E4FC919BE6878733DE70001BE69
:104F4000A41CCC3CF3938A3DCC453C3D1A17EEBDE6
:104F50008A7770BE70B6793D336A3EBC3D2C14BE74
:104F6000B6BD5D3E5F0A4FBD7C64D3BDE1B395BD68
:104F70008ACDC7BC1DE38ABCA26131BD34BB6E3C87
:104F80005CCC4F3DF016E8BD19C95EBD0A2E96BD3A
:104F90002BF7023DCB80B33CA3CE5C3E2D08A5BDD4
:104FA000D61ACABD8A55033BB4AA85BD83F8003D15
:104FB000C938463D6492913D90F5D4BB5CAC283E27
:104FC00053035D3E2992AF3B6D8ED33D840CE43C90
:104FD000726D683D60AFB0BCCA154E3E0306A9BDF8
:104FE0007E36723D0F60413E9756C33DD4B9623D57
:104FF000AEF47A3EB822B13D51DE073D00C4FDBD9E
:10500000015005BD6B28B53C3B738FBC40683DBE6D
:10501000BBB4A13D43FED93DDB89F2BD5B99103E97
:10502000F4FE9F3DB378313AD1E9F93D2B4C1FBDD9
:10503000ED9DD13C863B17BD28F139BCA818473EF1
:105040000A2D6B3CA33ABD3D4F964A3EDD5F7D3E47
:10505000F48A573E1459AB3EFCAA3C3E3466AA3E45
:105060000B08AD3EE4BCFF3C6342CC3D5FEF0E3E1F
:10507000FD12613E098A1F3E04E2953D2F88583E8D
:105080008E90913E8867093D9CFBABBC5A7EE0BC8C
:105090005CAFA93D460A65BDAA4805BCE3A51B3E19
:1050A0006746BF3C5916CC3CB8EA3A3D6BF03E3DF2
:1050B00038F3CB3DF4DE903E2442133E4E0A333E9D
:1050C000B22E5E3E512FB03E96250A3ECFDA6D3E9F
:1050D00033531A3D7C63183EC4CD493E774E333C72
:1050E000DEC6363E6346F83C13D5BB3D685B8D3D5E
:1050F000C2BF883D1023843C5D36FABD5E2D973DCE
:10510000BAD8B43C6090F4BDE080163C84114BBE2C
:105110008962F23BC85FDABDB3EE5F3DEC890EBE3B
:10512000145FED3AD9EA923D1806AC3DE1B761BE95
:105130000B600A3DD63615BED7D950BDE75191BD9B
:1051400093021B3ECEE01F3ED8640D3EA9682CBCE6
:1051500091F32E3E8BFA143E30B951BE352AF0BD84
:1051600010062EBEF1817DBEFD2E2CBD53EA923C71
:10517000629E55BDAB3E17BDC7689DBD7EFE3B3DE3
:10518000ABD0E03D452B47BE286116BEC3499ABC53
:105190002909093C4AB319BEA54FABBD861E313D56
:1051A00012DB1D3DAFEAB43E1EFEBA3D6BD81FBEFA
:1051B000ED7D2ABE18B0243D0CAC13BE5D4FF4BC8F
:1051C0008A5583BA4D9EB2BB0DC25CBD09899CBE97
:1051D00012F9AEBDF8A53EBECD3A033E86553CBCA5
:1051E0009C191D3ECBF7AC3D3597DB3D1AA2CABDDD
:1051F00053754FBD69ABA2BE85405EBE57B3AEBD11
:10520000F5D690BE8AE7EC3CD943FB3D6613403EA1
:10521000ECA47E3D25E6993D74D4113E87332F3EA4
:10522000DB30CA3D7460593EEC1827BEC32A1EBD50
:105230000D3324BEAEBACE3DDB349EBE0A31A7BECE
:105240004E2884BEB08D38BD0189863DD480E13DB5
:10525000D02B9E3DA94E47BEDDD3B53D136058BD52
:10526000B70AE2BCF04E86BECF3045BE05A4FDBCF9
:1052700038F7D7BC6B8218BE7BD720BCFB21B6BCED
:10528000D882DE3D52B9A9BDE34F443E3E76BF3ED3
:10529000BB99513E170FCFBD1C291B3DE69315BD91
:1052A000A6D33ABC7384CCBD424274BE11C4A1BE25
:1052B00077BA53BEDA01C7BE8DB8003DA54CAABD72
:1052C000E3FEA33DC361093EB5C1093D80BA81BD7E
:1052D000C7DA8F3EE0D7483DD11F5ABDC25027BE26
:1052E000AF7D81BC691B7FBE551605BCE84DC53D31
:1052F0005DFDB83D58208A3EF0C3B13EADC3713E5E
:10530000DB1966BDF54B443D375286BEE17B2FBEAF
:105310008F1988BDCF6A11BEA7241BBE3275A7BEE8
:105320003B00FABE8314BCBEBF4602BE49102E3CF1
:1053300073BBF73DD3D949BA2F15BB3D1425A13C0A
:1053400089EC833B8AE8473E5530AABD27F9D13D19
:105350000877E73CC4240CBE67D6D23CF645C23C75
:10536000A852F33D1C97013E2097F03E38F4763E5C
:10537000BE5040BD5D6B8FBD50560CBD35427FBDEC
:10538000AE9C9DBD30A057BED8BA44BE6C92BFBE85
:10539000C71361BE8AE611BEE59A82BEA8A87ABC90
:1053A000A661F8BB0FD33EBD2B6A103E033E1FBE65
:1053B000D50667BDE7C5A93D60B09B3DB0C8973E27
:1053C0006422053EEDD3713D0326003EB8E824BDBE
:1053D00065DFB5BD632867BD9C86283E10915ABE27
:1053E000B24CFFBDE0A03DBE172AFFBDC0B07CBEE1
:1053F0005D7076BE3D642ABE7618D3BDD4442FBE00
:10540000E2ABC5BEC15378BE965E1BBE81D1653C82
:10541000B64D913DB5A5CEBDC365D53D5187B53DD2
:10542000CAFA8D3E5A9E9F3E05DCF33E71C6C03ED1
:10543000DE3D503EAC005F3C763238BDA9D943BD5D
:10544000EA918EBEB935E9BD40DD003E55FA49BE50
:10545000D2E199BEDB6AF6BD61A92E3E97CA5BBC5C
:10546000C5725B3E3B1D483D9DD4373E064CE0BBBC
:10547000F38DC8BD8DB6EABDFD6ACEBD25CA5E3CC2
:10548000AD31683D9F59023E2F8A0EBE8274913D18
:10549000C974A03E8F6D913E14CB5D3E8D5F083E7A
:1054A000AFEAAC3CE59DC3BCAC39C0BD7BF684BE65
:1054B000A03711BF3C139ABE213F5B3D58569A3D21
:1054C00061FABEBD8786453D4EF07D3E5BD2413ED2
:1054D0003CBCA73DF5BBA03E56D29A3EB264963E78
:1054E000075E2D3E0395B13D438D82BD0072A23D06
:1054F0003DD777BC88669E3D302A29BD05DE49BC74
:105500004E25533E5DFB323EE57EC7BDB114493D9D
:105510001F313A3DAEF2A4BDDB143FBE8BFAC4BED0
:105520007B68DFBEBFF04A3DD192BF3EB398283EB4
:1055300032AB173EA070363D8C12743C60C72F3ED4
:1055400004383D3C6ADD063D98DF593E1840983DE1
:105550008C15B53C3E59D1BDAC8E9C3C4E9D47BD93
:105560007F4FAC3DB79BA03DFF7704BD5D8B563EA2
:10557000A834E23CDA8CBBBEC03D0FBEFF76A9BEAC
:10558000AAF2FDBDE8167ABE6154AABECE3998BE15
:10559000E7C88ABE6893233E321DB23EA776863D99
:1055A00011FE153E2BBFECBDF45116BE511523BEA6
:1055B00079948ABDF5F4D13D8DCF24BD363DA83D0B
:1055C000FD4E933C5793273BA8AA50BC80B82BBCF8
:1055D000E96168BD0AB922BE46B15C3EA12D673CB7
:1055E000FA416DBE71AAC5BED2A8E0BD3EB023BED1
:1055F00039D394BE0490FABEA65F9ABE56B8E5BCF5
:105600007F311B3D567D963E3F00813E7E37FD3DFE
:10561000D5CA44BDA5663F3E399BAE3DE38B26BE51
:1056200022FC3BBE532073BD354580BD9DD98EBD48
:10563000ED82413D0E4A18BCDE74CB3C1558E03D6E
:10564000F854CEBC8315A7BCAB5FA9BD5E9CB83D2A
:105650001AFD28BE2EC999BEE1EE6CBE5ED83ABED8
:10566000A5BC9EBE60B0DBBEC95AE33D75E6EE3E0A
:10567000A854893B847E863D89D1133ED28E6BBE71
:10568000F7C9113E4355CCBC383134BEF758B2BED1
:1056900008778FBE12A5A5BE6361E8BD4E2583BD08
:1056A000B1860BBC7042893E381393BDC6FD87BDE1
:1056B000E63FA43D5D52753DD8B608BE821C94BD40
:1056C000FD6B19BE6FD7A3BED237B9BE6EBF3CBE4D
:1056D000EDD8C0BEE02E3BBD4564803E88D6CA3EB4
:1056E000662D853E6974973EC2F8A93D5AB7813D43
:1056F000F06EA5BD5C1F9EBE6E6E2CBEAF24B9BD04
:10570000F032C3BB2E3DFABDD6C959BECC5D8BBEAF
:105710003FC812BEC573463E419B8C3E4640153E77
:10572000C2889D3DBDFF8FBCC9AA08BE00578ABE76
:10573000990EADBE56BA13BF730ED6BEE124DDBEC0
:1057400009FFC2BDABCE5A3EBE12883E77F86B3E13
:10575000CF496F3C8A04F33D378BB73EC1CA013E47
:1057600082E72EBEBB25793DB00006BEFCFE3DBEE5
:10577000789B37BE8E9332BEDE200ABE234A9BBE84
:10578000C1FD40BDF4F9E83DC57336BB978E39BE07
:1057900087333F3D4D4CD7BD823C7BBD04C62ABEFE
:1057A00061E3DABE8B6BF4BE4C5017BF57D16FBEAE
:1057B0004F76733D53099F3E01F6213E3F1C8C3EC0
:1057C00000CA6F3EEED0903E53E7F13DA4E26F3E3B
:1057D0005839943DCE8B133DDC9DB53C4851A73DD7
:1057E000E2AFC9BB7A726DBEAA0CE3BB2A03C73D08
:1057F000B002FC3C5F5E003D3A21943D6D37413C78
:105800002AE6A03CF4FDF43D5A462ABEC8CFAEBEFF
:105810005F96D6BE16DBDCBE00E5E7BEA27AEBBD26
:1058200009C46BBC18B18F3D7289D33E06BD673E7B
:10583000DA8E193EA759003E963FDFBCDE54A43CE9
:10584000C6FDA73D6078A5BD3BC2E93CC30D383E0F
:10585000849AE1BDF78F053BF5F6673D28D4933D6B
:105860002140AE3E2B5166BE69C5B7BD9BFE6CBEE6
:1058700085B2F03DAE4676BDC7B9EDBD6CEBE7BD78
:10588000CFF84EBE79EA91BCB58ABEBDDD5FBD3DA5
:105890005E2C9CBE3E23913D5E13D23B4A60733D1D
:1058A000357CCBBD9C88FE3C67623A3B191D903C21
:1058B000B32957BDF2B0B0BD207A223E3BC229BD0C
:1058C00030D9B83D84D6C3BC6A18BEBC3A08BABC4D
:1058D000F33A323E8847423E08AC9CBC72C525BEB6
:1058E0000D70C13DCB817E3E3EE924BE99B9C03DDD
:1058F000663307BDA870A43D2332ACBCE28F023EE4
:10590000CD5CE03B08E608BEED0F14BE94DA7BBE2A
:10591000469436BE63D37ABE9DBD93BDE17C3ABE4C
:10592000A0C4C7BDAA2C0ABD691B4FBE51F666BEF6
:105930004F3B7CBC7F4D963D1C99773EFD499C3D7D
:10594000D6E2033E6ADF5C3CEC34D2BD618E1E3E83
:10595000EB0133BDD921DEBD1AA5CB3C18B18FBDFB
:1059600097361CBD1FBECC3D6B2B76BDDF4E223D56
:10597000A67B1DBCAB972FBE0DC53DBE8108F1BDFA
:10598000732DDABCCBF3E03CC215D0BC15ACF13CB6
:10599000D2E1A1BC06808A3D15E291BAA46DBC3D5E
:1059A00072DD443E562B533E410D3F3EB589933C3C
:1059B00023C0A9BD7E73FFBC18D221BD2F8ABEBDF6
:1059C0004BB0903E4E27593C3C33C13AA723003D93
:1059D000A33F34BDD8D61FBEC97177BE849C77BEA5
:1059E000DB6F6DBDA1F5D0BD3D454EBE82722BBEB5
:1059F0008FC6A13C49D7CCBCCC29A1BD130A913C90
:105A0000DA1CC7BD3EE8193DE36D35BE048DD93DB6
:105A10001C7A8B3E7B15193E6633E7BDF0DBB03D4B
:105A200006F703BD484E663DD3DE303EE5296B3DAB
:105A3000C86120BE1D56B8BCA8E11B3EA3CD313DB8
:105A4000B9FE0DBE7D91D03DC05DB63D465D2B3D9E
:105A50007C2C7D3EDFFD713CB119C03D48A47D3EEC
:105A600016A1083E3B37ADBDC0078F3D2B4B443ED2
:105A70007E54233E1A86CF3D2D216F3E60E7A63E21
:105A80006EBF4C3EBB44053E500045BD8107A63D60
:105A90000BD1A1BD564A4FBD3A9120BE62F888BCD9
:105AA0009757CEBD3C30C0BD6875F23D77DA5A3DA0
:105AB000C652C4BD6459B0BC58FE5C3E6D3B8D3DC2
:105AC00061E21F3E6B2CA13E6DE5B53EE949B93E52
