:020000040800F2
:1000000000300020F9570008415800084158000806
:1000100041580008415800084158000800000000FD
:10002000000000000000000000000000415800082F
:1000300041580008000000004158000841580008DD
:1000400000000000000000000000000000000000B0
:1000500000000000000000000000000000000000A0
:100060000000000000000000000000000000000090
:100070000000000000000000000000000000000080
:100080000000000000000000000000000000000070
:100090000000000000000000000000000000000060
:1000A0000000000000000000000000000000000050
:1000B0000000000000000000000000000000000040
:1000C0000000000000000000000000000000000030
:1000D0000000000000000000000000000000000020
:1000E0000000000000000000000000000000000010
:1000F0000000000000000000000000000000000000
:1001000000000000000000000000000000000000EF
:1001100000000000000000000000000000000000DF
:1001200000000000000000000000000000000000CF
:1001300000000000000000000000000000000000BF
:1001400000000000000000000000000000000000AF
:10015000000000000000000000000000000000009F
:10016000000000000000000000000000000000008F
:10017000000000000000000000000000000000007F
:08018000000000000000000077
:1001C0000348044B834202D0034B03B118477047E6
:1001D0006800002068000020000000000548064973
:1001E000091A891001EBD171491002D0034B03B1F8
:1001F00018477047680000206800002000000000D9
:1002000010B5064C237843B9FFF7DAFF044B13B15E
:100210000448AFF300800123237010BD6800002064
:10022000000000004458000808B5044B1BB1044905
:100230000448AFF30080BDE80840CFE700000000AD
:100240006C000020445800083A4A21F000439342D1
:1002500070B50D460C46064618DD02460B460020DA
:10026000354901F027F8002D4FF00002324B06DB34
:1002700000F040FD02460B461046194670BD00F0E6
:1002800037FD02460B461046194670BD2B4A934275
:1002900022DCB3F1725F28DB294A934230DD00F0A3
:1002A00083FC02460B4600F025FD00F045FA0022D3
:1002B0004FF0804300F01EFD02460B4600204FF039
:1002C000804100F0F7FF02460B4600201A4900F07B
:1002D0000FFD02460B4601E0174B0022002CB8BF71
:1002E00003F100431046194670BD0022124B00F086
:1002F00001FD32462B4600F0B3FE02460B46BBE73B
:1003000000F052FC00224FF0404300F0A9FE00F044
:1003100013FA00224FF08043064601F1004500F039
:10032000E9FC02460B463046294600F0C3FF024670
:100330000B46D3E7FFFFEF7F0000F03FFFFF3540A4
:10034000FFFFEF3F00000000F8B504460D4600F047
:100350003BF81B4B93F90030013306460F4614D08F
:100360002046294600F024FC78B111A3D3E90023EC
:100370002046294601F004F988B9204629460EA3F3
:10038000D3E9002301F0DEF810B930463946F8BD54
:1003900001F06EF92223036000260027F5E701F043
:1003A00067F9222303600026064FEEE7AFF30080D3
:1003B000EF39FAFE422E864051302DD5104987C0C4
:1003C000000000200000F07F2DE9F04FD24F21F017
:1003D0000042BA4287B00C464FEAD176054611D9A1
:1003E000CE4FBA4229D9C1F313030343024640F06A
:1003F0004681002E00F0E28000252946284607B0FD
:10040000BDE8F08FC64B9A4254D8C64B9A4200F2D0
:10041000D980ABA3D3E9002300F06CFC0022C24BCF
:1004200001F0AEF8002800F0CD80284621460022D9
:10043000BD4B00F05FFC0546C0E0A3A3D3E9002359
:1004400001F09EF8002840F0228128462146A0A312
:10045000D3E9002301F076F80028CDD1B34B28462C
:1004600003EBC60621469CA3D3E9002300F0F8FD68
:10047000D6E9082300F03EFC01F0A2F8804600F027
:1004800085FD97A3D3E9002306460F4600F0E8FD5B
:1004900002460B462846214600F02AFC92A3D3E9E7
:1004A0000023CDE900013046394600F0D9FDCDE901
:1004B000020113E09E4B9A42D0D89C4C04EBC60438
:1004C000D4E9002300F014FCCDE90001D4E90412C2
:1004D000CDE90212C6F10103A3EB0608DDE9022310
:1004E000DDE9000100F004FC02460B4605460C461F
:1004F00000F0B6FD7EA3D3E9002306460F4600F0C8
:10050000AFFD7DA3D3E9002300F0F2FB32463B466A
:1005100000F0A6FD7AA3D3E9002300F0EBFB3246FE
:100520003B4600F09DFD78A3D3E9002300F0E0FBFB
:1005300032463B4600F094FD75A3D3E9002300F05A
:10054000D9FB32463B4600F08BFD02460B4628465F
:10055000214600F0CDFB82468B4628462146524676
:100560005B4600F07DFD5646CDE904015F46B8F1DB
:10057000000F60D052465B4600204FF0804100F0F3
:10058000B7FB02460B46DDE9040100F093FE02468C
:100590000B46DDE9020100F0ABFBDDE9002300F0D2
:1005A000A7FB0B4602466049002000F0A1FB6FF458
:1005B0007F73984574DB01EB08510546284607B068
:1005C000BDE8F08F2A4623462846214600F048FD24
:1005D00047A3D3E9002306460F4600F041FD46A39A
:1005E000D3E9002300F084FB32463B4600F038FD9F
:1005F00043A3D3E9002300F07DFB32463B4600F0E5
:100600002FFD41A3D3E9002300F072FB32463B46A5
:1006100000F026FD3EA3D3E9002300F06BFB324639
:100620003B4600F01DFD02460B462846214600F0E1
:100630005FFB06460F4632463B462846214600F001
:100640000FFD0022804689464FF0804330463946F0
:1006500000F04EFB02460B464046494600F02AFE9B
:100660002A46234600F044FB02460B4600202E4952
:1006700000F03EFB0546284607B0BDE8F08F0B466C
:1006800000F038FB0546284607B0BDE8F08F0CA304
:10069000D3E900231046194600F0E2FC05468DE739
:1006A00008F57A7301EB035100224FF0B87300F0A4
:1006B000D7FC0546284607B0BDE8F08FAFF30080B1
:1006C0009C7500883CE4377EEF39FAFE422E864066
:1006D00051302DD5104987C0FE822B654715F73F55
:1006E0000000E0FE422EE63F763C7935EF39EA3DE8
:1006F000D0A4BE726937663EF16BD2C541BDBB3E28
:100700002CDE25AF6A56113F93BDBE166CC1663F05
:100710003E5555555555C53F412E8640FFFFEF7F4D
:10072000422ED63FFFFF2F3E0000F03F185C00082E
:10073000B1A2F03F000000002DE9F04FD84A21F0AF
:100740000043934285B00C460E46054640F20181B7
:10075000D44A934200F2F080002E28462146C0F28F
:100760004F81B7A3D3E9002300F07AFC0B46CE49B2
:100770000246002000F0BEFA00F022FF019000F0D7
:1007800005FCB1A3D3E9002306460F4600F068FC40
:1007900002460B462846214600F0AAFAACA3D3E94C
:1007A0000023804689463046394600F059FC06460B
:1007B0000F4632463B464046494600F099FA02460B
:1007C0000B4605460C464046494600F091FA324633
:1007D0003B4600F08DFACDE902010022B24B2846DB
:1007E000214600F03DFC06460F4602460B462846D1
:1007F000214600F035FC98A3D3E9002382468B46BE
:1008000000F02EFC96A3D3E9002300F073FA5246C1
:100810005B4600F025FC94A3D3E9002300F068FABE
:1008200052465B4600F01CFC91A3D3E9002300F084
:1008300061FA52465B4600F013FC8FA3D3E9002314
:1008400000F056FA52465B4600F00AFC0022974B35
:1008500000F050FA8046894602460B46304639463B
:1008600000F0FEFB02460B460020914900F040FAE2
:10087000064602460B460F464046494600F038FA07
:100880003246804689463B462846214600F0E8FB32
:1008900002460B460020874900F02AFA02460B4622
:1008A0004046494600F006FD52465B4600F0D8FB44
:1008B000019E02460B46002E54D0DDE90267324607
:1008C0003B4600F015FA2A46234600F0C9FB3246A3
:1008D0003B4600F00DFA5B46524600F009FA019BD8
:1008E000013306460F4600F00B81019B012B00F0FF
:1008F000ED80019A531C392B4FEA02566FD8019FA5
:10090000132F00F30C814FF4001C2A4623464CFAA7
:1009100007FA00F0EDF9CAF17F594FF0000809F528
:10092000401902460B464046494600F0E1F973186B
:10093000194605B0BDE8F08F5F4A934236D9C1F33E
:1009400013030343024600F0FF800B4600F0D2F988
:1009500016E05A4A934216D8594A934268D900235E
:1009600001933AE72846214600F07AFB52465B465F
:1009700000F0BEF902460B462846214600F0B8F9C1
:1009800005B0BDE8F08F4F4A934200F2F280002993
:100990002DA3D3E9002317DB00F0AAF90123804639
:1009A000894601932AA7D7E9006702E734A3D3E970
:1009B000002300F0E5FD00283FF4CEAE002005B096
:1009C000BDE8F04F00F024B900F094F94FF0FF3388
:1009D0008046894601932CA7D7E90067E9E62A46B5
:1009E000234600F085F902460B4600202F4900F00F
:1009F0007FF97318194600222C4B00F079F9BFE7F4
:100A000023A3D3E9002300F075F90022002300F0AE
:100A100099FD002840F09B8009A3D3E900232846D4
:100A2000214600F01DFB02460B4600202649A1E6A8
:100A300019A3D3E9002300F05DF902460B4697E7BE
:100A4000FE822B654715F73F0000E0FE422EE63F91
:100A5000763C7935EF39EA3D2DC3096EB7FD8ABE84
:100A60003952E686CACFD03EB7DBAA9E19CE143FD4
:100A70008555FE19A0015A3FF41011111111A13F23
:100A8000EF39FAFE422E8640763C7935EF39EABDE1
:100A900059F3F8C21F6EA5019C7500883CE4377EAF
:100AA00079684340412E86400000E03F0000F03F5F
:100AB0000000084000001840FFFFEF7F422ED63FA5
:100AC000FFFF8F3CB1A2F03F0000E0BF2846214667
:100AD0000022314B00F036FD00283BD0284621464D
:100AE00000222E4B00F006F902460B4630463946EE
:100AF00000F0FEF800224FF0404300F0B1FA3FE76B
:100B000032463B462846214600F0F2F80022234BAD
:100B100000F0A6FA0022214B00F0EAF830E7019B32
:100B2000C3F57F7A0AF1030A4FEA0A53002200F064
:100B3000E1F802460B462846214600F0D9F800228B
:100B4000174B00F0D7F8F2E60029BFF619AF0020E6
:100B5000144915E732463B462846214600F0C8F8BE
:100B600002460B4600F0C6F800220D4B00F0C2F81A
:100B700006E707A3D3E9002300F072FA002C02462F
:100B80000B464FF00000FFF651AF0449F2E500BFFD
:100B9000FE822B654715F73F0000D0BF0000E03F05
:100BA0000000F03F0000F0BF21F0004319467047FD
:100BB00041F0004101F58010C00F704770B5044648
:100BC0000D46164600F054FD29460660204670BDCD
:100BD00030B583B078B1144603F10045CDE9004546
:100BE00010461946DDE9002300F03AFA222203B04C
:100BF000BDE83040E2E714461D46EFE700224FF023
:100C00008053E5E70022014BE2E700BF0000581ED9
:100C100000224FF0E043DBE700B5002283B068B963
:100C2000074BCDE90023DDE900010022002300F09D
:100C300041FB222203B05DF804EBBFE7014BF0E774
:100C40000000F03F0000F0BFF8B502460B46044636
:100C50000D4600F04DF802460B4600F02BFB2246F5
:100C600006460F462B462046294600F093FC28B93D
:100C7000304639462122BDE8F8409FE730463946E4
:100C8000F8BD00BF38B50022002304460D4600F031
:100C90004FFC10B92046294638BD2046294622225D
:100CA000BDE838408AE700BF70B5044621F0004631
:100CB0000D46204631464FF0FF320A4B00F06AFCE9
:100CC00038B9204631464FF0FF32064B00F044FC65
:100CD00010B12046294670BD204629462222BDE893
:100CE00070406BE7FFFFEF7F81F0004102E000BF43
:100CF00083F0004330B54FEA41044FEA430594EADC
:100D0000050F08BF90EA020F1FBF54EA000C55EA16
:100D1000020C7FEA645C7FEA655C00F0E2804FEAE7
:100D20005454D4EB5555B8BF6D420CDD2C4480EAC9
:100D3000020281EA030382EA000083EA010180EAF9
:100D4000020281EA0303362D88BF30BD11F0004F47
:100D50004FEA01314FF4801C4CEA113102D040427D
:100D600061EB410113F0004F4FEA03334CEA1333B8
:100D700002D0524263EB430394EA050F00F0A780D0
:100D8000A4F10104D5F1200E0DDB02FA0EFC22FACB
:100D900005F2801841F1000103FA0EF2801843FABF
:100DA00005F359410EE0A5F120050EF1200E012AB0
:100DB00003FA0EFC28BF4CF0020C43FA05F3C018EE
:100DC00051EBE37101F0004507D54FF0000EDCF167
:100DD000000C7EEB00006EEB0101B1F5801F1BD310
:100DE000B1F5001F0CD349085FEA30004FEA3C0C14
:100DF00004F101044FEA445212F5800F80F09A800A
:100E0000BCF1004F08BF5FEA500C50F1000041EB0D
:100E1000045141EA050130BD5FEA4C0C404141EB11
:100E2000010111F4801FA4F10104E9D191F0000F38
:100E300004BF01460020B1FA81F308BF2033A3F1BB
:100E40000B03B3F120020CDA0C3208DD02F1140CB2
:100E5000C2F10C0201FA0CF021FA02F10CE002F1ED
:100E60001402D8BFC2F1200C01FA02F120FA0CFCE6
:100E7000DCBF41EA0C019040E41AA2BF01EB04512F
:100E8000294330BD6FEA04041F3C1CDA0C340EDC2D
:100E900004F11404C4F1200220FA04F001FA02F370
:100EA00040EA030021FA04F345EA030130BDC4F12E
:100EB0000C04C4F1200220FA02F001FA04F340EA23
:100EC0000300294630BD21FA04F0294630BD94F0D4
:100ED000000F83F4801306BF81F480110134013DBB
:100EE0004EE77FEA645C18BF7FEA655C29D094EA2C
:100EF000050F08BF90EA020F05D054EA000C04BFAA
:100F00001946104630BD91EA030F1EBF0021002094
:100F100030BD5FEA545C05D14000494128BF41F033
:100F2000004130BD14F580043CBF01F5801130BD97
:100F300001F0004545F0FE4141F470014FF0000022
:100F400030BD7FEA645C1ABF194610467FEA655CD3
:100F50001CBF0B46024650EA013406BF52EA033575
:100F600091EA030F41F4002130BD00BF90F0000F63
:100F700004BF0021704730B54FF4806404F132049F
:100F80004FF000054FF0000150E700BF90F0000F58
:100F900004BF0021704730B54FF4806404F132047F
:100FA00010F0004548BF40424FF000013EE700BF4F
:100FB00042004FEAE2014FEA31014FEA02701FBFDF
:100FC00012F07F4393F07F4F81F06051704732F011
:100FD0007F4208BF704793F07F4F04BF41F4002168
:100FE000704730B54FF4607401F0004521F00041C6
:100FF0001CE700BF50EA010208BF704730B54FF050
:1010000000050AE050EA010208BF704730B511F050
:10101000004502D5404261EB41014FF4806404F188
:1010200032045FEA915C3FF4D8AE4FF003025FEA0E
:10103000DC0C18BF03325FEADC0C18BF033202EB92
:10104000DC02C2F1200300FA03FC20FA02F001FAEC
:1010500003FE40EA0E0021FA02F11444BDE600BF8F
:1010600070B54FF0FF0C4CF4E06C1CEA11541DBF3E
:101070001CEA135594EA0C0F95EA0C0F00F0DEF809
:101080002C4481EA030621EA4C5123EA4C5350EAEE
:10109000013518BF52EA033541F4801143F480133F
:1010A00038D0A0FB02CE4FF00005E1FB02E506F0D0
:1010B0000042E0FB03E54FF00006E1FB03569CF025
:1010C000000F18BF4EF0010EA4F1FF04B6F5007F2B
:1010D00064F5407404D25FEA4E0E6D4146EB06069D
:1010E00042EAC62141EA55514FEAC52040EA5E5026
:1010F0004FEACE2EB4F1FD0C88BFBCF5E06F1ED8D0
:10110000BEF1004F08BF5FEA500E50F1000041EB06
:10111000045170BD06F0004646EA010140EA0200B3
:1011200081EA0301B4EB5C04C2BFD4EB0C0541EAD5
:10113000045170BD41F480114FF0000E013C00F3EA
:10114000AB8014F1360FDEBF002001F0004170BD0E
:10115000C4F10004203C35DA0C341BDC04F1140427
:10116000C4F1200500FA05F320FA04F001FA05F2B3
:1011700040EA020001F0004221F0004110EBD37080
:1011800021FA04F642EB06015EEA430E08BF20EAAC
:10119000D37070BDC4F10C04C4F1200500FA04F34F
:1011A00020FA05F001FA04F240EA020001F00041E1
:1011B00010EBD37041F100015EEA430E08BF20EA54
:1011C000D37070BDC4F1200500FA05F24EEA020E9C
:1011D00020FA04F301FA05F243EA020321FA04F0CB
:1011E00001F0004121FA04F220EA020000EBD37082
:1011F0005EEA430E08BF20EAD37070BD94F0000F82
:101200000FD101F00046400041EB010111F4801FB5
:1012100008BF013CF7D041EA060195F0000F18BF66
:10122000704703F00046520043EB030313F4801FA2
:1012300008BF013DF7D043EA0603704794EA0C0F5C
:101240000CEA135518BF95EA0C0F0CD050EA410672
:1012500018BF52EA4306D1D181EA030101F00041EF
:101260004FF0000070BD50EA410606BF1046194617
:1012700052EA430619D094EA0C0F02D150EA013623
:1012800013D195EA0C0F05D152EA03361CBF104664
:1012900019460AD181EA030101F0004141F0FE4103
:1012A00041F470014FF0000070BD41F0FE4141F487
:1012B000780170BD70B54FF0FF0C4CF4E06C1CEA87
:1012C00011541DBF1CEA135594EA0C0F95EA0C0F3C
:1012D00000F0A7F8A4EB050481EA030E52EA0335F7
:1012E0004FEA013100F088804FEA03334FF0805518
:1012F00045EA131343EA12634FEA022245EA111545
:1013000045EA10654FEA00260EF000419D4208BFF5
:10131000964244F1FD0404F5407402D25B084FEAA2
:101320003202B61A65EB03055B084FEA32024FF44E
:1013300080104FF4002CB6EB020E75EB030E22BFAB
:10134000B61A754640EA0C005B084FEA3202B6EB6B
:10135000020E75EB030E22BFB61A754640EA5C001A
:101360005B084FEA3202B6EB020E75EB030E22BFAA
:10137000B61A754640EA9C005B084FEA3202B6EBAB
:10138000020E75EB030E22BFB61A754640EADC006A
:1013900055EA060E18D04FEA051545EA16754FEACC
:1013A00006164FEAC30343EA52734FEAC2025FEAEA
:1013B0001C1CC0D111F4801F0BD141EA00014FF079
:1013C00000004FF0004CB6E711F4801F04BF01434A
:1013D0000020B4F1FD0C88BFBCF5E06F3FF6AFAE66
:1013E000B5EB030C04BFB6EB020C5FEA500C50F1F6
:1013F000000041EB045170BD0EF0004E4EEA113179
:1014000014EB5C04C2BFD4EB0C0541EA045170BD7F
:1014100041F480114FF0000E013C90E645EA060EC3
:101420008DE60CEA135594EA0C0F08BF95EA0C0FF1
:101430003FF43BAF94EA0C0F0AD150EA01347FF439
:1014400034AF95EA0C0F7FF425AF104619462CE710
:1014500095EA0C0F06D152EA03353FF4FDAE104673
:10146000194622E750EA410618BF52EA43067FF4C4
:10147000C5AE50EA41047FF40DAF52EA43057FF454
:10148000EBAE12E74FF0FF3C06E000BF4FF0010C5F
:1014900002E000BF4FF0010C4DF804CD4FEA410CC3
:1014A0007FEA6C5C4FEA430C18BF7FEA6C5C1BD090
:1014B00001B050EA410C0CBF52EA430C91EA030F11
:1014C00002BF90EA020F0020704710F1000F91EA6E
:1014D000030F58BF994208BF90422CBFD8176FEA3C
:1014E000E37040F0010070474FEA410C7FEA6C5C0A
:1014F00002D150EA013C07D14FEA430C7FEA6C5C11
:10150000D6D152EA033CD3D05DF8040B704700BF3C
:101510008446104662468C461946634600E000BF8A
:1015200001B5FFF7B7FF002848BF10F1000F01BD5C
:101530004DF808EDFFF7F4FF0CBF012000205DF827
:1015400008FB00BF4DF808EDFFF7EAFF34BF0120AC
:1015500000205DF808FB00BF4DF808EDFFF7E0FF45
:1015600094BF012000205DF808FB00BF4DF808ED96
:10157000FFF7CEFF94BF012000205DF808FB00BFFD
:101580004DF808EDFFF7C4FF34BF012000205DF8DF
:1015900008FB00BF4FEA410C7FEA6C5C02D150EAC5
:1015A000013C0AD14FEA430C7FEA6C5C02D152EA5B
:1015B000033C02D14FF0000070474FF0010070472C
:1015C0004FEA410212F5001215D211D56FF478736B
:1015D000B3EB625212D94FEAC12343F0004343EA0E
:1015E000505311F0004F23FA02F018BF40427047E9
:1015F0004FF00000704750EA013005D111F0004073
:1016000008BF6FF0004070474FF00000704700BF08
:101610004A0011D212F5001211D20DD56FF4787371
:10162000B3EB62520ED44FEAC12343F0004343EAC6
:10163000505323FA02F070474FF00000704750EA11
:10164000013002D14FF0FF3070474FF0000070477B
:101650000A22002100F056BE0A23002200F046BEF6
:10166000024B0A460146186800F03AB9040000200F
:10167000014B1868704700BF0400002008B5074BF5
:10168000044613B1002100F027FF054B1868836A58
:1016900003B19847204602F0ADFA00BFD9240008F4
:1016A000485C000870B50D4E0D4D761BB61006D087
:1016B0000024013455F8043B9847A642F9D1094E5D
:1016C000094D761B04F0BEF8B61006D00024013494
:1016D00055F8043B9847A642F9D170BD98610008BF
:1016E000986100089C61000898610008024B01465F
:1016F000186800F059B900BF04000020024B0146F1
:10170000186800F0FBB800BF04000020844641EADE
:10171000000313F003036DD1403A41D351F8043B69
:1017200040F8043B51F8043B40F8043B51F8043BBB
:1017300040F8043B51F8043B40F8043B51F8043BAB
:1017400040F8043B51F8043B40F8043B51F8043B9B
:1017500040F8043B51F8043B40F8043B51F8043B8B
:1017600040F8043B51F8043B40F8043B51F8043B7B
:1017700040F8043B51F8043B40F8043B51F8043B6B
:1017800040F8043B51F8043B40F8043B51F8043B5B
:1017900040F8043B51F8043B40F8043B403ABDD2CA
:1017A000303211D351F8043B40F8043B51F8043B6C
:1017B00040F8043B51F8043B40F8043B51F8043B2B
:1017C00040F8043B103AEDD20C3205D351F8043BFB
:1017D00040F8043B043AF9D2043208D0D2071CBFC7
:1017E00011F8013B00F8013B01D30B8803806046F0
:1017F000704700BF082A13D38B078DD010F0030366
:101800008AD0C3F10403D21ADB071CBF11F8013BD5
:1018100000F8013B80D331F8023B20F8023B7BE724
:10182000043AD9D3013A11F8013B00F8013BF9D24F
:101830000B7803704B7843708B78837060467047E9
:10184000F0B4860746D0541E002A3CD0CAB20346E4
:1018500002E014F1FF3436D303F8012B9D07F8D1D1
:10186000032C29D9CDB245EA05250F2C45EA0545BB
:1018700033D9A4F11006360903F1200707EB061748
:1018800003F1100242E9045542E902551032BA420E
:10189000F8D1721C14F00C0F03EB021204F00F06C7
:1018A00013D0331F23F003030433134442F8045BC3
:1018B0009342FBD106F003042CB1C9B21C4403F8D7
:1018C000011B9C42FBD1F0BC704734461346002CF0
:1018D000F3D1F8E714460346C2E71A462646E0E786
:1018E00038B502FB01F4214600F05EF8054618B158
:1018F00022460021FFF7A4FF284638BD00293CD02E
:1019000038B551F8043C0C1F002BB8BFE41805464D
:1019100001F01EF9234B1A682AB1A2420DD92168A1
:101920006018824223D0626028461C60BDE83840BF
:1019300001F010B9A34203D81A465368002BF9D11D
:1019400011685018A04219D024D821686018834229
:1019500006D0636054602846BDE8384001F0FAB80C
:10196000D3E900030144636021605460F3E7D2E9E6
:101970000002014462602160D6E77047206801449C
:10198000501883421160E6D1D3E90003014453604B
:101990001160E0E70C232B602846BDE8384001F0D9
:1019A000D9B800BF54010020F8B5CD1C25F00305BF
:1019B00008350C2D38BF0C25002D064633DBA94217
:1019C00031D82A4F01F0C4F83A6852B113685B1B52
:1019D00004D43FE023685B1B29D522465468002CC1
:1019E000F8D1796800293BD02946304600F014F937
:1019F000431C28D0C41C24F00304A04205D0211AA3
:101A0000304600F009F901301DD02560304601F064
:101A1000A1F804F10B0020F00700231DC21A01D029
:101A20001B1AA350F8BD0C2232600020F8BD0B2B0E
:101A300005D8A242636811D05360E7E714462360DB
:101A40001C442560E2E70C233046336001F082F845
:101A50000020F8BD0B2BF1D8536814463B60D5E746
:101A6000304600F0D9F87860BEE700BF540100208E
:101A70000EB410B5044683B008B1836963B106A8FB
:101A800003460190059AA168204601F0A7F803B02B
:101A9000BDE8104003B0704700F050FFEFE700BF13
:101AA0000FB410B50B4B1C6882B00CB1A36963B1C5
:101AB00005A803460190049AA168204601F08EF81B
:101AC00002B0BDE8104004B07047204600F036FF79
:101AD000EEE700BF0400002010B5044682B008B154
:101AE000836933B1A268204602B0BDE8104001F01E
:101AF000C5BB019100F022FF0199F3E738B50B4B0C
:101B00001C6805460CB1A36933B12946A26820467A
:101B1000BDE8384001F0B2BB204600F00FFF294677
:101B2000A2682046BDE8384001F0A8BB04000020B0
:101B300083692DE9F04180460E4633B384682F4B0C
:101B40009C4230D02E4B9C4239D02E4B9C4208BF39
:101B5000D8F80C40A3891B072AD5236943B3013E5B
:101B6000A36816F8015F013BA3609DB3002B07DA61
:101B7000A7699F4222462946404623DC0A2D21D0F0
:101B800023685A1C22601D70EAE700F0D7FED8F8DF
:101B90001830D8F80840002BD1D1404600F0CEFED6
:101BA000164B9C42CED1D8F80440A3891B07D4D44D
:101BB0002146404600F010FC0028D0D006E0D8F8BE
:101BC0000840C7E700F0A8FB0130C9D14FF0FF3053
:101BD000BDE8F081002B09DA224640460A2100F0D8
:101BE0009BFB0130F2D00A20BDE8F08123680A2275
:101BF000591C21601A701046BDE8F081905D000804
:101C0000705D0008505D0008024B01461868FFF740
:101C10008FBF00BF0400002038B5074C00230546E5
:101C20000846236003F0CEFD431C00D038BD236876
:101C3000002BFBD02B6038BDD80100200000000035
:101C4000A2EB0300704700BF02780B78012A28BF7F
:101C50009A42F5D16DE9044540EA0104CDE90267F5
:101C60006FF0000C4FEA447212B380EA010414F0E2
:101C7000070F6AD100F0070420F0070004F0030505
:101C800021F007014FEAC505F0E8042314F0040F22
:101C9000F1E804670CFA05F462EA040266EA040655
:101CA0000AD063EA0403624667EA0407664603E073
:101CB000F0E80423F1E8046782FA4CF582EA0604AE
:101CC000A4FA8CF46CBB83FA4CF583EA0705A5FAF9
:101CD0008CF595B950E9022351E9026782FA4CF577
:101CE00082EA0604A4FA8CF483FA4CF583EA070529
:101CF000A5FA8CF52543DBD09CB92DBAB5FA85F44D
:101D000024F0070427FA04F1DDE9026723FA04F35B
:101D100003F0FF0001F0FF01FDE80445A0EB010026
:101D2000704724BAB4FA84F424F0070426FA04F1C4
:101D3000DDE9026722FA04F202F0FF0001F0FF0180
:101D4000FDE80445A0EB0100704714F0030F3CD1FF
:101D500010F0030428D150F8082B51F8083B82FA00
:101D60004CF582EA0305A5FA8CF55DB950F8042C10
:101D700051F8043C82FA4CF582EA0305A5FA8CF589
:101D8000002DE8D02DBAB5FA85F424F0070423FA23
:101D900004F122FA04F202F0FF0001F0FF01FDE875
:101DA0000445A0EB010070474FEAC40420F0030093
:101DB00050F8082B21F0030151F8083B0CFA04F409
:101DC00062EA040263EA0403C9E710F003041AD0CC
:101DD000A1EB040120F00300E40750F8042B06D027
:101DE0000FD28B785FFAA2F4E41A06D12BB1CB782C
:101DF0005FFAB2F4E41A00D11BB920465DF8104B2B
:101E0000704701F1040150F8042BCC0721F00301C5
:101E100051F8043B48D824D222F07F4482FA4CF592
:101E200094EA1325A5FA8CF50AD165B951F8043B5B
:101E300084EA0204B4EB036F0ED150F8042BEBE7F5
:101E40004FEA132355E035F07F454DD10878FDE882
:101E50000445C0F1000070474FEA126203F0FF032F
:101E600047E002EA1C4482FA4CF594EA1345A5FACD
:101E70008CF50AD165B951F8043B84EA0204B4EB4D
:101E8000034F0CD150F8042BEBE74FEA134330E03B
:101E900015EA1C4528D10B884FEA124229E04FEA87
:101EA000124203EA1C4324E002F0FF0482FA4CF5DC
:101EB00094EA1365A5FA8CF50AD165B951F8043B8B
:101EC00084EA0204B4EB032F09D150F8042BEBE7AA
:101ED0004FEA13630DE015F0FF0F05D10B684FEAD1
:101EE000122223F07F4304E04FF00000FDE8044598
:101EF000704712BA1BBA82FA4CF482EA0304A4FABD
:101F00008CF5B5FA85F402FA04F203FA04F34FEA09
:101F10001260FDE80445A0EB1360704780EA0102FF
:101F2000844612F0030F4FD111F0030F32D14DF858
:101F3000044D11F0040F51F8043B0BD0A3F1013212
:101F40009A4312F0803F04BF4CF8043B51F8043B25
:101F500016D100BF51F8044BA3F101329A4312F09D
:101F6000803FA4F101320BD14CF8043BA24312F0A4
:101F7000803F04BF51F8043B4CF8044BEAD02346A1
:101F80000CF8013B13F0FF0F4FEA3323F8D15DF853
:101F9000044B704711F0010F06D011F8012B0CF81B
:101FA000012B002A08BF704711F0020FBFD031F893
:101FB000022B12F0FF0F16BF2CF8022B8CF800201A
:101FC00012F47F4FB3D1704711F8012B0CF8012B9D
:101FD000002AF9D1704700BF000000000000000097
:101FE00000000000000000000000000000000000F1
:101FF00000000000000000000000000000000000E1
:1020000090F800F06DE9024520F007016FF0000C38
:1020100010F0070491F820F040F049804FF00004E0
:102020006FF00700D1E9002391F840F000F10800BB
:1020300082FA4CF2A4FA8CF283FA4CF3A2FA8CF3F3
:102040004BBBD1E9022382FA4CF200F10800A4FA5A
:102050008CF283FA4CF3A2FA8CF3E3B9D1E90423AE
:1020600082FA4CF200F10800A4FA8CF283FA4CF3E5
:10207000A2FA8CF37BB9D1E9062301F1200182FA9F
:102080004CF200F10800A4FA8CF283FA4CF3A2FAA5
:102090008CF3002BC6D0002A04BF04301A4612BAB3
:1020A000B2FA82F2FDE8024500EBD2007047D1E9B6
:1020B000002304F00305C4F100004FEAC50514F045
:1020C000040F91F840F00CFA05F562EA05021CBF16
:1020D00063EA050362464FF00004A9E7174B30B5E9
:1020E0001C68A26D83B0054632B12846012303B0B7
:1020F000BDE8304000F028B850200191FFF7F6FA13
:102100000199A0650246A0B10023C0E90033C0E9EF
:102110000233C0E904338361C0E90A33C0E90C33F8
:10212000C0E90E33C0E91033C0E9123303774362CC
:10213000DBE7034B0348572100F01CFA04000020A2
:10214000D0600008E8600008F0B418B307460D46F8
:1021500017F8016B01E0A64217D015F8014B002CCF
:10216000F9D1E6B117F8015B0C4601E0002BF9D07C
:1021700014F8013B9D42F9D155B1002307F8013C09
:10218000176006463046F0BC704763B13846DDE75D
:102190002F46F5E710680028D8D10646F2E730460A
:1021A0001660F0BC7047176006460370EAE700BF90
:1021B0000123FFF7C9BF00BF012B2DE9F84F41D024
:1021C000242B98463ED80F46DFF81CC100E02F466E
:1021D0003D4615F8014B1CF8046016F00806F6D1D0
:1021E0002D2C6CD02B2C0ABF95F800B0A346BD1C3B
:1021F000002B46D0102B57D0002E14BF4FF00049B3
:102200006FF000490027B9FBF8FEBC4608FB1E9A98
:1022100007E0E64513D32FD00CFB084C012715F837
:1022200001BBABF13004092C05D9ABF14104192CE9
:102230000FD8ABF13704A34213DD002FE9DA4FF0DA
:10224000FF37ECE7FFF714FA162303600020BDE820
:10225000F88FABF16104192C03D8ABF15704A342FA
:10226000EBDC002F25DB0EB1CCF1000C0AB177BB03
:1022700011606046BDE8F88FA245CDDA4FF0FF3718
:10228000CDE7BBF1300F03D04FF00A084346B3E768
:102290002B7803F0DF03582B1BD14FF0100895F873
:1022A00001B043460235A7E7BBF1300F15D0984681
:1022B000A2E7222303603AB1691ECC46D8E795F81D
:1022C00000B00126BD1C93E7CC466046D2E7E1464C
:1022D000F2E74FF0080843468EE72C7804F0DF045D
:1022E000582CDAD0984687E74D5C000864E700BFB9
:1022F00010B4034C13460A460146206810BC5BE745
:102300000400002010B4034C13460A46014620681E
:1023100010BC51E704000020F8B50D4614460646EF
:1023200008B1836943B3254B9C422AD0244B9C427D
:1023300029D0244B9C4208BFF468A389A269A260FB
:102340001A0722D5236903B322686169D31AEDB253
:1023500099422F4629DD0133A168501C0139A16043
:102360002060157062699A4216D0A389DB0701D5F7
:102370000A2D11D03846F8BD00F0E0FA0F4B9C4210
:10238000D4D17468D9E7B468D7E72146304600F065
:1023900023F838B92369D7E72146304600F0A4F97D
:1023A0000028E7D04FF0FF37E4E72146304600F041
:1023B0009BF90028F6D122680123CDE7905D000843
:1023C000705D0008505D0008024B0A46014618681F
:1023D000FFF7A2BF040000203B4B70B51D68064606
:1023E0000C460DB1AB69DBB1384B9C421ED0384B6B
:1023F0009C424AD0374B9C4208BFEC68B4F90C2091
:1024000093B2190718D5206908B313F001022CD034
:10241000636900225B42A361A26060B3002070BDCB
:10242000284600F08BFA294B9C42E0D16C68B4F945
:102430000C2093B21907E6D4DD063CD5580726D404
:10244000206942F00803A3819BB20028DDD103F488
:102450002072B2F5007FD8D03046214600F02EFB26
:10246000A389206913F00102D2D1990758BF62698C
:10247000A2600028D2D1B4F90C301A06CFD543F0AF
:102480004003A3814FF0FF3070BDAC68B6E7616BCD
:1024900051B104F14403994204D03046FFF72EFABB
:1024A000B4F90C200023636300232069636022F0E9
:1024B00024022060C5E742F04002092333604FF058
:1024C000FF30A28170BD00BF04000020905D0008B5
:1024D000705D0008505D00082DE9F04FDFF8908036
:1024E00083B0D8F8005001900F464FF0010A8DB12B
:1024F0006C68D5F88860013C0CD405F1080B67B115
:102500002EB106F1800353F82430BB4205D014F1FC
:10251000FF34F4D203B0BDE8F08F6B685BF8242081
:10252000013BA34216BF00236C604BF82430002A05
:10253000EDD0D5F80490B6B1D6F800110AFA04F33C
:102540000B4210D0D6F8040156F8241003420CD1E7
:10255000019890476B68D8F800204B4501D1AA42FA
:10256000D5D01546C3E79047F4E708469047F1E712
:102570005C01002000B50A4C2668054685B01C4663
:10258000F06852B1074B0091CDE9013206492B4664
:10259000224600F001FA00F055FF044B1A46F2E71C
:1025A000040000201C6100082C610008286100085C
:1025B00008B513460022FFF7DDFF00BF8B891A071D
:1025C0002DE9F0410C46804641D44A68002A59DD85
:1025D000E66A002E53D00022D8F80050216AC8F8CD
:1025E000002013F4805251D101234046B047431CD0
:1025F0005FD0A389E66A216A5F0705D56268636BCD
:10260000801A0BB1236CC01A024600234046B04723
:10261000461C45D1D8F80030B4F90C20002B55D019
:102620001D2B01D0162B5AD123690022C4E9003298
:10263000616BC8F8005011B304F14403994202D011
:102640004046FFF75BF900206063BDE8F0810E694A
:10265000AEB10D680E6099070CBF63690023AD1B16
:10266000A3600AE02B463246A76A216A4046B84773
:102670000028A5EB000506440ADD002DF2DC002051
:10268000BDE8F0810A6C002AA2DCF8E7606DB3E7D0
:10269000A38943F04003A3814FF0FF30BDE8F081F0
:1026A0002269A389226000226260DA04C0D56065D5
:1026B000BEE7D8F80030002B9BD01D2B0CD0162B7A
:1026C0000AD0A38943F04003A381D9E72169C4E973
:1026D0000013D304ACD5EAE7C8F80050CFE742F0C6
:1026E0004002A281CCE700BF0B6923B310B50446BA
:1026F00082B008B18369BBB1104B994212D0104B24
:10270000994216D00F4B994208BFE168B1F90C30DD
:102710002BB1204602B0BDE81040FFF74FBF0020AC
:1027200002B010BD6168F1E7019100F007F901996D
:10273000E2E7A168EAE70020704700BF905D00086B
:10274000705D0008505D000820B1054B0146186817
:10275000FFF7CABF034B0449186800F057B900BF20
:1027600004000020485C0008E926000800207047AB
:10277000014900F04BB900BFE9260008002070476E
:1027800070B54A1E682505FB02F50E4605F1740179
:10279000FFF70AF9044640B100210C30666005F1EC
:1027A00068022160A060FFF74BF8204670BD00BFB3
:1027B0001E4B70B51D68AB69064643B34835D5E975
:1027C0000134013B05D51EE0013B5A1C04F16804AD
:1027D00019D0B4F90C20002AF6D10025144B6566F7
:1027E000C4E90055A560C4E90455A5612946E36024
:1027F000082204F15C00FFF723F8C4E90D55C4E991
:102800001255204670BD2C682CB12546D7E72846C6
:1028100000F010F8D2E704213046FFF7B1FF04467C
:1028200028600028F1D10C233360EAE7485C0008F7
:102830000100FFFF2DE9F84F334B34491A688162DC
:1028400090424FF00003C0E91233036504BF012337
:1028500083610546FFF7ACFF68602846FFF7A8FFD5
:10286000A8602846FFF7A4FF6E68E86000240423F0
:10287000F3607466C6E90044B460C6E90444B46118
:10288000214606F15C000822FEF7DAFFDFF888B087
:10289000AF68DFF888A0DFF88890DFF888801C4BED
:1028A000C6F83080C6E9086BC6E90AA92146FB6074
:1028B00008227C66C7E90044BC60C7E90444BC61E7
:1028C00007F15C00FEF7BCFFEE68124BC7F83080E2
:1028D000C7E9087BC7E90AA92146F3607466C6E91F
:1028E0000044B460C6E90444B46106F15C00082207
:1028F000FEF7A6FF0123C6E9086BC6E90AA9C6F8D8
:102900003080AB61BDE8F88F485C00087127000893
:10291000090001001200020089330008B1330008E9
:10292000F133000811340008024B0349186800F025
:102930006DB800BF485C0008E9260008836903B948
:1029400078E77047704700BF704700BF704700BF0F
:10295000704700BF024B0349186800F031B800BF50
:10296000040000206D270008024B0349186800F09E
:1029700027B800BF040000207D2700080CB400B574
:1029800083B004AB53F8042B019300F027F903B094
:102990005DF804EB02B070470EB410B583B005AB20
:1029A000064C53F8042B01930146206800F016F9F9
:1029B00003B0BDE8104003B0704700BF0400002022
:1029C0002DE9F04110F148071BD088460026D7E9D1
:1029D0000154013D0FD4A389012B05F1FF3506D920
:1029E000B4F90E300133204601D0C04706436B1CBA
:1029F00004F16804EFD13F68002FE8D13046BDE80C
:102A0000F0813E463046BDE8F08100BF2DE9F84335
:102A100010F148071FD0884606464FF00009D7E955
:102A20000154013D11D4A389012B05F1FF3508D9CB
:102A3000B4F90E3001332146304602D0C04749EA8E
:102A400000096B1C04F16804EDD13F68002FE6D14A
:102A50004846BDE8F883B9464846BDE8F88300BF5C
:102A600070B50C46B1F90E10002996B016461D46F9
:102A700013DB6A4600F000FD00280EDB019A02F429
:102A80007042A2F50052B2FA82F252094FF480630A
:102A900000202A60336016B070BDA38900221B0697
:102AA0002A6004D540230020336016B070BD4FF477
:102AB00080630020336016B070BD00BF8A89920722
:102AC0000B4606D501F1470201211A60C3E9042132
:102AD000704770B582B001AB6A460C460646FFF7F8
:102AE000BFFF009905463046FEF75EFFB4F90C3093
:102AF00070B11649B162019A0099206043F08003D9
:102B0000A381C4E904018AB92B43A38102B070BD3B
:102B10009A05FBD423F0030304F1470243F00203B8
:102B20000121A3812260C4E90421EFE73046B4F912
:102B30000E1000F039FE10B9B4F90C30E4E7A389A7
:102B400023F0030343F001031BB2DDE77127000804
:102B5000704700BF704700BF9368013B002B936034
:102B60000FDA10B49469A34208DB0A2906D013686F
:102B7000581C10601970084610BC704710BCFFF755
:102B8000CBBB1368581C106019700846704700BF13
:102B90009BB1F8B513440F4606465D1E541E01E076
:102BA000AC4208D03A4614F8011F3046FFF7D4FF74
:102BB000431CF5D1F8BD0020F8BD0020704700BFD0
:102BC000936810B5144613B95360184610BD00F051
:102BD00067FC0023C4E9013310BD00BF2DE9F04FAD
:102BE0009FB08B4690461C46039018B18369002B1A
:102BF00000F0B780A24B9B4500F0B980A14B9B45EC
:102C000000F0C780A04B9B4504BF039BD3F80CB0DA
:102C1000BBF80C30180740F1B280DBF81030002B05
:102C200000F0AD8030238DF8323098F800300594F4
:102C3000002120220B918DF83120944E0127002B8A
:102C400000F08780252B00F01581454603E0252BF9
:102C500000F0A38025466B786C1C002BF7D1B4EBF9
:102C6000080A76D04246534659460398FFF790FF2C
:102C700001306ED00B9B6A7853440B93002A68D0C6
:102C800000234FF0FF3201340693CDE908338DF86D
:102C90005B301C93079205E0069A07FA03F313438F
:102CA0002C4606932546052215F8011B304600F0F8
:102CB000A7FDAA46831B0028EED1069BD90644BF78
:102CC00020228DF85B2021781A0744BF2B228DF833
:102CD0005B202A2966D1059A1168043200290592E1
:102CE000C0F29D8009916178A51C2E2973D0684C93
:102CF0000322204600F084FD002800F08680001B9F
:102D0000069B402404FA00F00343069305F10108F2
:102D1000297860488DF83010062200F071FD0028F7
:102D200000F083805C4B002B72D005AB00935A46B9
:102D30005A4B039806A9AFF300808146B9F1FF3FD3
:102D400007D00B9B4B440B9398F80030002B7FF47B
:102D500079AFBBF80C305B0618D40B981FB0BDE8F8
:102D6000F08FFFF7EBFD464B9B457FF447AF039B8E
:102D7000D3F804B0BBF80C3018073FF54EAF5946F6
:102D80000398FFF729FB00283FF44CAF4FF0FF30CA
:102D9000E4E7039BD3F808B03AE7B4EB080A3FF442
:102DA0006FAF5FE7A1F13002092A88BFA2469CD825
:102DB000099B01E02C460135297803EB830302EBE4
:102DC0004303A1F13002092AAA46F3D92E2904F1BE
:102DD000020509938BD19AF801102A292FD1059B5E
:102DE0009AF802101A6807920433002A05930AF130
:102DF00003050AF1020338DB254C032220469A46DC
:102E000000F0FEFC00287FF47AAFA84655467FE725
:102E1000059B073323F007030833059391E74942E5
:102E200043F00203099106935DE705AB00935A4610
:102E30001A4B039806A900F0D5F881467EE7A1F168
:102E400030020023092A079301D915E05546697815
:102E500003EB830302EB4303A1F13002092A05F1DE
:102E6000010AF3D90235079341E74FF0FF329A4642
:102E700007923CE7444603E7AA46013537E700BF1F
:102E8000905D0008705D0008505D00085C610008FE
:102E9000646100086861000800000000912B0008D0
:102EA00010B4044C13460A460146206810BCFFF7D4
:102EB00095BE00BF040000202DE9F0470C46914666
:102EC0000A698968DDF820808A42B8BF0A46C9F8D5
:102ED000002094F8431006461F4611B10132C9F88C
:102EE0000020236899065CD5D9F800200232C9F881
:102EF0000020236813F0060F19461DD1E1688A1AD5
:102F0000002AD8BF194617DD04F1190A002505E08B
:102F1000E368D9F800209B1AAB420CDD012352462E
:102F200039463046C047013005F10105F0D14FF078
:102F3000FF30BDE8F087216894F84330003318BFB4
:102F400001238A060AD5E1185A1C302081F8430073
:102F5000224494F8451082F84310023304F14302EE
:102F600039463046C0470130E1D02368A268216964
:102F700003F00603042B1DD08A4226DD4FF0000922
:102F8000521A91441A34002501E04D451DDA0123FF
:102F9000224639463046C047013005F10105F4D1DB
:102FA000C5E713F0060F13D094F84330003318BF71
:102FB0000123D3E7D9F80000E3688A42A3EB0003BA
:102FC00023EAE379DCDC002BDCDC0020BDE8F087C1
:102FD000E168D9F800208A1A002AD8BF194693DC84
:102FE000AAE700BF2DE9F0430C46097E85B06E29A3
:102FF000064617460C98984604F1430E6DD039D911
:10300000732900F0F68044D9752900F004817829ED
:1030100040F0118178232268DFF858C284F84530E7
:103020000168150651F8043B016040F1A180D10709
:1030300044BF42F020022260002B00F09380102257
:10304000002184F843106068A0600028C0F2C880A6
:10305000216821F004012160002B40F0A3800028AA
:1030600040F0C0807546082A00F0AC80AEEB050346
:10307000236141E0632900F0E5801AD8002938D0A7
:10308000582940F0D88084F845102268DFF8E8C15C
:10309000C6E76F2900F0BF80702940F0CC8022681D
:1030A000DFF8D0C142F020027823226084F8453056
:1030B000B6E7642902D0692940F0BD802268036820
:1030C000110603F1040557D5196805600B46002960
:1030D00059DBDFF8A4C10A22B5E7036822686169F9
:1030E0001D1D056015061B6802D4500600F1BD8049
:1030F0001960002375462361CDF800803B4603AA82
:1031000021463046FFF7D8FE013020D02A462369F9
:1031100039463046C047013019D022680398E36829
:10312000920719D51A1A002A16DD04F1190900258B
:1031300004E0E36803981A1AAA420DDD01234A4607
:1031400039463046C047013005F10105F1D14FF055
:10315000FF3005B0BDE8F0839842B8BF184605B00F
:10316000BDE8F083226822F020022260102267E787
:10317000500648BF9BB25AE75106A5D5B3F90030B7
:1031800005601946A3E76168A1602D200029C3F1FD
:10319000000384F8430002DB22F004022260DFF81F
:1031A000D8C00A22754600E00B46B3FBF2F102FBE1
:1031B000113093421CF8000005F8010DF4D2082AE2
:1031C0007FF454AF2368DB077FF550AF6268236953
:1031D0009A423FF74BAF302305F8013C013D45E7EC
:1031E000002BDFD19CF8003084F8423004F1420516
:1031F00039E703686268191D01601D6800212846CF
:1032000000F0FEFA002832D0401B606020610023ED
:1032100084F8433070E72268036812F0800F03F1EE
:1032200004051AD01B6805606F290CBF08220A220A
:10323000DFF844C004E7012384F84210236104F15D
:103240004205E4E703681A68191D0123016004F1CF
:10325000420584F842202361D9E712F0400F0DBFE8
:103260001B6805601B880560DEE7198041E7606820
:10327000CCE700BF846100087061000810B5044607
:1032800082B008B18369D3B1194B9A4220D0194B4F
:103290009A4225D0184B9A4208BFE2689368013BD6
:1032A000002B93601ADA906983421BDBC8B20A28AC
:1032B00018D013685C1C1460197002B010BDCDE901
:1032C0000012FFF73BFBDDE90012094B9A42DED109
:1032D00062689368013B002B9360E4DBC8B2E8E7C7
:1032E000A268DBE7204602B0BDE81040FFF714B843
:1032F000905D0008705D0008505D00081E4B70B5C1
:103300001D6806460C460DB1AB69CBB11B4B9C4208
:103310001CD01B4B9C4225D01A4B9C4208BFEC682A
:10332000A368013B002BA36016DAA26993421BDB62
:10333000F0B20A2818D023685A1C22601E7070BD93
:103340002846FFF7FBFA0D4B9C42E2D16C68A3685C
:10335000013B002BA360E8DB23685A1C22601E702F
:10336000F0B270BDAC68DBE7224631462846BDE8C6
:103370007040FEF7D1BF00BF04000020905D000840
:10338000705D0008505D000810B50C46B1F90E10D4
:1033900000F014FB002803DB636D0344636510BD7C
:1033A000A38923F48053A38110BD00BF0020704780
:1033B0002DE9F0411646B1F90C201F46D3050C4605
:1033C0000546B1F90E1009D422F48052A2813B4681
:1033D00032462846BDE8F04100F01EB80022022324
:1033E00000F0F4F9B4F90C20B4F90E10ECE700BFCA
:1033F00010B50C46B1F90E1000F0E8F9A389421C93
:103400000EBF23F4805343F480536065A38110BD45
:10341000B1F90E1000F01EB870B50D46084C1146FB
:1034200006461A4628460023236000F0DBFB431CB7
:1034300000D070BD2368002BFBD0336070BD00BF8F
:10344000D801002008B5062000F054FB012000F050
:10345000D1FB00BF38B5074C002305460846236062
:1034600000F088FB431C00D038BD2368002BFBD044
:103470002B6038BDD801002038B50B46074C0546F7
:10348000114618460023236000F07CFB431C00D04B
:1034900038BD2368002BFBD02B6038BDD80100203D
:1034A0009368002B00F002812DE9F04FB1F90C3048
:1034B0009BB20C46190783B08246904635D52269E7
:1034C0009AB313F00202D8F800603DD00027D4F878
:1034D00028B0D4F820C0DFF8CC923D464D452B46AD
:1034E0003A4628BF4B4661465046D5B1D8470028DA
:1034F00040F3D280D8F808301B1A07442D1AC8F8B8
:103500000830002B00F0B780D4F820C0D4F828B0E1
:103510004D452B463A4628BF4B4661465046002D46
:10352000E4D1D6E900750836D8E721465046FEF7C3
:1035300053FF002840F03081B4F90C30D8F8006017
:103540009BB213F00202C1D113F0010940F0B08028
:10355000A76820684D46002D54D09A0540F1BC80E4
:10356000AF42BB4600F2E78013F4906F2FD0D4E94E
:10357000041707EB4707A0EB010B07EBD777681C95
:103580007F105844B8423A4684BF07463A465B0526
:1035900040F1E98011465046FEF706FA002800F097
:1035A000F5805A4621690190FEF7B0F8A289019B87
:1035B00022F4906242F08002A281A7EB0B0203EB9F
:1035C0000B00676123612060A2602F46AB465A461C
:1035D000494600F065F9A2682368D21B5B442F4678
:1035E000A26023600025D8F80830DB1BB944C8F876
:1035F0000830002B3FD0B4F90C30A76820689BB28C
:10360000002DAAD1D6E900950836A4E70BF10803EE
:1036100053E902679B460833002FF9D03A460A2146
:10362000304600F0EDF8002853D00130A0EB060939
:103630004B46D4E904122068BB4228BF3B4688426F
:1036400003D9A5681544AB4219DC9A427DDC1346C8
:10365000A56A216A32465046A847051E1CDDB9EB13
:1036600005096BD00120D8F808305B1B2E447F1B66
:10367000C8F8083013BB002003B0BDE8F08F314616
:103680002A4600F00DF923682B442360214650465A
:10369000FFF72AF80028E2D0B4F90C3043F04003D9
:1036A0004FF0FF30A38103B0BDE8F08F00207047DA
:1036B00033469146104617464E469B46002FA5D0EE
:1036C0000028B5D13A460A21304600F099F8002882
:1036D000ABD17B1C9946ACE72369834215D3616962
:1036E000A94212D82E4BA76A9D4294BF2B466FF079
:1036F00000434A4693FBF1F3504601FB03F3216A72
:10370000B847071EC8DDED1B6DE7AF4228BF2F4647
:103710003A46494600F0C4F8A3682268DB1B3A44E5
:10372000A3602260002BEED121465046FEF7DCFF5D
:103730000028E8D0B0E72F46AB4648E72146504680
:10374000FEF7D2FF00288ED0A6E71A463146019335
:1037500000F0A6F8019BA1682268C91A1A44A1606A
:1037600022601D467BE7504600F002F90346002820
:103770007FF423AF21695046FEF7C0F8B4F90C304E
:103780000C2223F08003CAF8002087E70C23CAF834
:103790000030B4F90C3081E74FF0FF306CE700BF28
:1037A000FEFFFF7F00FCFF7F38B5074C0023054676
:1037B0000846236000F0F6F9431C00D038BD2368AA
:1037C000002BFBD02B6038BDD801002070B50D4612
:1037D000084C114606461A4628460023236000F08E
:1037E000F1F9431C00D070BD2368002BFBD033607F
:1037F00070BD00BFD80100200000000000000000E4
:1038000001F0FF01102A2BDB10F0070F08D010F891
:10381000013B013A8B422DD010F0070F42B3F6D195
:10382000F0B441EA012141EA014122F007047FF0AE
:1038300000070023F0E80256083C85EA010586EA05
:10384000010685FA47F5A3FA87F586FA47F6A5FA41
:1038500087F68EB9EED1F0BC01F0FF0102F007024D
:1038600032B110F8013B013A83EA010313B1F8D1F8
:103870000020704701387047002D06BF35460338D9
:10388000073815F0010F07D1013015F4807F02BF12
:10389000013015F4C03F0130F0BC0138704700BF63
:1038A0008842F0B40DD98B1883420AD9841832B1FA
:1038B000224613F8014D02F8014D9942F9D1F0BCAE
:1038C00070470F2A0ED80346541E002AF7D0013441
:1038D0000C44013B11F8012B03F8012FA142F9D14F
:1038E000F0BC704740EA01039B073BD1A2F11007EF
:1038F0003F0901F1200606EB071601F1100300F164
:10390000100453F8105C44F8105C53F80C5C44F855
:103910000C5C53F8085C44F8085C53F8045C44F809
:10392000045C1033B34204F11004EAD17B1C1B0188
:1039300012F00C0F194402F00F05034415D0043D9A
:10394000AD0803EB850C1C1F0E4656F8047B44F8AB
:10395000047F6445F9D10135AD002B44294402F0C0
:103960000302B1E7541E0346B1E72A46ACE700BFA5
:1039700009B3F8B51446CAB106460D4600F0F2F890
:10398000A04202D32F463846F8BD21463046FEF706
:103990000BF807460028F6D022462946FDF7B6FE6A
:1039A00030462946FDF7AAFF3846F8BD2746FDF701
:1039B000A5FF3846F8BD1146FDF7F6BF70B50D46B8
:1039C000084C114606461A4628460023236000F09C
:1039D00001F9431C00D070BD2368002BFBD033607D
:1039E00070BD00BFD801002010B580210446FDF74E
:1039F000DBFF606440B1031F00227C3043F8042FDA
:103A00008342FBD1002010BD4FF0FF3010BD00BF3E
:103A1000436C0BB100207047E6E700BF1F2970B56B
:103A2000054608D8436C16460C464BB153F82400A3
:103A300043F8246070BD162202604FF0FF3070BD65
:103A4000FFF7D2FF08B96B6CF0E74FF0FF3070BDA5
:103A50001F2938B521D8426C05460C466AB152F888
:103A6000213053B1012B16D0591C10D0002520460F
:103A700042F824509847284638BD284600F070F890
:103A8000224601462846BDE8384000F055B81623C6
:103A90000360012038BD002038BD162303604FF0BD
:103AA000FF3038BD1F2921D838B5436C05460C4678
:103AB00083B153F8242003EB84034AB1511C10D086
:103AC000012A0CD0002520461D609047284638BDAD
:103AD000012038BDFFF788FF28B96B6CE9E70320A8
:103AE00038BD022038BD4FF0FF3038BD4FF0FF30F9
:103AF000704700BF024B01461868FFF7A9BF00BF1F
:103B000004000020024B0A4601461868FFF786BFF2
:103B100004000020034B1868436C0BB10020704771
:103B200062E700BF04000020024B01461868FFF75F
:103B3000B9BF00BF0400002038B50B46074C05464E
:103B4000114618460023236000F034F8431C00D0CF
:103B500038BD2368002BFBD02B6038BDD801002076
:103B600000F018B851F8043C181F002BBCBF0B58CC
:103B7000C0187047024B58221A604FF0FF30704750
:103B8000D8010020024B58221A604FF0FF307047D6
:103B9000D8010020024B58221A604FF0FF307047C6
:103BA000D8010020024B58221A600020704700BF45
:103BB000D8010020024B58221A604FF0FF307047A6
:103BC000D8010020024B58221A604FF0FF30704796
:103BD000D8010020024B58221A604FF0FF30704786
:103BE000D8010020024B58221A604FF0FF30704776
:103BF000D8010020FEE700BF2DE9F04FAF4D0FCDFB
:103C0000ADF5737D07AC0FC40FCD0FC40FCD0FC43E
:103C100095E8070084E807003820FDF767FD07AC4A
:103C20000546061F00F1340854F8047B3846FEF7B9
:103C3000E7F90130FDF75AFD46F8040F3946FEF763
:103C40006DF94645F0D14020FDF750FD9C4C0646ED
:103C500020606868FDF7FCFC30602668306800284A
:103C600005DA9848FDF7D0FF0020FDF707FD80003A
:103C7000FDF73CFD94497060A868DFF84C82FEF7C0
:103C80002DFA002627683B68B3421DDC9800FDF73B
:103C90002DFD8D49B860E868DFF84892DFF84CA246
:103CA000DFF84CB2FEF71AFA0026804627683B6818
:103CB000B3421CDC2869FDF7CBFC26683862336A06
:103CC000002B49DC8148CDE77F68FDF7C1FC236804
:103CD00047F826005B6853F82630002B01DC7C484F
:103CE000C0E741460020FEF7F9F90136CAE7494628
:103CF0004046FDF7A9FF50B9BB68012243F82620D2
:103D000071490020FEF7EAF901368046CEE75146B8
:103D10004046FDF799FF10B9BB680222EEE759460D
:103D20004046FDF791FF10B9BB680322E6E76949F9
:103D30004046FDF789FF10B9BB680422DEE76649FB
:103D40004046FDF781FF10B9BB680522D6E76348FE
:103D5000FDF75AFF624885E76F6962493846FDF70B
:103D600073FF98B901237362A869FDF771FCFDF731
:103D70000DF92668C6E90401E869FDF769FC2568C4
:103D8000B061AB69002B22DC57486BE757493846D6
:103D9000FDF75AFF08B90223E5E755493846FDF714
:103DA00053FF08B90323DEE74A493846FDF74CFFC5
:103DB00008B90423D7E748493846FDF745FF08B955
:103DC0000523D0E74B48FDF71FFF4B484AE7C822C1
:103DD0004A4916A8FDF79AFC1420FDF787FC0DF15F
:103DE0005808E8624FF000092820EE6AFDF77EFCD3
:103DF000474646F8090006460FCF0FC60FCF0FC63D
:103E000097E8030009F10409B9F1140F86E80300EB
:103E100008F12808E8D12E680523AB632B63042141
:103E2000B01CFDF71DFC0423036006F18043344AF7
:103E3000296A10600133074640F8231002920123DB
:103E40009E4227DA0421701CFDF70AFC4FF000099E
:103E50008046E8634E4526DA01974346B9464FF05F
:103E6000000B5E4568DA0DF5907B4FF42A72254908
:103E70005846FDF74BFC00229446CDF814B096420C
:103E8000C0F28380019B194651F8043B03930191D2
:103E9000002367E06A6802EB830252F8042C47F8BB
:103EA00023200133CCE757F8290004210130FDF726
:103EB000D7FB48F8290009F10109CBE76058000851
:103EC00060010020B05D0008DE5D0008BA5E0008F9
:103ED000E05D00081E5E0008235E00082B5E0008FF
:103EE0005F5E00080D5E00086E5F0008165E000849
:103EF000C65F0008DF5E0008135F0008A0580008D6
:103F000064010020685900081A68D9F80400039376
:103F100008210092FDF7A4FB009A039B42F82A00B7
:103F20000AF1010AD9F800205245EDDA0BF1010B34
:103F300009F10409043394E74FF0000AF2E7D8F8D6
:103F400000300499FEE802AB595801EBC001C1E909
:103F500000AB01308145F2DC009BB9F1000FA8BF36
:103F6000CC44013300930399009B994209DB0199EA
:103F7000D1F80090990004910599002001EBCC0E36
:103F8000E8E7013208F1040879E73946284600F0ED
:103F900049F900278DF81B00BE424ADB4FEA87082B
:103FA000002506E052F8083053F82500FDF7A6FB7F
:103FB00001352368DA6B029B1B6853F80830AB426B
:103FC000F0DA0137E8E750F82500FDF797FB0135F7
:103FD0002368AE42D86BF6DAFDF790FB029B1868B7
:103FE000FDF78CFB002523685A6BAA4223DC0025D1
:103FF00023689A6BAA4225DC986AFDF77FFB236849
:10400000D86AFDF77BFB23689868FDF777FB236888
:104010005868FDF773FB2068FDF770FB0DF11B027C
:104020000121722000F006FC00200DF5737DBDE833
:10403000F08F0025CCE79B6A53F82500FDF75EFB67
:104040000135D0E7DB6A53F82500FDF757FB013552
:10405000CEE700BF08B500F0B3FC00F0F1FC00F0C3
:104060002DFD00F0D5FB044A0021612000F0B6FBD5
:1040700000F03AFCFCE700BFF93B00082DE9F84FDF
:1040800081468A469B46A2F1080500240A9B9C4271
:1040900001DBBDE8F88F00220023E5E90223E700F9
:1040A000A9F1080800265E4501DB0134EEE75AF865
:1040B0002630D919D1E90001F8E90223FCF7D0FF35
:1040C00002460B46D5E90001FCF714FE0136C5E9AE
:1040D0000001E8E730B5074D0024C2E90045083982
:1040E0000023834200DB30BDF1E902450133E2E900
:1040F0000245F6E70000F03F2DE9F843114F002696
:10410000C2E900678146A1F10808144600254D4523
:1041100001DBBDE8F88358F8082FD8F804301046C2
:1041200003F10041FCF710F932463B46FCF7E2FD93
:1041300002460B4630463946FDF7BCF80135E4E946
:104140000201E4E70000F03FF8B50A4D0024C2E99F
:1041500000450746A1F1080614460025BD4200DBD4
:10416000F8BDF6E90201FCF76FF80135E4E9020158
:10417000F4E700BF0000F03F2DE9F84F0F4D002499
:10418000C2E9004582461446A1F1080B00254FF014
:1041900000084FF00009554501DBBDE8F88FFBE949
:1041A000026742464B4630463946FDF7CBF908B127
:1041B00046464F46E4E902670135ECE70000F03F70
:1041C000174B2DE9F04714460022C4E90023A1F162
:1041D00008088146C2460026002700254D4504DB1D
:1041E00000254D450FDBBDE8F087FAE90201FCF739
:1041F000ABF802460B4630463946FCF77BFD0135ED
:1042000006460F46EAE7F8E90201FCF79DF8324658
:104210003B46FDF74FF80135E4E90201E1E700BF55
:104220000000F03F2DE9F04F036891B004460A9377
:1042300002330E46184604210693FDF711FA0025B5
:104240000790069B9D4239DB04211846FDF708FACA
:1042500000258346069B9D423ADBA56B0421284638
:10426000FDF7FEF900270390BD423BDC0A9B9B0053
:1042700008935B440C93089B1F1D079B3B440D93C5
:10428000089BF31806EB070A0E935F444FF00009F2
:10429000A56B4D452FDC266A012E00F04B81DDF821
:1042A0000C804FF000094D4540F34D82B44BD8F8D7
:1042B00000A00022CDE90823002755E156F825008B
:1042C0000821FDF7CDF9079B43F825000135B8E734
:1042D00056F8250008210130FDF7C2F94BF82500FA
:1042E0000135B7E70821206AFDF7BAF9039B43F8C7
:1042F00027000137B8E709F101032A461946A1480A
:104300000B93FDF7CDFBA04ADBF800300021C3E999
:104310000012226B4FEA890802F1FF3C0025AC45F0
:1043200022DC00F0EFFB4FF0000801250A9BAB42B6
:104330002BDA00F0EEFB0D9BE16B1D680E9BDAF8AB
:10434000002008981B68009209580C9801332A46EF
:104350000068FFF793FE636A013B042B5DD8DFE83A
:1043600003F0626F767D8400E16A51F808204FEA1D
:10437000C50E7244D2E90001079A12687244C2E97C
:104380000001E3E902010135C9E7079BE16B53F83E
:104390002530049356F8252056F808300092013352
:1043A000049A51F808105BF80800FFF767FEA3684D
:1043B00053F80830013B042B2FD8DFE803F0030E3D
:1043C000161E26005BF82520049956F82500FFF7F5
:1043D00081FE013508F10408A8E75BF8252004995F
:1043E00056F82500FFF788FEF3E75BF825200499CF
:1043F00056F82500FFF7A8FEEBE75BF825200499A7
:1044000056F82500FFF7B8FEE3E75BF8252004998E
:1044100056F82500FFF7D4FEDBE75C48FDF7F4FB18
:104420000020FDF72BF93A68DAF800002946FFF77B
:1044300051FE256A00239D421EDCDDF82C9027E703
:104440003A68DAF800002946FFF756FEF1E73A68C5
:10445000DAF800002946FFF777FEEAE73A68DAF86B
:1044600000002946FFF788FEE3E73A68DAF8000023
:104470002946FFF7A5FEDCE7591C039B53F82900EA
:104480003B68CA0013441044D3E9002340E90223E7
:104490000B46D0E7039B53F82A603D4B0022D6E938
:1044A0000001FDF74FF8002841D1374B0022C6E943
:1044B00000230AF1010A5545ECDC0026B2463746D6
:1044C000BD4269DC0AEB0600FCF760FD06462846A3
:1044D0000F46FCF75BFD02460B4630463946FCF7BB
:1044E000E9FE804689460025A36BAB4200F31781A5
:1044F0000398FDF703F90024069B9C42C0F2168145
:104500005846FDF7FBF80024069B9C42C0F214813C
:104510000798FDF7F3F800221E4B40464946FCF78A
:104520009FFDFDF775F8C0B211B0BDE8F08F4246AF
:104530004B46BCE74FF0000A4FF000084FF000096F
:10454000B9E70AEBC703D3E90023CDE90423DDE98A
:104550000401DDE908230137FDF712F820B1DDE998
:104560000423CDE908230F97BE42EADC0F98FCF73D
:104570000DFD09F10109CAE9000108F1040892E6FC
:104580000000F0BF076000080000F03F2A6000084C
:104590000000E03F00005940D4E90B1303F1005242
:1045A00051F82730013A03EBC203D3E90089039B9A
:1045B00053F8271000220023D1E90001FCF7B8FFCF
:1045C000002240B1002340464946FCF7B1FF00B14C
:1045D0000136013774E7604B40464946FCF7A8FFB7
:1045E0000028F6D00AF1010AF3E704213046FDF76E
:1045F00037F847F8280008F101084645F5DCDFF8F0
:10460000589100266FF0604A4FF00008B5422CDC4C
:104610000920FDF773FA514E0125236AAB424ADAAD
:104620004F48DFF84091DFF840A1FDF7EDFAB846BA
:104630000026256AB54244DC4FF000084FF000091F
:104640000026B54255DCA06BFCF7A0FC02460B46E9
:1046500040464946FCF72EFE002680468946B54274
:1046600057DC3846FDF74AF83DE7D4E90B210AEB61
:10467000010352F8261001EBC30142464B46D1E933
:104680000001FCF735FBFCF79BFF039B049053F8FC
:10469000261042464B46D1E90001FCF729FBFCF706
:1046A0008FFF049B57F8232052F82030013342F843
:1046B00020300136AAE729463046FDF7F1F90135E9
:1046C000ABE7013631464846FDF7EAF90025236A93
:1046D000AB4205DC0A20FDF711FA08F10408A8E74F
:1046E000D8F80030504653F82510FDF7D9F90135B8
:1046F000EDE757F8263053F82600FCF747FC024652
:104700000B4640464946FCF7F5FA01368046894695
:1047100097E757F82600FCF7F1FF01369FE7039B68
:1047200053F82500FCF7EAFF0135DDE65BF82400CD
:10473000FCF7E4FF0134DFE6079B53F82400FCF7A5
:10474000DDFF0134E0E604213046FCF789FF4FF03D
:104750000008074651E700BF0000F03F6260000814
:1047600071600008BE600008CB60000810B501440D
:104770000022884201D1104610BD10F8013B534081
:10478000DBB2082413F0800F4FEA430318BF83F015
:104790004D03DBB2013C1A46F4D1EAE730B5002202
:1047A000044601238B4201D3002030BD14F8015F81
:1047B00015B99D1A85541A460133DBB2F2E710B5DC
:1047C00002780024047013468B4200D20AB91846BE
:1047D00010BDC25CC4541344DBB2F5E738B50B4DD1
:1047E0002B680F2B04DD612000F0B4F9012038BDE7
:1047F000FF2901D96220F7E70C2404FB035401339D
:104800002071C4E902122B600020F0E78400002030
:1048100008B5064A00217620FFF7E0FF044A002190
:104820007720BDE80840FFF7D9BF00BF93480008D4
:10483000B148000870B5C0B000230C468DF80210D6
:104840008DF800308DF801000DF103019C421BDC56
:10485000A11CC9B20DF10100FFF788FF0DEB0403A5
:10486000261D611DD8700025C9B268460DF8065096
:10487000FFF794FF6C4614F8010B013500F06AF95C
:10488000AE42F8DA40B070BDD05C01F8010B0133E4
:10489000DCE707B503230DF10702012172208DF833
:1048A0000730FFF7C7FF002003B05DF804FB0000EE
:1048B00030B50C4A117885B000200C24C3B28B426D
:1048C00000F1010006DB6A467220FFF7B3FF00200B
:1048D00005B030BD04AD1D4404FB03231B7905F86E
:1048E000103CEBE7840000202DE9F043C3B0002525
:1048F00002AE8DF80750344600F012F906F8010BAD
:1049000058B905238DF807300DF107020121652004
:10491000FFF790FF43B0BDE8F0830135042DEBD1E4
:1049200029462046FFF74BFF244F61783A688146BD
:104930000023B8460C20DFB2974202DB07D10123E7
:10494000E0E700FB0786013336798E42F3D1E37846
:1049500005334B4502DA0423D4E7354600F0E0F88E
:1049600060550028CDD0E3786E1C0433B342F4DAEE
:1049700000F0D6F8A0550028EDD1F6B2C9F101013A
:104980003144C9B204EB0900023EFFF718FFF1B24F
:104990000DF10900FFF7EAFE635D834201D00223B7
:1049A000B0E70C2303FB0787E278FD68A178607805
:1049B0006B44A8478DF80700A6E700BF84000020DD
:1049C00070B596B0002403264FF4A0230CA801254F
:1049D000CDE90C631094149400F0D4F80F23214611
:1049E00002A8CDE90235CDE90444069400F03AFB73
:1049F000114B5A6942F400225A615B69CDE90946BC
:104A000003F400230D4C0193019B07A94FF4C0430D
:104A10002046CDE9073500F0CBFB2A4620464FF46F
:104A2000005100F087FC2A464FF48041204600F0F8
:104A300081FC16B070BD00BF0010024000080048A5
:104A400010B54FF4C06288B00223CDE903230121E1
:104A50000323CDE90513164C07230793636943F439
:104A600000336361636903F40033019303A94FF0DA
:104A70009040019B00F09CFB0E48DFF83CC04FF4D7
:104A80006133C0E900C30023C0E9023303618361DD
:104A90000C234361A36943F48043A361A36903F436
:104AA00080430293029B00F09FFD08B010BD00BF41
:104AB000001002406801002000380140104B30B562
:104AC0005A6942F400325A615B6987B003F40033DB
:104AD0000093009B4FF480540123CDE9014300254E
:104AE000032301A94FF09040CDE9035300F060FB90
:104AF0002A4621464FF0904000F01CFC07B030BD24
:104B00000010024001224FF480514FF0904000F01D
:104B100011BC00224FF480514FF0904000F00ABCCD
:104B200037B50A4D0A4C41F2883301220DF10701D5
:104B3000284600F0DAFD18B99DF8070003B030BD33
:104B4000236A43F008032362EDE700BF68010020F9
:104B50000038014007B541F288338DF80700012283
:104B60000DF10701024800F06AFD03B05DF804FB97
:104B700068010020024B1868421C1A60704700BF91
:104B80004801002003682DE9F743D907044611D4F2
:104B900023689A0700F1868023681E0700F1F480DD
:104BA00023685D0700F13B81E269002A40F0CF8174
:104BB000002021E0B7494B6803F00C03042B07D019
:104BC0004B6803F00C03082B19D14B68DB0316D597
:104BD0004FF4003393FAA3F2096893FAA3F3B3FAFC
:104BE00083F303F01F03012202FA03F30B42CFD039
:104BF0006368002BCCD1012003B0BDE8F08362686C
:104C0000B2F5803F24D10B6843F480330B60CB6A4C
:104C1000A06823F00F030343CB624AB3FFF7AAFF58
:104C20004FF400350746012695FAA5F30A6895FA70
:104C3000A5F3B3FA83F303F01F0306FA03F3134259
:104C4000A6D1FFF797FFC01B6428EDD90320D3E757
:104C50000B6832B923F480330B600B6823F4802394
:104C6000D4E7B2F5A02FF5D143F480230B60CAE757
:104C7000FFF780FF4FF400350746012695FAA5F3AC
:104C80000A6895FAA5F3B3FA83F303F01F0306FA53
:104C900003F313423FF47CAFFFF76CFFC01B6428A3
:104CA000ECD9D3E77B494B6813F00C0F07D04B6866
:104CB00003F00C03082B21D14B68DF031ED4022321
:104CC00093FAA3F2086893FAA3F3B3FA83F303F019
:104CD0001F03012202FA03F3034202D02369934225
:104CE00089D10868F82393FAA3F3B3FA83F26369CE
:104CF000934020F0F80213430B604DE72269012531
:104D000002B395FAA5F3B3FA83F303F1845303F5E1
:104D100084139B0002261D60FFF72CFF074696FABE
:104D2000A6F30A6896FAA6F3B3FA83F303F01F0317
:104D300005FA03F31342D4D1FFF71CFFC01B02286E
:104D4000EDD983E795FAA5F3B3FA83F303F184531E
:104D500003F584139B0002261A60FFF70BFF07463A
:104D600096FAA6F30A6896FAA6F3B3FA83F303F069
:104D70001F0305FA03F313423FF40EAFFFF7FAFEE9
:104D8000C01B0228ECD961E7A269424D42480121CB
:104D900012B391FAA1F3B3FA83F303449B00022602
:104DA0001960FFF7E7FE074696FAA6F396FAA6F310
:104DB00096FAA6F36A6A96FAA6F3B3FA83F303F0B7
:104DC0001F0301FA03F313427FF4EAAEFFF7D2FEAA
:104DD000C01B0228E8D939E791FAA1F3B3FA83F3AB
:104DE00003449B0002261A60FFF7C4FE074696FAAA
:104DF000A6F396FAA6F396FAA6F36A6A96FAA6F3CB
:104E0000B3FA83F303F01F0301FA03F313423FF4F1
:104E1000C7AEFFF7AFFEC01B0228E8D916E71D4951
:104E2000CB69D80033D4CB6943F08053CB61CB69D5
:104E300003F080530193019B0125184E3368DA0576
:104E40002ED5E368012B3BD10B6A43F001030B62C3
:104E5000FFF790FE02268146B046012796FAA6F398
:104E600096FAA6F3002B6AD00A6A98FAA8F3B3FA66
:104E700083F303F01F0307FA03F3134256D0002D08
:104E80003FF492AECB6923F08053CB618CE60025D2
:104E9000D3E700BF00100240208190100070004056
:104EA000336843F480733360FFF764FE074633686A
:104EB000DB05C6D4FFF75EFEC01B6428F7D9C5E644
:104EC00033BB0B6A23F001030B620B6A23F004036C
:104ED0000B62FFF74FFE02268146B046012796FA85
:104EE000A6F396FAA6F373B30A6A98FAA8F3B3FA8C
:104EF00083F303F01F0307FA03F31342BFD0FFF756
:104F000039FE41F28833A0EB09009842E7D99DE6CB
:104F1000052B0B6A03D143F004030B6294E723F0E3
:104F200001030B620B6A23F0040390E7FFF722FEF4
:104F300041F28833A0EB090098428FD986E696FAB1
:104F4000A6F34A6A91E796FAA6F34A6ACDE743497F
:104F50004B6803F00C03082B3FF44DAE022A4FF0D0
:104F6000807354D193FAA3F3B3FA83F303F1845318
:104F700003F584139B0000221A60FFF7FBFDDFF8A6
:104F8000E08007464FF00076012596FAA6F30A68FE
:104F900096FAA6F3B3FA83F303F01F0305FA03F3BB
:104FA00013422ED1D4E908034A68034322F4741251
:104FB00013434B604FF0807393FAA3F3B3FA83F378
:104FC00003F1845303F584139B00254F1D60FFF705
:104FD000D1FD4FF000740646012594FAA4F30A6847
:104FE00094FAA4F3B3FA83F303F01F0305FA03F36F
:104FF00013427FF4DDADFFF7BDFD801BB842ECD955
:1050000024E6FFF7B7FDC01B4045BED91EE693FA64
:10501000A3F3B3FA83F303F1845303F584139B00E2
:1050200000221A60FFF7A6FD0D4F06464FF00074F0
:10503000012594FAA4F30A6894FAA4F3B3FA83F36B
:1050400003F01F0305FA03F313423FF4B1ADFFF77A
:1050500091FD801BB842ECD9F8E500BF001002407A
:10506000400D0300504AF8B5136803F007038B4264
:1050700005461BD32A68900724D4D2072AD44A4A6B
:10508000136803F007038B427AD82868430700F1BE
:10509000828010F0080014D0444A2969536823F430
:1050A000605343EAC103536000200AE0136823F011
:1050B00007030B431360136803F007038B42D9D037
:1050C0000120F8BD3948AC68436823F0F00323435E
:1050D0004360D2E76A68354C012A27D14FF4003388
:1050E00093FAA3F0206893FAA3F3B3FA83F303F0DF
:1050F0001F0302FA03F30342E2D0636823F00303C1
:105100001A436260FFF736FD6B68012B064641F2D9
:1051100088371ED1636803F00C03042BAFD0FFF770
:1051200029FD801BB842F5D90320CAE7022A0CBF2B
:105130004FF00073022393FAA3F0266893FAA3F3C7
:10514000B3FA83F303F01F03012000FA03F33342A1
:10515000D2E7022B0FD1636803F00C03082B8ED02B
:10516000FFF708FD801BB842F5D9DDE7FFF702FD28
:10517000801BB842D8D8636813F00C0FF6D17EE7D5
:10518000136823F007030B431360136803F007034E
:105190008B4295D179E7054AE968536823F4E063C7
:1051A0000B43536075E700BF00200240001002402F
:1051B0002DE9F74FD1F80080DFF874915A4A0023A7
:1051C00038FA03F402D103B0BDE8F08F012404FAE9
:1051D00003FA1AEA080500F09C804C6824F0100BD2
:1051E000BBF1020F14D14FEAD30C00EB8C0C03F08F
:1051F000070EDCF820604FEA8E0E0F2707FA0EF735
:1052000026EA07070E6906FA0EF63E43CCF8206040
:105210004FEA430E0327066807FA0EF7FF4304F030
:10522000030C3E400CFA0EFC0BF1FF3B4CEA060669
:10523000BBF1010F066011D8866806EA070BCE683D
:1052400006FA0EFC4CEA0B068660466826EA0A0A55
:10525000C4F300169E4046EA0A064660C668374018
:105260008E6806FA0EF63743E600C76051D5D9F8C6
:10527000186046F00106C9F81860D9F8186023F0E4
:10528000030707F1804706F0010607F5803701960E
:1052900003F0030E019EBE684FEA8E0E4FF00F0C16
:1052A0000CFA0EFCB0F1904F26EA0C0C33D01F4ED6
:1052B000B04232D006F58066B04230D006F5806646
:1052C000B0422ED006F58066B0420CBF04260526FB
:1052D00006FA0EF646EA0C06BE601668EF4314F4B2
:1052E000803F0CBF3E402E431660566814F4003FCA
:1052F0000CBF3E402E435660966814F4801F0CBFCE
:105300003E402E439660D668A40254BF3E402E43D2
:10531000D660013354E70026DAE70126D8E70226F3
:10532000D6E70326D4E700BF00040140000400488C
:10533000001002400AB1816170478162704700002D
:10534000014602688B6830B50D69C46910682B434B
:105350004D6920F416402B4320F00C0023430343F7
:1053600013605368C8680D6A23F4405303435360C5
:1053700090688B6920F430602B4303439360654B46
:105380009A4212D103F5584363481B6B03F00303A1
:10539000C05CB4F5004F78D1082873D8DFE800F07E
:1053A00064AD2372AD727272B5005C4B9A4225D126
:1053B00003F5E633186B00F44030B0F5803F00F0A1
:1053C000998006D80028E4D0B4F5004F5AD00120C7
:1053D00057E0B0F5003F00F09580B0F5403FF3D1C5
:1053E000B4F5004F70D149684B0803F1F47303F52D
:1053F0009043B3FBF1F300209BB23CE0484B9A4250
:105400000ED103F5E433186B00F44020B0F5802F83
:1054100070D0D7D9B0F5002F74D0B0F5402FDEE7AB
:10542000404B9A420ED103F5E233186B00F4401062
:10543000B0F5801F5ED0C5D9B0F5001F62D0B0F5C1
:10544000401FCCE7384B9A42BED103F5E033186BCE
:1054500000F44000B0F5800F4CD0B3D9B0F5000F88
:1054600050D0B0F5400FBAE749684B0803F5610327
:10547000B3FBF1F39BB223F00F01C3F342030B43E1
:10548000D36030BD01200023F5E708289FD801A391
:1054900053F820F0B9540008E1540008C95400083A
:1054A000CF530008E1540008CF530008CF53000841
:1054B000CF530008EB54000849684B0803F5E1039B
:1054C000B3FBF1F39BB2DBE749684B0803F57403C8
:1054D00003F51053B3FBF1F39BB2D3600020D0E788
:1054E00049684B0803F5E103F4E749684B0803F505
:1054F0000043EFE7B4F5004FF2D149684B0803F5DC
:10550000610376E7B4F5004FEFD149684B0803F526
:1055100080336EE700380140105C00080044004012
:1055200000480040004C004000500040F8B5069D87
:10553000044616461F462068C26931EA02030CBFC2
:1055400001220022B24201D0002014E06B1CF3D0F3
:1055500095B923681A6822F4D0721A609A6822F00A
:1055600001029A60202384F8693084F86A300023AD
:1055700084F868300320F8BDFFF7FCFAC01BA8428E
:10558000D9D9E6E737B504460021C166FFF7F2FA3C
:1055900023681B681A07054617D423681B685B0736
:1055A0000AD56FF07E43009300222B464FF4800112
:1055B0002046FFF7BBFFA0B92023002084F8693004
:1055C00084F8680084F86A300CE06FF07E43009342
:1055D0000A4603464FF400112046FFF7A7FF0028B4
:1055E000DBD0032003B030BD10B5044628B390F8DB
:1055F000693003F0FF020BB980F868202268242389
:1056000084F86930136823F0010313602046FFF724
:1056100097FE012811D023685A6822F490425A60FC
:105620009A6822F02A029A601A6842F00102204623
:105630001A60BDE81040FFF7A5BF012010BDF7B507
:105640001F4690F86930202B0D46044611464AD17A
:10565000002D46D0002A44D090F86830012B42D06B
:10566000012380F868300023C366212380F8693065
:10567000FFF780FA0646A4F85010A4F85210B4F8C8
:10568000522092B262B90097334640212046FFF77C
:105690004DFF98B9202384F8693084F868000EE043
:1056A000B4F852300097013B9BB2A4F8523000226C
:1056B000334680212046FFF739FF10B1032003B0A5
:1056C000F0BDA3682268B3F5805F07D123692BB9C9
:1056D00035F8023BC3F308031385D0E715F8013B07
:1056E000FAE70120EBE70220E9E72DE9F3419846CC
:1056F00090F86A30202B0D46044611465DD1002DEE
:1057000059D0002A57D090F86830012B55D001238A
:1057100080F8683003684FF0FF321A620023C366D6
:10572000222380F86A30FFF725FAA368A4F85810FE
:10573000B3F5805F0746A4F85A1015D123698BB9D9
:1057400040F2FF13A4F85C30B4F85C60B4F85A007F
:1057500080B280B9202384F86A3084F8680002B0EF
:10576000BDE8F081FF23EDE7002BEDD12369002B8D
:10577000F8D07F23E6E7B4F85A30CDF80080013B3B
:105780009BB2A4F85A3000223B4620212046FFF766
:10579000CDFEA0B9A2682368B2F5805F06D1226968
:1057A00022B99B8C334025F8023BCFE79B8C3340DA
:1057B00005F8013BCAE70120D1E70220CFE703202B
:1057C000CDE7000008B50A4B1968024609B9094936
:1057D00019601868694602448A4206D9FBF748FFF7
:1057E0000C2303604FF0FF3008BD1A60FCE700BFD8
:1057F00050010020E0010020002103E00B4B5B582A
:10580000435004310A480B4B42189A42F6D30A4AD5
:1058100002E0002313600432084B9A42F9D3AFF33D
:105820000080FBF73FFFFEF715FCFEE7A0610008D4
:10583000000000206800002068000020DC0100203B
:10584000FEE70000F8B500BFF8BC08BC9E467047F4
:0C585000F8B500BFF8BC08BC9E467047CD
:10586000A15F0008B15F0008B35F0008B95F0008DE
:10587000CE5F0008165E0008CB5F0008D05F00080E
:10588000D75F0008EB5F0008B75F0008F05F000813
:1058900003600008B75F000800000000000000007F
:1058A0006F1283C0CAA1F93F1CEBE2361A80184080
:1058B000728577B988EFE03F3134D769A4A5DE3F20
:1058C00000000000000000004BC8073D9B5502C0CF
:1058D000BC490C022B071DC082E2C798BBD61F40F3
:1058E000280F0BB5A679ED3F000000000000F03F47
:1058F0005F6397A8DE1AE6BF662C9ACE4E06E0BF1D
:10590000425BCEA5B8AAD6BFD94290831266DE3FCD
:10591000000000000000F03FC66D3480B740FA3F41
:1059200055C1A8A44E00114024B9FC87F49B13C0B4
:10593000EB73B515FB4B05C0000000000000F03F05
:1059400004560E2DB29D0C40158C4AEA04340340D7
:10595000C66D3480B740FE3F90149161156FE73FEC
:1059600000000000000000000AF4893C493AE73FCB
:105970000D6D00362042DC3FA779C7293A92E9BF76
:10598000EDD632198EE7833FB83EAC376A85DC3FEF
:105990008CF4A276BF0AE3BFCD57C9C7EE02D0BFD1
:1059A000E3512AE109BDCA3F8A5B0531D0B5D13F39
:1059B000884677103B53C83F1A14CD0358E4A7BF5D
:1059C00009F9A067B36AE83F310A82C7B777CBBF4E
:1059D000CC96AC8A7093D9BFB950F9D7F2CAE7BF59
:1059E0009544F6419685E73F8EACFC321823CA3FBA
:1059F000AAD72D02637DE0BF8AE942ACFE88E43F6E
:105A0000F8E28BF67821D1BF81CB63CDC820873FE8
:105A10006F46CD57C9C7CE3FFAB836548CF3DC3F3A
:105A20000F43AB933314C33F842C0B26FE28DEBFF9
:105A3000F8FC304278B4E23F344C6DA983BCCABF55
:105A4000B3976DA7AD11D6BFC05FCC96AC8AC43FEB
:105A500014048F6FEF1AA43F4791B58652FBE53FC0
:105A600008C89750C1E1B13F62D8614CFA7BD5BFFD
:105A7000B01EF7ADD689E63FB34291EEE794E7BF9B
:105A8000E5D3635B069CE6BFECDCB419A7A1E6BFD7
:105A9000289EB30584D6C5BF478FDFDBF467D43FAC
:105AA000D1AFAD9FFEB3D83FF81C588E9081E9BFAF
:105AB000AE105663096BE1BFC493DDCCE847D53F18
:105AC000D061BEBC00FBC8BF11548D5E0D50C0BF7D
:105AD0007100FDBE7FF3D93FAFCDC64ACCB3D1BF75
:105AE000DA3C0E83F9ABE7BF88BB7A15199DE63F18
:105AF000807D74EACA67DBBF4CC45BE7DF2EC7BF9B
:105B0000BAD91F28B7EDB7BF95D39E927362E23F13
