:020000040800F2
:1000000000A00020C52700080D2800080D280008C2
:100010000D2800080D2800080D2800080000000029
:100020000000000000000000000000000D28000893
:100030000D280008000000000D2800080D28000809
:1000400000000000000000000000000000000000B0
:1000500000000000000000000000000000000000A0
:100060000000000000000000000000000000000090
:100070000000000000000000000000000000000080
:100080000000000000000000000000000000000070
:100090000000000000000000000000000000000060
:1000A0000000000000000000000000000000000050
:1000B0000000000000000000000000000000000040
:1000C0000000000000000000000000000000000030
:1000D0000000000000000000000000000000000020
:1000E0000000000000000000000000000000000010
:1000F0000000000000000000000000000000000000
:1001000000000000000000000000000000000000EF
:1001100000000000000000000000000000000000DF
:1001200000000000000000000000000000000000CF
:1001300000000000000000000000000000000000BF
:1001400000000000000000000000000000000000AF
:10015000000000000000000000000000000000009F
:10016000000000000000000000000000000000008F
:10017000000000000000000000000000000000007F
:08018000000000000000000077
:1001900010B5054C237833B9044B13B10448AFF3C1
:1001A00000800123237010BD6800002000000000C3
:1001B000C046000808B5034B1BB103490348AFF321
:1001C000008008BD000000006C000020C046000850
:1001D00081F0004102E000BF83F0004330B54FEAF8
:1001E00041044FEA430594EA050F08BF90EA020F65
:1001F0001FBF54EA000C55EA020C7FEA645C7FEAF8
:10020000655C00F0E2804FEA5454D4EB5555B8BF1A
:100210006D420CDD2C4480EA020281EA030382EA8B
:10022000000083EA010180EA020281EA0303362D1D
:1002300088BF30BD11F0004F4FEA01314FF4801CF0
:100240004CEA113102D0404261EB410113F0004F02
:100250004FEA03334CEA133302D0524263EB4303B9
:1002600094EA050F00F0A780A4F10104D5F1200E57
:100270000DDB02FA0EFC22FA05F2801841F10001B2
:1002800003FA0EF2801843FA05F359410EE0A5F186
:1002900020050EF1200E012A03FA0EFC28BF4CF0B7
:1002A000020C43FA05F3C01851EBE37101F000456D
:1002B00007D54FF0000EDCF1000C7EEB00006EEB7A
:1002C0000101B1F5801F1BD3B1F5001F0CD3490804
:1002D0005FEA30004FEA3C0C04F101044FEA44525B
:1002E00012F5800F80F09A80BCF1004F08BF5FEAE2
:1002F000500C50F1000041EB045141EA050130BDC2
:100300005FEA4C0C404141EB0101013C28BFB1F5D3
:10031000801FE9D291F0000F04BF01460020B1FA1E
:1003200081F308BF2033A3F10B03B3F120020CDAF1
:100330000C3208DD02F1140CC2F10C0201FA0CF0CF
:1003400021FA02F10CE002F11402D8BFC2F1200C34
:1003500001FA02F120FA0CFCDCBF41EA0C019040EA
:10036000E41AA2BF01EB0451294330BD6FEA040433
:100370001F3C1CDA0C340EDC04F11404C4F120021E
:1003800020FA04F001FA02F340EA030021FA04F330
:1003900045EA030130BDC4F10C04C4F1200220FA87
:1003A00002F001FA04F340EA0300294630BD21FAC5
:1003B00004F0294630BD94F0000F83F4801306BF8B
:1003C00081F480110134013D4EE77FEA645C18BF7F
:1003D0007FEA655C29D094EA050F08BF90EA020F16
:1003E00005D054EA000C04BF1946104630BD91EA0E
:1003F000030F1EBF0021002030BD5FEA545C05D111
:100400004000494128BF41F0004130BD14F580044F
:100410003CBF01F5801130BD01F0004545F0FE41C3
:1004200041F470014FF0000030BD7FEA645C1ABFF8
:10043000194610467FEA655C1CBF0B46024650EA2F
:10044000013406BF52EA033591EA030F41F400215B
:1004500030BD00BF90F0000F04BF0021704730B5E1
:100460004FF4806404F132044FF000054FF00001B6
:1004700050E700BF90F0000F04BF0021704730B577
:100480004FF4806404F1320410F0004548BF40424C
:100490004FF000013EE700BF42004FEAE2014FEAA1
:1004A00031014FEA02701FBF12F07F4393F07F4F7C
:1004B00081F06051704732F07F4208BF704793F07F
:1004C0007F4F04BF41F40021704730B54FF4607492
:1004D00001F0004521F000411CE700BF50EA010295
:1004E00008BF704730B54FF000050AE050EA01023E
:1004F00008BF704730B511F0004502D5404261EBAE
:1005000041014FF4806404F132045FEA915C3FF4EE
:10051000D8AE4FF003025FEADC0C18BF03325FEA8B
:10052000DC0C18BF033202EBDC02C2F1200300FA3C
:1005300003FC20FA02F001FA03FE40EA0E0021FA61
:1005400002F11444BDE600BF70B54FF0FF0C4CF44F
:10055000E06C1CEA11541DBF1CEA135594EA0C0F01
:1005600095EA0C0F00F0DEF82C4481EA030621EA3C
:100570004C5123EA4C5350EA013518BF52EA033577
:1005800041F4801143F4801338D0A0FB02CE4FF029
:100590000005E1FB02E506F00042E0FB03E54FF059
:1005A0000006E1FB03569CF0000F18BF4EF0010E51
:1005B000A4F1FF04B6F5007F64F5407404D25FEA4D
:1005C0004E0E6D4146EB060642EAC62141EA555100
:1005D0004FEAC52040EA5E504FEACE2EB4F1FD0C42
:1005E00088BFBCF5E06F1ED8BEF1004F08BF5FEAC0
:1005F000500E50F1000041EB045170BD06F0004672
:1006000046EA010140EA020081EA0301B4EB5C041E
:10061000C2BFD4EB0C0541EA045170BD41F4801116
:100620004FF0000E013C00F3AB8014F1360FDEBF3B
:10063000002001F0004170BDC4F10004203C35DA17
:100640000C341BDC04F11404C4F1200500FA05F39A
:1006500020FA04F001FA05F240EA020001F000423B
:1006600021F0004110EBD37021FA04F642EB0601B1
:100670005EEA430E08BF20EAD37070BDC4F10C04DB
:10068000C4F1200500FA04F320FA05F001FA04F29F
:1006900040EA020001F0004110EBD37041F100018B
:1006A0005EEA430E08BF20EAD37070BDC4F1200596
:1006B00000FA05F24EEA020E20FA04F301FA05F2FE
:1006C00043EA020321FA04F001F0004121FA04F2A6
:1006D00020EA020000EBD3705EEA430E08BF20EA76
:1006E000D37070BD94F0000F0FD101F000464000B0
:1006F00041EB010111F4801F08BF013CF7D041EA32
:10070000060195F0000F18BF704703F00046520035
:1007100043EB030313F4801F08BF013DF7D043EA06
:100720000603704794EA0C0F0CEA135518BF95EABC
:100730000C0F0CD050EA410618BF52EA4306D1D143
:1007400081EA030101F000414FF0000070BD50EA62
:10075000410606BF1046194652EA430619D094EAEC
:100760000C0F02D150EA013613D195EA0C0F05D1D6
:1007700052EA03361CBF104619460AD181EA03012A
:1007800001F0004141F0FE4141F470014FF00000E2
:1007900070BD41F0FE4141F4780170BD70B54FF07D
:1007A000FF0C4CF4E06C1CEA11541DBF1CEA1355FD
:1007B00094EA0C0F95EA0C0F00F0A7F8A4EB0504DF
:1007C00081EA030E52EA03354FEA013100F08880D6
:1007D0004FEA03334FF0805545EA131343EA12639F
:1007E0004FEA022245EA111545EA10654FEA002654
:1007F0000EF000419D4208BF964244F1FD0404F50D
:10080000407402D25B084FEA3202B61A65EB030568
:100810005B084FEA32024FF480104FF4002CB6EB25
:10082000020E75EB030E22BFB61A754640EA0C00A5
:100830005B084FEA3202B6EB020E75EB030E22BFE5
:10084000B61A754640EA5C005B084FEA3202B6EB26
:10085000020E75EB030E22BFB61A754640EA9C00E5
:100860005B084FEA3202B6EB020E75EB030E22BFB5
:10087000B61A754640EADC0055EA060E18D04FEA73
:10088000051545EA16754FEA06164FEAC30343EA13
:1008900052734FEAC2025FEA1C1CC0D111F4801FE0
:1008A0000BD141EA00014FF000004FF0004CB6E7D9
:1008B00011F4801F04BF01430020B4F1FD0C88BF78
:1008C000BCF5E06F3FF6AFAEB5EB030C04BFB6EB83
:1008D000020C5FEA500C50F1000041EB045170BD76
:1008E0000EF0004E4EEA113114EB5C04C2BFD4EBA3
:1008F0000C0541EA045170BD41F480114FF0000E27
:10090000013C90E645EA060E8DE60CEA135594EAA2
:100910000C0F08BF95EA0C0F3FF43BAF94EA0C0FA5
:100920000AD150EA01347FF434AF95EA0C0F7FF41A
:1009300025AF104619462CE795EA0C0F06D152EA6E
:1009400003353FF4FDAE1046194622E750EA410652
:1009500018BF52EA43067FF4C5AE50EA41047FF463
:100960000DAF52EA43057FF4EBAE12E74FF0FF3CC8
:1009700006E000BF4FF0010C02E000BF4FF0010C99
:100980004DF804CD4FEA410C7FEA6C5C4FEA430C12
:1009900018BF7FEA6C5C1BD001B050EA410C0CBF61
:1009A00052EA430C91EA030F02BF90EA020F0020C3
:1009B000704710F1000F91EA030F58BF994208BF2A
:1009C00090422CBFD8176FEAE37040F001007047E7
:1009D0004FEA410C7FEA6C5C02D150EA013C07D13E
:1009E0004FEA430C7FEA6C5CD6D152EA033CD3D089
:1009F0005DF8040B704700BF8446104662468C4683
:100A00001946634600E000BF01B5FFF7B7FF0028B5
:100A100048BF10F1000F01BD4DF808EDFFF7F4FFDE
:100A20000CBF012000205DF808FB00BF4DF808ED69
:100A3000FFF7EAFF34BF012000205DF808FB00BF8C
:100A40004DF808EDFFF7E0FF94BF012000205DF8AE
:100A500008FB00BF4DF808EDFFF7CEFF94BF012063
:100A600000205DF808FB00BF4DF808EDFFF7C4FF5C
:100A700034BF012000205DF808FB00BF4FEA4102AF
:100A800012F5001215D211D56FF47873B3EB6252E0
:100A900012D94FEAC12343F0004343EA505311F007
:100AA000004F23FA02F018BF404270474FF0000099
:100AB000704750EA013005D111F0004008BF6FF0D7
:100AC000004070474FF00000704700BF4A0011D24D
:100AD00012F5001211D20DD56FF47873B3EB625298
:100AE0000ED44FEAC12343F0004343EA505323FAA4
:100AF00002F070474FF00000704750EA013002D119
:100B00004FF0FF3070474FF00000704710F8012B96
:100B100011F8013B012A28BF9A42F7D0D01A70473A
:100B2000034613F8012B002AFBD1181A013870472D
:100B300001F0FF01102A2BDB10F0070F08D010F88E
:100B4000013B013A8B422DD010F0070F42B3F6D192
:100B5000F0B441EA012141EA014122F007047FF0AB
:100B600000070023F0E80256083C85EA010586EA02
:100B7000010685FA47F5A3FA87F586FA47F6A5FA3E
:100B800087F68EB9EED1F0BC01F0FF0102F007024A
:100B900032B110F8013B013A83EA010313B1F8D1F5
:100BA0000020704701387047002D06BF35460338D6
:100BB000073815F0010F07D1013015F4807F02BF0F
:100BC000013015F4C03F0130F0BC0138704700BF60
:100BD0002DE9F04FAC4D0FCDADF5717D05AC0FC4D7
:100BE0000FCD0FC40FCD0FC495E8070084E80700B0
:100BF000382002F06BFB05AC0546061F00F13408F7
:100C000054F8047B3846FFF78BFF013002F05EFB9F
:100C100046F8040F394602F0E3FC4645F0D1402087
:100C200002F054FB994C06462060686802F004FB11
:100C3000306026683068002805DA954802F0B8FC74
:100C4000002002F00BFB800002F040FB9149706035
:100C5000A868DFF8408202F0CBFC002627683B68DA
:100C6000B3421CDC980002F031FB8A49B860E868A6
:100C7000DFF824A2DFF824B202F0BAFC0026814695
:100C8000B04627683A6842451CDC286902F0D4FA6D
:100C900026683862336A002B4ADC8148CEE77F68D9
:100CA00002F0CAFA236847F826005B6853F826303A
:100CB000002B01DC7B48C1E74146002002F098FC94
:100CC0000136CBE778494846FFF720FF58B9BB68A3
:100CD00001229A516F49002002F08AFC08F10108B4
:100CE00081460436CDE751464846FFF70FFF10B95D
:100CF000BB680222EDE759464846FFF707FF10B9E7
:100D0000BB680322E5E769494846FFF7FFFE10B9D3
:100D1000BB680422DDE766494846FFF7F7FE10B9D5
:100D2000BB680522D5E7634802F042FC624885E7CC
:100D30006F695D493846FFF7E9FE98B90123736290
:100D4000A86902F079FAFFF795FB2668C6E9040165
:100D5000E86902F071FA2568B061AB69002B22DC0A
:100D600056486BE74C493846FFF7D0FE08B90223D6
:100D7000E5E74A493846FFF7C9FE08B90323DEE72D
:100D80004A493846FFF7C2FE08B90423D7E7484965
:100D90003846FFF7BBFE08B90523D0E7484802F004
:100DA00007FC48484AE74849C82214A802F09EFABE
:100DB000142002F08BFA0DF15008E8624FF00009A0
:100DC0002820EF6A02F082FA47F8090047460646F3
:100DD0000FCF0FC60FCF0FC697E8030009F1040924
:100DE000B9F1140F86E8030008F12808E8D12F684C
:100DF0000523AB632B630421B81C02F021FA042302
:100E0000036007F1804301332A6A40F82320064635
:100E1000606001239F4222DA0421781C02F010FA5C
:100E20004FF000098046E8634F4521DAB146B346EA
:100E30004FF0000A574562DA0DF58C7A23494FF4DA
:100E40002A72504602F052FA00239C46CDF80CA0BC
:100E50009F427ADB59F8042B0292002265E06A680F
:100E600002EB830252F8042C46F823200133D1E729
:100E700056F829000421013002F0E2F948F829006F
:100E800009F10109D0E700BFD8460008840000201E
:100E9000F94A0008274B0008B54A0008B04A000884
:100EA000FB4B0008294B0008564B00085F4B00081D
:100EB000644B00086C4B0008A04B0008AF4C0008C6
:100EC000204C0008544C000818470008E047000870
:100ED00058F82A20DBF8040001930821009202F060
:100EE000AFF9DDE9002342F823000133DBF80020ED
:100EF0009A42EDDA0AF1010A0BF1040B9AE700239A
:100F0000F4E70199F1E802AB019158F8231051F888
:100F10000E1001EBC001C1E900AB01300099814224
:100F2000EFDC0029A8BF8C440132029991420ADB10
:100F3000D9F80010009191008E46039901EBCC0185
:100F400001910020EAE7013382E73146284600F0AC
:100F500051F90026B74242DB4FEA8608002506E039
:100F600052F8083053F8250002F0B8F9013523682B
:100F7000DA6B636853F80830AB42F1DA0136E9E71F
:100F800050F8250002F0AAF901352368AF42D86B6A
:100F9000F6DA02F0A3F9606802F0A0F900252368F0
:100FA0005A6BAA421DDC002523689A6BAA421FDCFB
:100FB000986A02F093F92368D86A02F08FF92368DF
:100FC000986802F08BF92368586802F087F9206866
:100FD00002F084F900200DF5717DBDE8F08F002549
:100FE000D3E79B6A53F8250002F078F90135D6E77C
:100FF000DB6A53F8250002F071F90135D4E700BF30
:1010000007B500F0CBFC00F009FD00F045FD00F055
:10101000EFFB084A0021612000F0D0FB2A230DF1EC
:101020000702012172208DF8073000F0F3FB00F079
:1010300047FCFCE7D10B00082DE9F84F074688462E
:101040009946A2F1080400250A9B9D4201DBBDE8F8
:10105000F88F00220023E4E902234FEAC50BA7F131
:10106000080A00264E4501DB0135EDE758F8263029
:1010700003EB0B01D1E90001FAE90223FFF764FA5F
:1010800002460B46D4E90001FFF7A8F80136C4E98F
:101090000001E7E730B5074D0024C2E900450839F3
:1010A0000023834200DB30BDF1E902450133E2E970
:1010B0000245F6E70000F03F2DE9F843124F002605
:1010C000C2E9006780461446A1F108054FF0000907
:1010D000C14501DBBDE8F88355F8082F6B68104661
:1010E00003F1004101F018FC32463B46FFF776F869
:1010F00002460B4630463946FFF750FB09F101091D
:10110000E4E90201E4E700BF0000F03FF8B50A4B54
:1011100014460022C4E900230646A1F10805002771
:10112000B74200DBF8BDF5E9020101F071FB0137C0
:10113000E4E90201F4E700BF0000F03F2DE9F84FB9
:10114000104B14460022C4E900238246A1F1080591
:101150004FF0000B4FF000084FF00009D34501DBC2
:10116000BDE8F88FF5E9026742464B4630463946FE
:10117000FFF75CFC08B146464F46E4E902670BF115
:10118000010BEBE70000F03F194B2DE9F047144647
:101190000022C4E90023A1F108058046AA460026E2
:1011A00000274FF00009C14505DB4FF00009C1459C
:1011B00010DBBDE8F087FAE9020101F0ADFB024661
:1011C0000B4630463946FFF709F809F10109064692
:1011D0000F46E8E7F5E9020101F09EFB32463B4687
:1011E000FFF7DCFA09F10109E4E90201DFE700BFDA
:1011F0000000F03F2DE9F04F036893B004460893D8
:101200000233894618460421049302F019F8002598
:101210000590049B9D423CDB0421184602F010F827
:1012200000250390049B9D423DDBA56B04212846CD
:1012300002F006F800260290B5423FDC089B089AAF
:101240009B000993039B03EB82030B93099B1E1DD9
:10125000059B33440C93099B4B440D93039B09EB73
:10126000060B4FF0000A1E44A56BAA452FDB266A29
:10127000012E4FF0000A00F04781554540F354829B
:10128000029B53F82AB0A44B0022CDE90623002785
:101290005DE159F82500082101F0D2FF059B43F8D4
:1012A00025000135B5E759F825000821013001F086
:1012B000C7FF039B43F825000135B3E7206A0821E7
:1012C00001F0BEFF029B43F826000136B4E70AF1A5
:1012D00001032A46194691480F9302F0CFF8039B69
:1012E000276B1D688E4B0022C5E90023013F4FEAA2
:1012F0008A0C00239F4224DC00F0F2FB039F4D4642
:1013000001230693069A089B93422BDA00F0EFFB29
:101310000C9BE16B1D680D9BDBF8002009981B6896
:10132000009209580B98013300682A46FFF784FEA3
:10133000636A013B042B55D8DFE803F05A676E75EA
:101340007C00E26A52F80C2002EBC302D2E90001F1
:10135000059A126802EBC302C2E90001E5E9020145
:101360000133C7E7069BE16B9B00043B0A93DDE971
:1013700005320A9853F822802B6855F8042F009202
:10138000095857F8040B01334246FFF755FEA3688E
:101390000A9A9B58013B042B24D8DFE803F0030B87
:1013A00011171D003A6828684146FFF773FE069B37
:1013B0000133A6E73A6828684146FFF77DFEF6E765
:1013C0003A6828684146FFF7A1FEF0E73A682868C6
:1013D0004146FFF7B3FEEAE73A6828684146FFF75F
:1013E000D3FEE4E74F4802F0E3F8002001F036FFB7
:1013F0003268DBF800002946FFF74CFE256A002121
:101400008D421EDCDDF83CA02EE73268DBF80000E0
:101410002946FFF751FEF1E73268DBF80000294664
:10142000FFF774FEEAE73268DBF800002946FFF7B1
:1014300085FEE3E73268DBF800002946FFF7A4FEEB
:10144000DCE7029B53F82A00336803EBC103D3E9BE
:10145000022300EBC100C0E900230131D0E7029B69
:1014600053F82AB03246DBE900013B46FFF7DEFACB
:10147000002846D142464B46CBE900230AF1010A37
:101480005545ECDC0026B24637466FF0604BBD4256
:1014900067DC0AEB0600FEF7EDFF064628460F461E
:1014A000FEF7E8FF02460B4630463946FFF776F96D
:1014B00000221D4BFFF748F8FFF708FB0DF147022C
:1014C0008DF847000121722000F0A4F90025A36BDC
:1014D000AB4200F31481029801F000FF0024049B4A
:1014E0009C42C0F21381039801F0F8FE0024049B93
:1014F0009C42C0F21281059813B0BDE8F04F01F094
:10150000EDBE00220023B7E7084FDFF81490002655
:101510004FF00008B4E700BF0000F0BFE24C000845
:101520000000F03F054D0008000059400000E03F7A
:101530000BEBC703D3E90089DDE9062340464946A2
:101540000137FFF791FA10B1CDE906890E97BE4237
:10155000EEDC0E98FEF78EFF0AF1010ACBE90001DE
:101560008BE6D4E90B130BEB030251F8273003EBA6
:10157000C203D3E90089029B53F827100022D1E966
:1015800000010023FFF748FA002240B10023404643
:101590004946FFF741FA00B10136013777E7664B5C
:1015A00040464946FFF738FA0028F6D00AF1010A0A
:1015B000F3E70421304601F043FE47F8280008F124
:1015C00001084645F5DCDFF8709100266FF0604BAE
:1015D0004FF00008B5423ADC092001F067FF574E92
:1015E0000125236AAB4257DA5548564DDFF858912A
:1015F00001F0DEFF4FF0000AA7F10408266A564505
:1016000050DC4FF000084FF000090025AE4260DCCE
:10161000A06BFEF72FFF02460B4640464946FFF7F8
:10162000BDF84A4B0022FEF78FFFFFF74FFA0DF18E
:1016300047028DF847000121722000F0EBF80025E9
:10164000236AAB4255DC384601F048FE3EE7D4E958
:101650000B210BEB010352F8261001EBC3014246AC
:101660004B46D1E90001FEF7B7FDFFF707FA029BF1
:1016700053F8261042464B468246D1E90001FEF758
:10168000ABFDFFF7FBF957F82A2052F82030013361
:1016900042F8203001369DE72946304601F0EEFE43
:1016A00001359EE70AF1010A5146284601F0E6FE9F
:1016B0000026236AB34203DC0A2001F0F7FE9DE70F
:1016C00058F82A30484653F8261001F0D7FE013664
:1016D000EFE757F8253053F82500FEF7CBFE02461A
:1016E0000B4640464946FEF779FD0135804689465E
:1016F0008CE757F8250001F0F1FD0135A0E7029BCA
:1017000053F8250001F0EAFD0135E0E6039B53F8AC
:10171000240001F0E3FD0134E1E6059B53F82400C9
:1017200001F0DCFD0134E2E60421304601F088FDE1
:101730004FF00008074644E70000F03F3D4D000829
:101740004C4D0008994D0008A64D00080000594076
:101750000346014400208B4200D1704713F8012B4F
:101760005040082210F0800F4FEA400018BF80F070
:101770004D00013AC0B2F5D1EDE730B50022044684
:1017800001238B4201D3002030BD14F8015F15B94D
:101790009D1A85541A460133DBB2F2E710B5027880
:1017A0000024034604701046884200D202B910BDDE
:1017B0001A5C1C541044C0B2F6E7000038B50B4D5B
:1017C0002B680F2B04DD612000F0B2F9012038BD39
:1017D000FF2901D96220F7E70C2404FB03540133ED
:1017E0002071C4E902122B600020F0E78C00002079
:1017F00008B5064A00217620FFF7E0FFBDE8084063
:10180000034A00217720FFF7D9BF00BF6B180008FB
:101810008918000870B5C0B00C46002511468DF837
:10182000010022460DF103008DF802408DF80050B2
:1018300001F05CFDA11CC9B20DF10100FFF788FFAA
:101840000DEB0403261D611DD870C9B268460DF862
:101850000650FFF792FF6C4614F8010B013500F0BB
:1018600067F9AE42F8DA40B070BD07B503230DF159
:101870000702012172208DF80730FFF7CBFF00200F
:1018800003B05DF804FB000030B50C48017885B06A
:1018900000220C24D3B28B4202F1010206DB6A461D
:1018A0007220FFF7B7FF002005B030BD04AD1D4426
:1018B00004FB03031B7905F8103CEBE78C000020C8
:1018C0002DE9F047C2B0002502AE8DF8075034462E
:1018D00000F014F906F8010B58B905238DF807300C
:1018E0000DF1070201216520FFF794FF42B0BDE82A
:1018F000F0870135042DEBD129462046FFF74EFF36
:10190000254F61783A68804600230C205FFA83F9FE
:10191000914502DB07D10123E0E700FB09760133A3
:1019200036798E42F2D1E3780533434502DA042357
:10193000D4E7354600F0E2F860550028CDD0E378D2
:101940006E1C0433B342F4DA00F0D8F8A055002836
:10195000EDD1C8F1010151FA86F1C9B25FFA86FAF8
:1019600004EB0800FFF71AFFAAF10201C9B20DF15A
:101970000900FFF7EDFE635D834201D00223ADE76E
:101980000C2303FB0977E278FD68A17860786B444B
:10199000A8478DF80700A3E78C00002070B596B02B
:1019A000002403264FF4A0230CA80125CDE90C63E5
:1019B0001094149400F0D4F80F23214602A8CDE926
:1019C0000235CDE90444069400F038FB114B5A6906
:1019D00042F400225A615B69CDE9094603F4002311
:1019E0000D4C0193019B07A94FF4C0432046CDE95C
:1019F000073500F0C9FB2A4620464FF4005100F09D
:101A000087FC2A464FF48041204600F081FC16B046
:101A100070BD00BF001002400008004810B54FF430
:101A2000C06288B00223CDE9032301210323CDE95D
:101A30000513164C07230793636943F4003363616E
:101A4000636903F40033019303A94FF09040019BB5
:101A500000F09AFB0E48DFF83CC04FF46133C0E958
:101A600000C30023C0E90233036183610C23436197
:101A7000A36943F48043A361A36903F48043029301
:101A8000029B00F099FD08B010BD00BF001002409D
:101A90005001002000380140104B30B55A6942F423
:101AA00000325A615B6987B003F400330093009BF6
:101AB0004FF480540123CDE901430025032301A9FC
:101AC0004FF09040CDE9035300F05EFB2A462146DB
:101AD0004FF0904000F01CFC07B030BD00100240F9
:101AE00001224FF480514FF0904000F011BC0022D1
:101AF0004FF480514FF0904000F00ABC37B50A4DCA
:101B00000A4C41F2883301220DF10701284600F00A
:101B1000D4FD18B99DF8070003B030BD236A43F027
:101B200008032362EDE700BF5001002000380140A8
:101B300007B541F288338DF8070001220DF1070146
:101B4000024800F064FD03B05DF804FB5001002082
:101B5000024B1868421C1A60704700BFC001002089
:101B600003682DE9F341D907044611D423689A0785
:101B700000F1868023681E0700F1F48023685D076A
:101B800000F14081E269002A40F0CB81002021E091
:101B90009A494B6803F00C03042B07D04B6803F001
:101BA0000C03082B19D14B68DB0316D54FF4003317
:101BB00093FAA3F2096893FAA3F3B3FA83F303F059
:101BC0001F03012202FA03F30B42CFD06368002BFC
:101BD000CCD1012002B0BDE8F0816268B2F5803F4F
:101BE00024D10B6843F480330B60CB6AA06823F0E8
:101BF0000F030343CB624AB3FFF7AAFF4FF400364B
:101C00000546012796FAA6F30A6896FAA6F3B3FAF0
:101C100083F303F01F0307FA03F31342A6D1FFF780
:101C200097FF401B6428EDD90320D3E70B6832B936
:101C300023F480330B600B6823F48023D4E7B2F5E0
:101C4000A02FF5D143F480230B60CAE7FFF780FF94
:101C50004FF400360546012796FAA6F30A6896FA6D
:101C6000A6F3B3FA83F303F01F0307FA03F3134257
:101C70003FF47CAFFFF76CFF401B6428ECD9D3E73F
:101C80005E494B6813F00C0F07D04B6803F00C0350
:101C9000082B21D14B68DF031ED4022393FAA3F251
:101CA000086893FAA3F3B3FA83F303F01F03012246
:101CB00002FA03F3034202D02369934289D10868F0
:101CC000F82393FAA3F3B3FA83F26369934020F005
:101CD000F80213430B604DE72269012502B395FA20
:101CE000A5F3B3FA83F303F1845303F584139B0044
:101CF00002271D60FFF72CFF064697FAA7F30A6834
:101D000097FAA7F3B3FA83F303F01F0305FA03F37B
:101D10001342D4D1FFF71CFF801B0228EDD983E7C3
:101D200095FAA5F3B3FA83F303F1845303F584130F
:101D30009B0002271A60FFF70BFF064697FAA7F3EE
:101D40000A6897FAA7F3B3FA83F303F01F0305FABF
:101D500003F313423FF40EAFFFF7FAFE801B022895
:101D6000ECD961E7A269254D2548012112B391FA0A
:101D7000A1F3B3FA83F303449B0002261960FFF733
:101D8000E7FE074696FAA6F396FAA6F396FAA6F3A6
:101D90006A6A96FAA6F3B3FA83F303F01F0301FA13
:101DA00003F313427FF4EAAEFFF7D2FEC01B022812
:101DB000E8D939E791FAA1F3B3FA83F303449B001E
:101DC00002261A60FFF7C4FE074696FAA6F396FAB3
:101DD000A6F396FAA6F36A6A96FAA6F3B3FA83F321
:101DE00003F01F0301FA03F313423FF4C7AEFFF7FA
:101DF000AFFEC01B0228E8D916E700BF0010024062
:101E0000208190108A49CB69D80033D4CB6943F044
:101E10008053CB61CB6903F080530193019B012573
:101E2000844E3368DA0527D5E368012B34D10B6A79
:101E300043F001030B62FFF78BFE022607464FF0CB
:101E4000010896FAA6F396FAA6F3002B61D00A6A67
:101E500096FAA6F3B3FA83F303F01F0308FA03F329
:101E600013424ED0002D3FF48DAECB6923F080534A
:101E7000CB6187E60025D3E7336843F48073336092
:101E8000FFF766FE07463368DB05CDD4FFF760FE3B
:101E9000C01B6428F7D9C7E62BBB0B6A23F00103EC
:101EA0000B620B6A23F004030B62FFF751FE02265C
:101EB00007464FF0010896FAA6F396FAA6F363B325
:101EC0000A6A96FAA6F3B3FA83F303F01F0308FA3B
:101ED00003F31342C6D0FFF73BFE41F28833C01B29
:101EE0009842E8D9A0E6052B0B6A03D143F004031E
:101EF0000B629CE723F001030B620B6A23F00403DF
:101F000098E7FFF725FE41F28833C01B984298D925
:101F10008AE696FAA6F34A6A9AE796FAA6F34A6A16
:101F2000CFE743494B6803F00C03082B3FF451AE55
:101F3000022A4FF0807354D193FAA3F3B3FA83F3D8
:101F400003F1845303F584139B0000221A60FFF70A
:101F5000FFFDDFF8E48006464FF00077012597FA91
:101F6000A7F30A6897FAA7F3B3FA83F303F01F0302
:101F700005FA03F313422ED1D4E908034A68034358
:101F800022F4741213434B604FF0807393FAA3F35F
:101F9000B3FA83F303F1845303F584139B00264FB4
:101FA0001D60FFF7D5FD4FF000750446012695FA38
:101FB000A5F30A6895FAA5F3B3FA83F303F01F03B8
:101FC00006FA03F313427FF4E1ADFFF7C1FD001BF6
:101FD000B842ECD928E6FFF7BBFD801B4045BED9CF
:101FE00022E693FAA3F3B3FA83F303F1845303F5E0
:101FF00084139B0000221A60FFF7AAFD0E4F0446CF
:102000004FF00075012695FAA5F30A6895FAA5F335
:10201000B3FA83F303F01F0306FA03F313423FF40A
:10202000B5ADFFF795FD001BB842ECD9FCE500BF4C
:102030000010024000700040400D0300504AF8B507
:10204000136803F007038B4204461BD322689007F2
:1020500024D4D2072AD44A4A136803F007038B42D8
:102060007AD82068430700F1828010F0080014D06D
:10207000444A2169536823F4605343EAC10353601F
:1020800000200AE0136823F007030B431360136872
:1020900003F007038B42D9D00120F8BD3948A56869
:1020A000436823F0F0032B434360D2E76268354D69
:1020B000012A27D14FF4003393FAA3F0286893FA4A
:1020C000A3F3B3FA83F303F01F0302FA03F303420B
:1020D000E2D06B6823F003031A436A60FFF738FD10
:1020E0006368012B064641F288371ED16B6803F006
:1020F0000C03042BAFD0FFF72BFD801BB842F5D9A2
:102100000320CAE7022A0CBF4FF00073022393FAA0
:10211000A3F02E6893FAA3F3B3FA83F303F01F033B
:10212000012000FA03F33342D2E7022B0FD16B6890
:1021300003F00C03082B8ED0FFF70AFD801BB8427A
:10214000F5D9DDE7FFF704FD801BB842D8D86B68EE
:1021500013F00C0FF6D17EE7136823F007030B434F
:102160001360136803F007038B4295D179E70549A3
:10217000E3684A6822F4E0621A434A6075E700BFE8
:1021800000200240001002402DE9F74FDFF8748173
:102190005D4C00234FF001090A6832FA03F502D1C1
:1021A00003B0BDE8F08F09FA03FA1AEA020200F060
:1021B0009E804D6825F0100EBEF1020F14D14FEA3B
:1021C000D30C00EB8C0C03F0070BDCF820604FEA1B
:1021D0008B0B0F2707FA0BF726EA07070E6906FA9B
:1021E0000BF63E43CCF82060D0F800B04FEA430C29
:1021F000032606FA0CF72BEA070BFE4305F003074C
:1022000007FA0CF70EF1FF3E47EA0B07BEF1010F8C
:10221000076011D8876806EA070ECF6807FA0CF73F
:1022200047EA0E078760476827EA0A0AC5F30017DE
:102230009F4047EA0A074760C76837408E6806FA3A
:102240000CF63E43C660EE0051D5D8F8186046F053
:102250000106C8F81860D8F8186023F0030707F1E2
:10226000804706F0010607F58037019603F0030E5C
:10227000019EBE684FEA8E0E4FF00F0C0CFA0EFC5A
:10228000B0F1904F26EA0C0C33D0204EB04232D041
:1022900006F58066B04230D006F58066B0422ED09A
:1022A00006F58066B0420CBF0426052606FA0EF637
:1022B00046EA0C06BE602668D74315F4803F0CBF83
:1022C0003E4016432660666815F4003F0CBF3E4052
:1022D00016436660A66815F4801F0CBF3E40164387
:1022E000A660E668AD0254BF3E401643E660013387
:1022F00052E70026DAE70126D8E70226D6E70326CA
:10230000D4E700BF00100240000401400004004870
:102310000AB181617047816270470000026881687C
:10232000C36930B5056914682943456924F4164426
:10233000294324F00C041943214311605168C468F7
:10234000056A21F44051214351609468816924F465
:10235000306429432143916062498A4216D101F5D4
:102360005841096B01F003010139022900F2B280E2
:102370005D4CB3F5004F615C77D1082972D8DFE876
:1023800001F0ACAC2471AC717171A40057498A4260
:102390002CD101F5E631096B01F44031B1F5003F74
:1023A00000F090800BD8002900F09480B1F5803FB8
:1023B00000F09080B3F5004F54D0012015E0B1F546
:1023C000403FF7D1B3F5004F66D141684B0803F1A8
:1023D000F47303F59043B3FBF1F300209BB223F0B9
:1023E0000F01C3F342030B43D36030BD40498A421F
:1023F00010D101F5E431096B01F44021B1F5002F52
:1024000060D004D8002965D0B1F5802FD0E7B1F5B0
:10241000402FD6E737498A4210D101F5E231096BE6
:1024200001F44011B1F5001F4CD004D8002951D05F
:10243000B1F5801FBCE7B1F5401FC2E72E498A42C3
:10244000B8D101F5E031096B01F44001B1F5000F9D
:1024500038D004D800293DD0B1F5800FA8E7B1F5F8
:10246000400FAEE701200023B9E70829A5D801A352
:1024700053F821F0B1240008B12400089924000881
:10248000BB230008B1240008BB230008BB230008BD
:10249000BB230008BB24000841684B0803F5740304
:1024A00003F51053B3FBF1F39BB2D36000209CE71C
:1024B00041684B0803F5E103F4E741684B0803F575
:1024C0000043EFE7B3F5004FF7D141684B0803F540
:1024D000803380E7B3F5004FEAD141684B0803F53C
:1024E000610378E700380140884A00080044004052
:1024F00000480040004C004000500040F8B5069FE6
:10250000044615461E462268D36931EA03030CBF10
:1025100001230023AB4201D0002014E07B1CF3D048
:1025200097B923681A6822F4D0721A609A6822F068
:1025300001029A60202384F8693084F86A3000230D
:1025400084F868300320F8BDFFF702FB801BB84217
:10255000D9D9E6E737B504460021C166FFF7F8FA96
:1025600023681B681A07054617D423681B685B0796
:102570000AD56FF07E43009300222B464FF4800172
:102580002046FFF7BBFFA0B92023002084F8693064
:1025900084F8680084F86A300CE06FF07E430093A2
:1025A0000A4603464FF400112046FFF7A7FF002814
:1025B000DBD0032003B030BD10B5044628B390F83B
:1025C000693003F0FF020BB980F8682022682423E9
:1025D00084F86930136823F0010313602046FFF785
:1025E0009DFE012811D023685A6822F490425A6057
:1025F0009A6822F02A029A601A6842F00102204684
:102600001A60BDE81040FFF7A5BF012010BDF7B567
:102610001E4690F86930202B0D46044611464AD1DB
:10262000002D46D0002A44D090F86830012B42D0CB
:10263000012380F868300023C366212380F86930C5
:10264000FFF786FAA4F850100746A4F85210B4F821
:10265000522092B262B900963B4640212046FFF7D5
:102660004DFF98B9202384F8693084F868000EE0A3
:10267000B4F852200096013A92B2A4F852203B4698
:10268000002280212046FFF739FF10B1032003B05C
:10269000F0BDA3682268B3F5805F07D123692BB929
:1026A00035F8023BC3F308031385D0E715F8013B67
:1026B000FAE70120EBE70220E9E72DE9F3411E46A6
:1026C00090F86A30202B0D46044611465CD1002D4F
:1026D00058D0002A56D090F86830012B54D00123EE
:1026E00080F8683003684FF0FF321A620023C36637
:1026F000222380F86A30FFF72BFAA368A4F8581059
:10270000B3F5805F8046A4F85A1015D123698BB9C0
:1027100040F2FF13A4F85C30B4F85C70B4F85A00CF
:1027200080B280B9202384F86A3084F8680002B04F
:10273000BDE8F081FF23EDE7002BEDD12369002BED
:10274000F8D07F23E6E7B4F85A200096013A92B217
:10275000A4F85A204346002220212046FFF7CEFE4F
:10276000A0B9A2682368B2F5805F06D1226922B9B8
:102770009B8C3B4025F8023BD0E79B8C3B4005F807
:10278000013BCBE70120D2E70220D0E70320CEE7D0
:102790000A4A116808B5034609B909491160106869
:1027A000694603448B4206D900F052FD0C230360B6
:1027B0004FF0FF3008BD1360FCE700BFC8010020E8
:1027C000E0010020002103E00B4B5B584350043133
:1027D0000A480B4B42189A42F6D30A4A02E00023F9
:1027E00013600432084B9A42F9D3AFF3008000F033
:1027F00049FDFEF705FCFEE75450000800000020EC
:102800006800002068000020DC010020FEE70000D6
:102810003C4A21F00043934270B506460D460C46F3
:1028200011DD002D02460B464FF00000364939DB22
:10283000FDF7B4FF344B0022FDF7D0FC02460B46F7
:102840001046194670BD314A934208DD2E4B0022D6
:10285000002CB8BF03F100431046194670BDB3F118
:10286000725F2ADB2A4A934232DD00F0B1FC024655
:102870000B46FDF7B3FC00F063FA00224FF08043F3
:10288000FDF7ACFC02460B4600204FF08041FDF7FF
:1028900085FF02460B4600201B49FDF79DFC0246C2
:1028A0000B46D5E7FDF77AFF174B0022FDF794FCA6
:1028B00002460B461046194670BD134B0022FDF729
:1028C0008DFC32462B46FDF73FFE02460B46B7E72E
:1028D00000F07EFC00224FF04043FDF735FE00F093
:1028E0002FFA00224FF08043064601F10045FDF724
:1028F00075FC02460B4630462946FDF74FFF02465F
:102900000B46A5E7FFFFEF7F0000F03FFFFF3540DC
:10291000FFFFEF3F00000000F8B504460D4600F051
:102920003BF81B4B93F90030013306460F4614D099
:102930002046294600F050FC78B111A3D3E90023CA
:1029400020462946FEF790F888B90FA3D3E9002363
:1029500020462946FEF76AF810B930463946F8BDD8
:1029600000F076FC2223036000260027F5E700F044
:102970006FFC2223074F03600026EEE7AFF30080D1
:10298000EF39FAFE422E864051302DD5104987C0CE
:10299000000000200000F07F2DE9F04FD44F21F01F
:1029A0000042BA4287B005460C464FEAD17612D9AA
:1029B000D04FBA422BD9C1F313030343024640F070
:1029C0005781002E00F0EE8000252C462846214637
:1029D00007B0BDE8F08FC84B9A4255D8C74B9A4212
:1029E00000F2E580ACA3D3E90023FDF7F7FBC44B6D
:1029F0000022FEF739F8002800F0D9802846214649
:102A0000BF4B0022FDF7EAFB05460C46CAE0A4A333
:102A1000D3E90023FEF728F8002840F03381A2A371
:102A2000D3E9002328462146FEF700F80028CBD141
:102A3000B44B284603EBC60621469DA3D3E90023E9
:102A4000FDF782FDD6E90023FDF7C8FBFEF716F877
:102A50000190FDF70FFD98A3D3E9002306460F462A
:102A6000FDF772FD02460B4628462146FDF7B4FBF2
:102A700093A3D3E900238046894630463946FDF7C3
:102A800063FDCDE9020117E09F4B9A42D0D89F4BDE
:102A900003EBC603D3E90023FDF79EFB9C4BF40038
:102AA0002344D3E90034C6F1010ACDE90234AAEB8C
:102AB0000603804689460193DDE9022340464946E4
:102AC000FDF78AFB02460B4682468B4605460C46BE
:102AD000FDF73AFD7CA3D3E9002306460F46FDF738
:102AE00033FD7BA3D3E90023FDF776FB32463B465B
:102AF000FDF72AFD78A3D3E90023FDF76FFB3246EB
:102B00003B46FDF721FD76A3D3E90023FDF764FBE7
:102B100032463B46FDF718FD73A3D3E90023FDF7CA
:102B20005DFB32463B46FDF70FFD0B46024659461C
:102B30005046FDF751FB019B06460F46CDE9046761
:102B4000002B6DD032463B4650465946FDF7FCFC03
:102B5000324604460D463B4600204FF08041FDF7CB
:102B60003BFB02460B4620462946FDF717FE024670
:102B70000B46DDE90201FDF72FFB42464B46FDF710
:102B80002BFB02460B4600205D49FDF725FB019C0F
:102B90006FF47F739C420246C0F2BC8001EB045389
:102BA00005461C462846214607B0BDE8F08F2A4658
:102BB000234628462146FDF7C7FC43A3D3E900235B
:102BC00006460F46FDF7C0FC41A3D3E90023FDF7FD
:102BD00003FB32463B46FDF7B7FC3FA3D3E9002396
:102BE000FDF7FCFA32463B46FDF7AEFC3CA3D3E9C9
:102BF0000023FDF7F1FA32463B46FDF7A5FC3AA368
:102C0000D3E90023FDF7EAFA32463B46FDF79CFC88
:102C100002460B4628462146FDF7DEFACDE90401BF
:102C2000DDE90489284642464B462146FDF78CFCE7
:102C3000002206460F46404649464FF08043FDF7C6
:102C4000CBFA02460B4630463946FDF7A7FD2A4629
:102C50002346FDF7C1FA02460B4600202849FDF73E
:102C6000BBFA05460C462846214607B0BDE8F08F62
:102C70000B46FDF7B3FA05460C462846214607B039
:102C8000BDE8F08F04A3D3E9002310461946FDF7F1
:102C90005BFC05460C4685E79C7500883CE4377E66
:102CA000EF39FAFE422E864051302DD5104987C0AB
:102CB000FE822B654715F73F0000E0FE422EE63FFF
:102CC000763C7935EF39EA3DD0A4BE726937663E6D
:102CD000F16BD2C541BDBB3E2CDE25AF6A56113F1C
:102CE00093BDBE166CC1663F3E5555555555C53F03
:102CF000412E8640FFFFEF7F422ED63FFFFF2F3E43
:102D00000000F03FB04D0008B1A2F03FC04D0008F8
:102D1000D04D0008019800F57A7A01EB0A5310466D
:102D2000194600224FF0B873FDF70EFC05460C461D
:102D30002846214607B0BDE8F08F00BF0000000024
:102D40002DE9F04FD84A21F00043934285B0054663
:102D50000C460E4640F20381D44A934200F2F080C2
:102D6000002E28462146C0F25981B9A3D3E9002399
:102D7000FDF7EAFB0B46CE4902460020FDF72EFA8E
:102D8000FDF77CFE0190FDF775FBB3A3D3E90023AB
:102D900006460F46FDF7D8FB02460B46284621465D
:102DA000FDF71AFAAEA3D3E9002304460D463046D8
:102DB0003946FDF7C9FB06460F4632463B462046DC
:102DC0002946FDF709FA02460B46204629461C46CD
:102DD0001546FDF701FA32463B46FDF7FDF9CDE910
:102DE0000201B34B002228462146FDF7ADFB064603
:102DF0000F4632463B4628462146FDF7A5FB9AA3DF
:102E0000D3E9002382468B46FDF79EFB98A3D3E9C6
:102E10000023FDF7E3F952465B46FDF795FB96A3C9
:102E2000D3E90023FDF7D8F952465B46FDF78CFB4A
:102E300093A3D3E90023FDF7D1F952465B46FDF792
:102E400083FB91A3D3E90023FDF7C6F952465B4605
:102E5000FDF77AFB974B0022FDF7C0F980468946C3
:102E600042464B4630463946FDF76EFB02460B465E
:102E700000209149FDF7B0F906460F46324640461C
:102E800049463B46FDF7A8F93246804689463B460F
:102E900028462146FDF758FB02460B46002087498D
:102EA000FDF79AF902460B4640464946FDF776FC87
:102EB00052465B46FDF748FB019E02460B46002E3C
:102EC00057D0DDE9026732463B46FDF785F92A46D1
:102ED0002346FDF739FB32463B46FDF77DF95B465D
:102EE0005246FDF779F9019B013306460F4600F083
:102EF0001581019B012B00F0F580019B0133392BDB
:102F000078D8019F132F00F31A812A4623464FF4E5
:102F10000016FDF761F93E41C6F17F55002405F525
:102F2000401502460B4620462946FDF755F901EBB0
:102F3000075305461C462846214605B0BDE8F08FDC
:102F40005F4A93423DD9C1F313030343024600F0A5
:102F500009810B46FDF742F905460C4619E0594A2E
:102F600093421BD8584A934240F2B4800023019305
:102F700037E728462146FDF7E7FA52465B46FDF75C
:102F80002BF902460B4628462146FDF725F9054652
:102F90000C462846214605B0BDE8F08F4B4A9342C7
:102FA00000F2F78000292CA3D3E9002317DBFDF7FB
:102FB00013F901232AA7D7E9006704460D460193B8
:102FC000FBE633A3D3E90023FDF74EFD00283FF4D1
:102FD000C7AE002005B0BDE8F04F00F027B9FDF7FF
:102FE000FDF84FF0FF332CA7D7E9006704460D46E4
:102FF0000193E2E62A462346FDF7EEF802460B4629
:1030000000202C49FDF7E8F8019A2A4B01EB025108
:103010000022FDF7E1F805460C46BAE720A3D3E904
:103020000023FDF7DBF800220023FDF7FFFC00285A
:1030300040F09B8006A3D3E9002328462146FDF7F4
:1030400083FA02460B460020214997E6AFF3008041
:10305000FE822B654715F73F0000E0FE422EE63F5B
:10306000763C7935EF39EA3D2DC3096EB7FD8ABE4E
:103070003952E686CACFD03EB7DBAA9E19CE143F9E
:103080008555FE19A0015A3FF41011111111A13FED
:10309000EF39FAFE422E8640763C7935EF39EABDAB
:1030A00059F3F8C21F6EA50179684340412E86404E
:1030B0000000E03F0000F03F000008400000184022
:1030C000FFFFEF7F422ED63FFFFF8F3CB1A2F03FC4
:1030D0000000E0BF36A3D3E90023FDF77FF80246E6
:1030E0000B464CE7364B284621460022FDF79EFC56
:1030F00000283DD0334B284621460022FDF76EF8CC
:1031000002460B4630463946FDF766F800224FF07E
:103110004043FDF719FA05460C463AE72846214692
:1031200032463B46FDF758F8264B0022FDF70CFAD5
:10313000244B0022FDF750F805460C4629E7019F75
:10314000C7F57F76033633050022FDF747F80246C0
:103150000B4628462146FDF73FF81B4B0022FDF7A2
:103160003DF8E4E60029BFF614AF184C002510E73F
:103170002846214632463B46FDF72EF802460B46CE
:10318000FDF72CF8104B0022FDF728F805460C46F9
:10319000FFE609A3D3E90023FDF7D6F9002C024688
:1031A0000B464FF00000FFF64FAF0649E6E500BFC3
:1031B0009C7500883CE4377EFE822B654715F73FFF
:1031C0000000D0BF0000E03F0000F03F0000F0BF73
:1031D00021F00041704700BF41F0004000F5801031
:1031E000C00F7047D0B506460F46144600F030F8C1
:1031F0000346394630461C60D0BD00BF30B583B0B1
:1032000080B1144603F10045CDE90045104619464A
:10321000DDE90023FDF798F9222203B0BDE8304034
:10322000FFF7E0BF14461D46EEE700BF00224FF057
:10323000E043FFF7E3BF00BF0A22002100F0B0BA6D
:10324000024B0A460146186800F066B804000020E8
:10325000014B1868704700BF0400002008B5074BF9
:10326000044613B10021AFF30080054B1868836A50
:1032700003B19847204601F021FA00BF000000008A
:10328000E04D000870B50D4D0D4C641BA4100026D8
:10329000A64209D10B4D0C4C01F012FA641BA4108C
:1032A0000026A64205D170BD55F8043B984701366B
:1032B000EEE755F8043B98470136F2E74C5000081A
:1032C0004C5000084C50000850500008024B01467A
:1032D000186800F079B800BF04000020024B0146D6
:1032E000186800F027B800BF040000200A4491428B
:1032F00000F1FF3300D1704710B511F8014B03F80E
:10330000014F9142F9D110BD02440346934200D1CE
:10331000704703F8011BF9E738B502FB01F52946B0
:1033200000F052F8044618B12A460021FFF7ECFFDE
:10333000204638BD38B50546002941D051F8043C37
:103340000C1F002BB8BFE41800F040FD1D4A1368A5
:1033500033B9636014602846BDE8384000F03CBDD6
:10336000A34208D9206821188B4201BF19685B6805
:1033700009182160EDE71A465B680BB1A342FAD940
:1033800011685018A0420BD12068014450188342A4
:103390001160E0D118685B68536001441160DAE79E
:1033A00002D90C232B60D6E7206821188B4204BF7A
:1033B00019685B68636004BF091821605460CAE73C
:1033C00038BD00BFCC010020F8B5CD1C25F00305A9
:1033D00008350C2D38BF0C25002D064601DBA9420F
:1033E00003D90C2333600020F8BD00F0EFFC214925
:1033F0000A6814469CB9204F3B6823B921463046E1
:1034000000F0DEF838602946304600F0D9F8431C59
:1034100023D10C233360304600F0DEFCE3E7236861
:103420005B1B17D40B2B03D923601C44256004E0DD
:103430006368A2420CBF0B605360304600F0CCFCC6
:1034400004F10B00231D20F00700C21ACCD01B1A78
:10345000A350C9E722466468CCE7C41C24F00304E7
:10346000A042E3D0211A304600F0AAF80130DDD1A5
:10347000CFE700BFCC010020D00100200FB40A4BE1
:1034800013B51C6824B1A36913B9204600F086FB6C
:1034900005AB049AA1680193204600F0CBFC02B072
:1034A000BDE8104004B070470400002038B5084B58
:1034B0001C68054624B1A36913B9204600F06EFBD1
:1034C000A26829462046BDE8384000F077BF00BF1B
:1034D0000400002070B50E46054618B183690BB98B
:1034E00000F05CFBAB69AC6813B9284600F056FBF2
:1034F0002C4B9C4220D16C68636EDB0705D4A389FA
:10350000980502D4A06D00F0F9FBA38919071DD519
:103510002369DBB1013EA36816F8011F013BA360DC
:1035200039BB002B38DA22460A21284600F042F93E
:10353000013011D00A2511E01B4B9C4201D1AC682F
:10354000DAE71A4B9C4208BFEC68D5E721462846CB
:1035500000F082F90028DDD04FF0FF35636EDA0706
:1035600005D4A3899B0502D4A06D00F0C8FB2846B2
:1035700070BD002B04DAA2699A4206DC0A2904D045
:1035800023685A1C22601970C5E72246284600F0BD
:1035900011F90130BFD1DFE723680A255A1C2260E8
:1035A0001D70DBE7D84F0008F84F0008B84F00083F
:1035B000024B01461868FFF78DBF00BF04000020D2
:1035C00038B5064D0023044608462B60FFF7E0F8A7
:1035D000431C02D12B6803B1236038BDD801002001
:1035E000034611F8012B03F8012B002AF9D170478B
:1035F000164B2DE9F0411F68BC6D05460E46ECB92F
:103600005020FFF763FE0246B86520B9104B114801
:10361000572100F08FF9C0E90044C0E90244C0E935
:103620000444C0E90A44C0E90C44C0E90E44C0E9BE
:103630001044C0E91244846104774462BA6D314693
:1036400028460123BDE8F04100F006B80400002040
:10365000E44D0008FB4D0008F0B508B9106888B1CA
:103660000446204614F8015B0F4617F8016B1EB99B
:1036700065B91560284605E0B542F6D1002BF0D1BA
:1036800014600370F0BD1C460CE015B914F8013B42
:103690000E4616F8015BAB42F7D1002BF3D00023A6
:1036A00004F8013C1460EDE7012B2DE9F04780465A
:1036B00001D0242B06D9FFF7CBFD16230360002091
:1036C000BDE8F087354F0D46284615F8014BE65DFD
:1036D00016F00806F8D12D2C2FD12C780126851C48
:1036E000002B57D0102B09D1302C07D1287800F0AF
:1036F000DF00582849D16C781023023506F1004EBE
:103700000EF1FF3E0027BEFBF3F9384603FB19EA32
:10371000A4F1300CBCF1090F14D86446A34222DD99
:10372000002F1DDB81451BD301D1A24518DB00FB17
:103730000340012715F8014BEAE72B2C04BF2C7836
:10374000851CCDE7A4F1410CBCF1190F01D8373C21
:10375000E4E7A4F1610CBCF1190F04D8573CDDE794
:103760004FF0FF37E6E7002F07DA2223C8F80030D2
:103770007046002AA4D0691E05E006B14042002A26
:103780009ED0002FF7D111609AE73024002BB5D1DD
:103790000823B3E7302CA9D00A23AFE7B74E0008BF
:1037A00013460A46014602480068FFF77DBF00BF86
:1037B00004000020F8B50E461446054618B183698A
:1037C0000BB900F0EBF9214B9C422BD16C68A3693B
:1037D000A360A3891A072FD523696BB323692068D7
:1037E000C01A6369F6B28342374604DC2146284694
:1037F00000F040F930BBA368013BA36023685A1C6A
:1038000022601E7063690130834204D0A389DB0704
:1038100006D50A2E04D12146284600F02BF988B996
:103820003846F8BD0A4B9C4201D1AC68CFE7094B42
:103830009C4208BFEC68CAE72146284600F00CF815
:103840000028CBD04FF0FF37EAE700BFD84F000881
:10385000F84F0008B84F0008324B70B51D68064697
:103860000C4625B1AB6913B9284600F097F92E4BE9
:103870009C420FD16C68A389B4F90C2019072CD491
:10388000DD0611D40923336042F04003A3814FF0D9
:10389000FF303EE0254B9C4201D1AC68EBE7244B66
:1038A0009C4208BFEC68E6E7580712D5616B41B14E
:1038B00004F14403994202D03046FFF73BFD002358
:1038C0006363A38923F02403A38100236360236936
:1038D0002360A38943F00803A38123694BB9A3891B
:1038E00003F42073B3F5007F03D02146304600F087
:1038F0002DFAA089B4F90C2010F001030AD000239E
:10390000A36063695B42A361236943B910F080003F
:10391000BAD170BD810758BF6369A360F4E7002086
:10392000F7E700BF04000020D84F0008F84F000858
:10393000B84F00081FB514461A46094B1B680546C8
:10394000D8684CB1074B0091CDE9013406492B46AC
:1039500000F0A2F900F0D0FD044B1C46F3E700BFD5
:10396000040000207A4E0008874E0008A94D000888
:103970008A89F8B5054610070C4657D44B68002BCA
:1039800004DC0B6C002B01DC0020F8BDE66A002E85
:10399000FAD0002312F480522F682B6032D0606D71
:1039A000A3895A0705D56368C01A636B0BB1236CF2
:1039B000C01A00230246E66A216A2846B047431C23
:1039C000A38906D129681D292CD8294ACA40D607BF
:1039D00028D500226260D9042269226004D5421CE5
:1039E00001D12B6803B96065616B2F600029CBD0D2
:1039F00004F14403994202D02846FFF79BFC0020C3
:103A00006063C2E7216A01232846B047411CC7D141
:103A10002B68002BC4D01D2B01D0162B01D12F6099
:103A2000B2E7A38943F04003A381AEE70F69002FFB
:103A3000AAD093070E6808BF4B690F6018BF002318
:103A4000F61B8B60002E9FDD216AD4F828C0334618
:103A50003A462846E047002806DCA38943F04003A5
:103A6000A3814FF0FF3090E70744361AEAE700BF22
:103A70000100402038B50B6905460C4613B90025F6
:103A8000284638BD18B183690BB900F087F8144B8C
:103A90009C421BD16C68B4F90C30002BEFD0626EE5
:103AA000D00704D4990502D4A06D00F027F9284668
:103AB0002146FFF75DFF636EDA070546E0D4A38970
:103AC0009B05DDD4A06D00F01AF9D9E7054B9C42A7
:103AD00001D1AC68DFE7044B9C4208BFEC68DAE731
:103AE000D84F0008F84F0008B84F0008002310B561
:103AF0000446C0E90033C0E9043383608181436632
:103B0000C2818361194608225C30FFF7FDFB054B3B
:103B10006362054BA362054BE362054B246223639A
:103B200010BD00BF4D4400086F440008A7440008C2
:103B3000CB440008014900F0C1B800BF753A000845
:103B400070B568224D1E55430E4605F17401FFF70E
:103B50003BFC044640B10021C0E900160C30A060D7
:103B600005F16802FFF7D0FB204670BD014800F068
:103B7000C5B800BFD5010020014800F0C0B800BFA3
:103B8000D5010020014800F0B9B800BFD6010020DF
:103B9000014800F0B4B800BFD601002010B50446BB
:103BA000FFF7F0FFA3691BB1BDE81040FFF7F0BFBE
:103BB000C4E912332365134B134A1B68A262A34264
:103BC00004BF0123A361204600F020F86060204676
:103BD00000F01CF8A060204600F018F80022E06019
:103BE00004216068FFF782FFA06801220921FFF726
:103BF0007DFFE06802221221FFF778FF0123A36115
:103C0000D2E700BFE04D0008353B0008F8B5074695
:103C1000FFF7ACFF1E4B1E68B36913B93046FFF7C0
:103C2000BDFF4836D6E90134013B03D533680BB3F9
:103C30003668F7E7B4F90C50D5B9164BE36004F1D8
:103C40005800656600F059F8FFF796FFC4E9015582
:103C5000C4E904552560A5610822294604F15C00E9
:103C6000FFF752FBC4E90D55C4E912552046F8BDD3
:103C70006834D9E704213846FFF762FF0446306014
:103C80000028D5D1FFF778FF0C233B60EEE700BF9B
:103C9000E04D00080100FFFF0EB403B5014603AB81
:103CA000054853F8042B0068019300F0C3F802B0F4
:103CB0005DF804EB03B07047040000202DE9F843E1
:103CC0000646884600F148040027D4E90195B9F179
:103CD000010905D52468002CF7D13846BDE8F883E2
:103CE000AB89012B07D9B5F90E30013303D0294632
:103CF0003046C04707436835E9E77047704770476B
:103D000070B50E46B1F90E10002996B014461D4646
:103D100008DAB6F90C3000222A601A0610D44FF4E3
:103D200080630EE06A4600F0FFFB0028F1DB019A99
:103D300002F47042A2F500535A425A412A60EEE75B
:103D400040230020236016B070BD00008B8973B53E
:103D50009D0706460C4607D504F1470323602361FF
:103D60000123636102B070BD01AB6A46FFF7C8FF73
:103D7000009905463046FFF727FB48B9B4F90C30E7
:103D80009A05EFD423F0030343F00203A381E3E792
:103D90000D4BB362A389206043F08003A381009B95
:103DA0006361019B20615BB1B4F90E10304600F0F5
:103DB000CDFB28B1A38923F0030343F00103A381C2
:103DC000A0890543A581CDE7353B00080148FFF7F1
:103DD00095BF00BFD40100200148FFF790BF00BF8E
:103DE000D40100209368013B002B10B4936007DAE4
:103DF0009469A34201DB0A2902D110BCFFF7DABCA7
:103E00001368581C10601970084610BC7047F8B54C
:103E100006460F461446D518AC4201D1002007E0F3
:103E200014F8011B3A463046FFF7DCFF431CF3D180
:103E3000F8BD00002DE9F04F0D469DB014469846A0
:103E4000064618B183690BB9FFF7A8FE894B9D425E
:103E50001BD175686B6ED90705D4AB899A0502D45E
:103E6000A86DFFF74BFFAB891B0701D52B69EBB999
:103E700029463046FFF7F0FCC0B16B6EDC070ED56B
:103E80004FF0FF301DB0BDE8F08F7B4B9D4201D15C
:103E9000B568DFE7794B9D4208BFF568DAE7AB8983
:103EA0009805EDD4A86DFFF72AFFE9E700230993F1
:103EB00020238DF82930CDF80C803023DFF8C08125
:103EC0008DF82A304FF0010923469A4613F8012B4A
:103ED0000AB1252AF9D1BAEB040B0BD05B46224676
:103EE00029463046FFF793FF013000F0AA80099A77
:103EF0005A4409929AF80030002B00F0A280002367
:103F00004FF0FF32CDE905230AF1010A049307932C
:103F10008DF853301A935446052214F8011B584863
:103F2000FCF706FE049AD8B9D10644BF20238DF8C9
:103F30005330130744BF2B238DF853309AF80030C9
:103F40002A2B15D0079A544600204FF00A0C214620
:103F500011F8013B303B092B4ED9B0B1079214E068
:103F6000A0EB080309FA03F313430493A246D2E734
:103F7000039B191D1B680391002BBBBF5B4242F0E2
:103F8000020207930793B8BF049223782E2B0CD11B
:103F900063782A2B35D1039B1A1D1B680392002BD3
:103FA000B8BF4FF0FF3302340593DFF8D8A0217873
:103FB00003225046FCF7BCFD40B14023A0EB0A00B1
:103FC00003FA00F0049B03430134049314F8011B2B
:103FD0002D488DF828100622FCF7AAFD00283FD0B6
:103FE0002A4B1BBB039B073323F0070308330393C0
:103FF000099B3B44099367E70CFB02320C46012006
:10400000A5E700230134059319464FF00A0C20461A
:1040100010F8012B303A092A03D9002BC5D005919D
:10402000C3E70CFB012104460123F0E703AB009337
:104030002A46174B04A93046AFF300800746781C88
:10404000D6D16B6ED90705D4AB899A0502D4A86D79
:10405000FFF755FEAB895B063FF512AF099811E7F4
:1040600003AB00932A460A4B04A9304600F080F8BF
:10407000E4E700BFD84F0008F84F0008B84F000829
:10408000185000081E5000082250000800000000D0
:104090000F3E00082DE9F047164699468A680B69DD
:1040A000DDF820809342B8BF1346336091F8432077
:1040B00007460C460AB1013333602368990642BFB4
:1040C000336802333360256815F0060506D104F124
:1040D000190AE36832689B1AAB4226DC94F8432045
:1040E000131E226818BF012392062BD404F1430249
:1040F00049463846C04701301ED02368E56832681B
:1041000003F00603042B08BFAD1AA36822690CBF95
:1041100025EAE57500259342C4BF9B1AED180026D9
:104120001A34B5421AD1002008E00123524649460C
:104130003846C047013003D14FF0FF30BDE8F0876B
:104140000135C6E7E1185A1C302081F843002244AB
:1041500094F8451082F843100233C7E70123224642
:1041600049463846C0470130E6D00136D9E700005D
:104170002DE9FF470F7E0C9D782F914680460C4617
:104180009A4601F1430207D8622F0AD8002F00F0A7
:10419000D880582F00F0A38004F1420584F84270C3
:1041A0003AE0A7F16303152BF6D801A151F823F0EB
:1041B000094200081D420008994100089941000881
:1041C00099410008994100081D42000899410008E2
:1041D00099410008994100089941000829430008C5
:1041E0004D4200080B43000899410008994100081E
:1041F0004B430008994100084D42000899410008CE
:1042000099410008134300082B681A1D1B682A6097
:1042100004F1420584F842300123A3E020682968B4
:10422000060601F104030AD50E682B60002E03DA9E
:104230002D23764284F843305E480A2319E00E6845
:104240002B6010F0400F18BF36B2EFE72B682068E4
:10425000191D2960010601D51E6802E04606FBD53E
:104260001E8854486F2F0CBF08230A23002184F8AE
:1042700043106568A560002DA2BF216821F00401EC
:1042800021600EB9002D4DD01546B6FBF3F103FBAE
:104290001167C75D05F8017D3746BB420E46F4D96C
:1042A000082B0BD12368DE0708D523696168994282
:1042B000DEBF302305F8013C05F1FF35521B2261BA
:1042C000CDF800A04B4603AA21464046FFF7E2FE88
:1042D00001304CD14FF0FF3004B0BDE8F0873548D5
:1042E00081F845702968236851F8046B29601D0620
:1042F00014D5DF0744BF43F0200323601EB92368B1
:1043000023F0200323601023B0E7236843F0200349
:1043100023607823284884F84530E3E7590648BFEE
:10432000B6B2E6E71546BBE72B6826686169181D3B
:10433000286035061B6801D5196002E07006FBD5C0
:104340001980002323611546BAE72B681A1D2A60DD
:104350001D68626800212846FCF7EAFB08B1401B93
:10436000606063682361002384F84330A8E7236911
:104370002A4649464046D0470130ABD023689B07C8
:1043800013D4E068039B9842B8BF1846A4E7012302
:10439000324649464046D04701309BD00135E3685C
:1043A00003995B1AAB42F2DCEBE7002504F1190636
:1043B000F5E700BF295000083A50000870B50D46D7
:1043C0001446064618B183690BB9FFF7E7FB1C4B8F
:1043D0009C4224D17468636ED80705D4A3899905DB
:1043E00002D4A06DFFF78AFCA368013B002BA360F9
:1043F00005DAA26993421CDBEBB20A2B19D02368C1
:104400005A1C22601D70EDB2636EDA0705D4A389D1
:104410009B0502D4A06DFFF772FC284670BD094BC6
:104420009C4201D1B468D6E7074B9C4208BFF468B0
:10443000D1E7294622463046FFF7BCF90546E3E7B7
:10444000D84F0008F84F0008B84F000810B50C46C8
:10445000B1F90E1000F09CF80028ABBF636DA38982
:104460001B1823F48053ACBF6365A38110BD2DE9F5
:10447000F0411F468B89DB0505460C46164605D5DF
:10448000B1F90E100223002200F070F8A389B4F9EC
:104490000E1023F48053A38132463B462846BDE8E4
:1044A000F04100F017B810B50C46B1F90E1000F04D
:1044B0005DF8431CA38915BF606523F4805343F462
:1044C0008053A38118BFA38110BDB1F90E1000F075
:1044D0001BB8000038B5074D0446084611460022B7
:1044E0002A601A4600F0E2F8431C02D12B6803B19F
:1044F000236038BDD801002008B5062000F082F8FE
:10450000012000F0DBF8000038B5064D002304461A
:1045100008462B6000F092F8431C02D12B6803B1CF
:10452000236038BDD801002038B5074D002304466C
:10453000084611462B6000F089F8431C02D12B6815
:1045400003B1236038BD00BFD801002038B5064D47
:104550000023044608462B6000F088F8431C02D173
:104560002B6803B1236038BDD801002038B5074D52
:1045700004460846114600222A601A4600F086F8D2
:10458000431C02D12B6803B1236038BDD801002041
:1045900038B5074D04460846114600222A601A46DF
:1045A00000F07CF8431C02D12B6803B1236038BDB6
:1045B000D80100201F2938B504460D4604D916231A
:1045C00003604FF0FF3038BD426C12B152F8213019
:1045D0004BB9204600F030F82A4601462046BDE897
:1045E000384000F017B8012B0AD0591C03D116230C
:1045F00003600120E7E7002442F825402846984759
:104600000020E0E7024B01461868FFF7D3BF00BF68
:104610000400002038B5074D002304460846114623
:104620002B6000F02BF8431C02D12B6803B12360F0
:1046300038BD00BFD801002000F010B8024B58224E
:104640001A604FF0FF307047D8010020024B58220B
:104650001A604FF0FF307047D8010020024B5822FB
:104660001A604FF0FF307047D8010020024B5822EB
:104670001A600020704700BFD8010020024B58226A
:104680001A604FF0FF307047D8010020024B5822CB
:104690001A604FF0FF307047D8010020024B5822BB
:1046A0001A604FF0FF307047D8010020024B5822AB
:1046B0001A604FF0FF307047D8010020FEE700BFBE
:1046C000F8B500BFF8BC08BC9E467047F8B500BFFF
:0846D000F8BC08BC9E467047CF
:1046D8008B4A00089B4A00089D4A0008A34A000824
:1046E800C04A0008B54A0008BD4A0008C24A000886
:1046F800C94A0008DD4A0008A14A0008E24A000841
:10470800F54A0008A14A0008000000000000000067
:104718006F1283C0CAA1F93F1CEBE2361A80184019
:10472800728577B988EFE03F3134D769A4A5DE3FB9
:1047380000000000000000004BC8073D9B5502C068
:10474800BC490C022B071DC082E2C798BBD61F408C
:10475800280F0BB5A679ED3F000000000000F03FE0
:104768005F6397A8DE1AE6BF662C9ACE4E06E0BFB6
:10477800425BCEA5B8AAD6BFD94290831266DE3F67
:10478800000000000000F03FC66D3480B740FA3FDB
:1047980055C1A8A44E00114024B9FC87F49B13C04E
:1047A800EB73B515FB4B05C0000000000000F03F9F
:1047B80004560E2DB29D0C40158C4AEA0434034071
:1047C800C66D3480B740FE3F90149161156FE73F86
:1047D80000000000000000000AF4893C493AE73F65
:1047E8000D6D00362042DC3FA779C7293A92E9BF10
:1047F800EDD632198EE7833FB83EAC376A85DC3F89
:104808008CF4A276BF0AE3BFCD57C9C7EE02D0BF6A
:10481800E3512AE109BDCA3F8A5B0531D0B5D13FD2
:10482800884677103B53C83F1A14CD0358E4A7BFF6
:1048380009F9A067B36AE83F310A82C7B777CBBFE7
:10484800CC96AC8A7093D9BFB950F9D7F2CAE7BFF2
:104858009544F6419685E73F8EACFC321823CA3F53
:10486800AAD72D02637DE0BF8AE942ACFE88E43F07
:10487800F8E28BF67821D1BF81CB63CDC820873F82
:104888006F46CD57C9C7CE3FFAB836548CF3DC3FD4
:104898000F43AB933314C33F842C0B26FE28DEBF93
:1048A800F8FC304278B4E23F344C6DA983BCCABFEF
:1048B800B3976DA7AD11D6BFC05FCC96AC8AC43F85
:1048C80014048F6FEF1AA43F4791B58652FBE53F5A
:1048D80008C89750C1E1B13F62D8614CFA7BD5BF97
:1048E800B01EF7ADD689E63FB34291EEE794E7BF35
:1048F800E5D3635B069CE6BFECDCB419A7A1E6BF71
:10490800289EB30584D6C5BF478FDFDBF467D43F45
:10491800D1AFAD9FFEB3D83FF81C588E9081E9BF48
:10492800AE105663096BE1BFC493DDCCE847D53FB1
:10493800D061BEBC00FBC8BF11548D5E0D50C0BF16
:104948007100FDBE7FF3D93FAFCDC64ACCB3D1BF0E
:10495800DA3C0E83F9ABE7BF88BB7A15199DE63FB1
:10496800807D74EACA67DBBF4CC45BE7DF2EC7BF34
:10497800BAD91F28B7EDB7BF95D39E927362E23FAD
:10498800A51309A69AD9E0BFD7DEA7AAD040E7BFEA
:104998005D8B16A06DB5E4BF48FC8A355CE4E7BFC3
:1049A800CB82893F8A3AC3BFF6984869368FC9BF18
:1049B800257497C45911C73F79E92631082CE53F7A
:1049C800C3F2E7DB82A5D4BF56F5F23B4DE6E0BF64
:1049D800D33252EFA99CDBBFE0641BB80375DBBF81
:1049E8008657923CD7F7DCBF0CAF2479AEEFD4BF23
:1049F800C24CDBBFB2D2D4BFB37DC85BAE7EC43F6E
:104A0800A647533D99FFE73FF8C610001C7BE7BF58
:104A1800D0B359F5B9DAC63FB000A60C1C50E1BFB7
:104A28005AF0A2AF20CDD63F276728EE7893E83F0B
:104A38000F62670A9DD7BC3F4ED026874F3AA1BF69
:104A48009EEFA7C64B37D1BFE2218C9FC6BDC73F9B
:104A58006B0BCF4BC5C6C6BF8237A4518193B93FF4
:104A6800E0F3C308E1D1EFBFCAC51858C771E63FE4
:104A7800782975C93846C4BFFBAE08FEB792E5BFB2
:104A880004080265786563757461626C655F6E61C0
:104A98006D65003300342C352C3500736F66746DEA
:104AA80061782C72656C752C74616E680073696727
:104AB8006D6F696400302E30310031303030302075
:104AC80000646174612F646174615F747261696EFE
:104AD8002E637376003130393600646174612F6457
:104AE8006174615F746573742E6373760032373551
:104AF800004572726F723A204E756D626572206F52
:104B0800662068696464656E206C617965727320DB
:104B180073686F756C64206265203E3D2030002C00
:104B2800004572726F723A2048696464656E206C41
:104B3800617965722073697A65732073686F756C23
:104B48006420626520706F736974697665006964B2
:104B5800656E746974790072656C7500736F66743C
:104B68006D6178004572726F723A20496E76616C99
:104B780069642076616C756520666F722068696467
:104B880064656E2061637469766174696F6E20660E
:104B9800756E6374696F6E00496E7075742065690F
:104BA80074686572206964656E74697479206F72BF
:104BB800207369676D6F6964206F722074616E6815
:104BC800206F722072656C75206F7220736F667427
:104BD8006D617820666F722068696464656E206113
:104BE800637469766174696F6E2066756E63746943
:104BF8006F6E004F7574707574206C6179657220E2
:104C080073697A652073686F756C642062652070BB
:104C18006F736974697665004572726F723A2049DC
:104C28006E76616C69642076616C756520666F725A
:104C3800206F757470757420616374697661746926
:104C48006F6E2066756E6374696F6E00496E70755D
:104C58007420656974686572206964656E74697426
:104C680079206F72207369676D6F6964206F722095
:104C780074616E68206F722072656C75206F722087
:104C8800736F66746D617820666F72206F757470CB
:104C980075742061637469766174696F6E206675D6
:104CA8006E6374696F6E004D61782E206E756D624B
:104CB8006572206F6620697465726174696F6E73BE
:104CC8002076616C75652073686F756C6420626509
:104CD80020706F73697469766500436C61737369DA
:104CE8006679696E672074657374206578616D7084
:104CF8006C65202564206F662025640D00466F7260
:104D0800776172642070726F7061676174696F6E29
:104D18003A20496E76616C69642068696464656EDE
:104D28002061637469766174696F6E2066756E635D
:104D380074696F6E005072656469637465642025D8
:104D4800642020000A2D2D2D2D2D2D2D2D2D2D2DBE
:104D58002D2D2D2D2D2D2D2D2D2D2D2D2D2D2D2D7B
:104D68002D2D2D2D2D2D2D2D2D2D2D2D2D2D2D2D6B
:104D78002D2D2D2D2D2D2D2D2D2D2D2D2D2D2D2D5B
:104D88002D2D2D2D2D2D2D2D2D2D2D2D2D2D2D2D4B
:104D98000041637475616C202564207C20002564C3
:104DA8000900000000000000000000000000E03FD3
:104DB800000000000000E0BF0000E0FE422EE63FD9
:104DC8000000E0FE422EE6BF763C7935EF39EA3D39
:104DD800763C7935EF39EABD080000205245454E4A
:104DE80054206D616C6C6F632073756363656564D3
:104DF8006564002F6D6E742F776F726B73706163CB
:104E0800652F776F726B73706163652F4743432D0E
:104E180031302D706970656C696E652F6A656E6BCF
:104E2800696E732D4743432D31302D706970656C61
:104E3800696E652D34385F32303230313132345F4B
:104E4800313630363138303634312F7372632F6E45
:104E580065776C69622F6E65776C69622F6C696221
:104E6800632F737472696E672F737472746F6B2E0D
:104E780063002C2066756E6374696F6E3A2000615A
:104E88007373657274696F6E2022257322206661C0
:104E9800696C65643A2066696C6520222573222C4A
:104EA800206C696E65202564257325730A0000202F
:104EB80020202020202020202828282828202020C2
:104EC8002020202020202020202020202020208872
:104ED80010101010101010101010101010101004D6
:104EE8000404040404040404041010101010101026
:104EF800414141414141010101010101010101011A
:104F0800010101010101010101011010101010102F
:104F180042424242424202020202020202020202E9
:104F28000202020202020202020210101010200005
:104F38000000000000000000000000000000000069
:104F48000000000000000000000000000000000059
:104F58000000000000000000000000000000000049
:104F68000000000000000000000000000000000039
:104F78000000000000000000000000000000000029
:104F88000000000000000000000000000000000019
:104F98000000000000000000000000000000000009
:104FA80000000000000000000000000000000000F9
:104FB80000000000000000000000000000000000E9
:104FC80000000000000000000000000000000000D9
:104FD80000000000000000000000000000000000C9
:104FE80000000000000000000000000000000000B9
:104FF80000000000000000000000000000000000A9
:105008000000000000000000000000000000000098
:10501800232D302B2000686C4C0065666745464799
:10502800003031323334353637383941424344451C
:10503800460030313233343536373839616263648B
:045048006566000099
:04504C00B5010008A2
:0450500091010008C2
:10505400FF0000000800002000000000D84F0008F6
:10506400F84F0008B84F00080000000000000000DE
:10507400000000000000000000000000000000002C
:10508400000000000000000000000000000000001C
:10509400000000000000000000000000000000000C
:1050A40000000000000000000000000000000000FC
:0850B4000000000000000000F4
:04000005080027C503
:00000001FF
