:020000040800F2
:1000000000A00020B5280008FD280008FD280008F1
:10001000FD280008FD280008FD2800080000000059
:10002000000000000000000000000000FD280008A3
:10003000FD28000800000000FD280008FD28000839
:1000400000000000000000000000000000000000B0
:1000500000000000000000000000000000000000A0
:100060000000000000000000000000000000000090
:100070000000000000000000000000000000000080
:100080000000000000000000000000000000000070
:100090000000000000000000000000000000000060
:1000A0000000000000000000000000000000000050
:1000B0000000000000000000000000000000000040
:1000C0000000000000000000000000000000000030
:1000D0000000000000000000000000000000000020
:1000E0000000000000000000000000000000000010
:1000F0000000000000000000000000000000000000
:1001000000000000000000000000000000000000EF
:1001100000000000000000000000000000000000DF
:1001200000000000000000000000000000000000CF
:1001300000000000000000000000000000000000BF
:1001400000000000000000000000000000000000AF
:10015000000000000000000000000000000000009F
:10016000000000000000000000000000000000008F
:10017000000000000000000000000000000000007F
:08018000000000000000000077
:1001900010B5054C237833B9044B13B10448AFF3C1
:1001A00000800123237010BD6800002000000000C3
:1001B000144C000808B5034B1BB103490348AFF3C7
:1001C000008008BD000000006C000020144C0008F6
:1001D00081F0004102E000BF83F0004330B54FEAF8
:1001E00041044FEA430594EA050F08BF90EA020F65
:1001F0001FBF54EA000C55EA020C7FEA645C7FEAF8
:10020000655C00F0E2804FEA5454D4EB5555B8BF1A
:100210006D420CDD2C4480EA020281EA030382EA8B
:10022000000083EA010180EA020281EA0303362D1D
:1002300088BF30BD11F0004F4FEA01314FF4801CF0
:100240004CEA113102D0404261EB410113F0004F02
:100250004FEA03334CEA133302D0524263EB4303B9
:1002600094EA050F00F0A780A4F10104D5F1200E57
:100270000DDB02FA0EFC22FA05F2801841F10001B2
:1002800003FA0EF2801843FA05F359410EE0A5F186
:1002900020050EF1200E012A03FA0EFC28BF4CF0B7
:1002A000020C43FA05F3C01851EBE37101F000456D
:1002B00007D54FF0000EDCF1000C7EEB00006EEB7A
:1002C0000101B1F5801F1BD3B1F5001F0CD3490804
:1002D0005FEA30004FEA3C0C04F101044FEA44525B
:1002E00012F5800F80F09A80BCF1004F08BF5FEAE2
:1002F000500C50F1000041EB045141EA050130BDC2
:100300005FEA4C0C404141EB0101013C28BFB1F5D3
:10031000801FE9D291F0000F04BF01460020B1FA1E
:1003200081F308BF2033A3F10B03B3F120020CDAF1
:100330000C3208DD02F1140CC2F10C0201FA0CF0CF
:1003400021FA02F10CE002F11402D8BFC2F1200C34
:1003500001FA02F120FA0CFCDCBF41EA0C019040EA
:10036000E41AA2BF01EB0451294330BD6FEA040433
:100370001F3C1CDA0C340EDC04F11404C4F120021E
:1003800020FA04F001FA02F340EA030021FA04F330
:1003900045EA030130BDC4F10C04C4F1200220FA87
:1003A00002F001FA04F340EA0300294630BD21FAC5
:1003B00004F0294630BD94F0000F83F4801306BF8B
:1003C00081F480110134013D4EE77FEA645C18BF7F
:1003D0007FEA655C29D094EA050F08BF90EA020F16
:1003E00005D054EA000C04BF1946104630BD91EA0E
:1003F000030F1EBF0021002030BD5FEA545C05D111
:100400004000494128BF41F0004130BD14F580044F
:100410003CBF01F5801130BD01F0004545F0FE41C3
:1004200041F470014FF0000030BD7FEA645C1ABFF8
:10043000194610467FEA655C1CBF0B46024650EA2F
:10044000013406BF52EA033591EA030F41F400215B
:1004500030BD00BF90F0000F04BF0021704730B5E1
:100460004FF4806404F132044FF000054FF00001B6
:1004700050E700BF90F0000F04BF0021704730B577
:100480004FF4806404F1320410F0004548BF40424C
:100490004FF000013EE700BF42004FEAE2014FEAA1
:1004A00031014FEA02701FBF12F07F4393F07F4F7C
:1004B00081F06051704732F07F4208BF704793F07F
:1004C0007F4F04BF41F40021704730B54FF4607492
:1004D00001F0004521F000411CE700BF50EA010295
:1004E00008BF704730B54FF000050AE050EA01023E
:1004F00008BF704730B511F0004502D5404261EBAE
:1005000041014FF4806404F132045FEA915C3FF4EE
:10051000D8AE4FF003025FEADC0C18BF03325FEA8B
:10052000DC0C18BF033202EBDC02C2F1200300FA3C
:1005300003FC20FA02F001FA03FE40EA0E0021FA61
:1005400002F11444BDE600BF70B54FF0FF0C4CF44F
:10055000E06C1CEA11541DBF1CEA135594EA0C0F01
:1005600095EA0C0F00F0DEF82C4481EA030621EA3C
:100570004C5123EA4C5350EA013518BF52EA033577
:1005800041F4801143F4801338D0A0FB02CE4FF029
:100590000005E1FB02E506F00042E0FB03E54FF059
:1005A0000006E1FB03569CF0000F18BF4EF0010E51
:1005B000A4F1FF04B6F5007F64F5407404D25FEA4D
:1005C0004E0E6D4146EB060642EAC62141EA555100
:1005D0004FEAC52040EA5E504FEACE2EB4F1FD0C42
:1005E00088BFBCF5E06F1ED8BEF1004F08BF5FEAC0
:1005F000500E50F1000041EB045170BD06F0004672
:1006000046EA010140EA020081EA0301B4EB5C041E
:10061000C2BFD4EB0C0541EA045170BD41F4801116
:100620004FF0000E013C00F3AB8014F1360FDEBF3B
:10063000002001F0004170BDC4F10004203C35DA17
:100640000C341BDC04F11404C4F1200500FA05F39A
:1006500020FA04F001FA05F240EA020001F000423B
:1006600021F0004110EBD37021FA04F642EB0601B1
:100670005EEA430E08BF20EAD37070BDC4F10C04DB
:10068000C4F1200500FA04F320FA05F001FA04F29F
:1006900040EA020001F0004110EBD37041F100018B
:1006A0005EEA430E08BF20EAD37070BDC4F1200596
:1006B00000FA05F24EEA020E20FA04F301FA05F2FE
:1006C00043EA020321FA04F001F0004121FA04F2A6
:1006D00020EA020000EBD3705EEA430E08BF20EA76
:1006E000D37070BD94F0000F0FD101F000464000B0
:1006F00041EB010111F4801F08BF013CF7D041EA32
:10070000060195F0000F18BF704703F00046520035
:1007100043EB030313F4801F08BF013DF7D043EA06
:100720000603704794EA0C0F0CEA135518BF95EABC
:100730000C0F0CD050EA410618BF52EA4306D1D143
:1007400081EA030101F000414FF0000070BD50EA62
:10075000410606BF1046194652EA430619D094EAEC
:100760000C0F02D150EA013613D195EA0C0F05D1D6
:1007700052EA03361CBF104619460AD181EA03012A
:1007800001F0004141F0FE4141F470014FF00000E2
:1007900070BD41F0FE4141F4780170BD70B54FF07D
:1007A000FF0C4CF4E06C1CEA11541DBF1CEA1355FD
:1007B00094EA0C0F95EA0C0F00F0A7F8A4EB0504DF
:1007C00081EA030E52EA03354FEA013100F08880D6
:1007D0004FEA03334FF0805545EA131343EA12639F
:1007E0004FEA022245EA111545EA10654FEA002654
:1007F0000EF000419D4208BF964244F1FD0404F50D
:10080000407402D25B084FEA3202B61A65EB030568
:100810005B084FEA32024FF480104FF4002CB6EB25
:10082000020E75EB030E22BFB61A754640EA0C00A5
:100830005B084FEA3202B6EB020E75EB030E22BFE5
:10084000B61A754640EA5C005B084FEA3202B6EB26
:10085000020E75EB030E22BFB61A754640EA9C00E5
:100860005B084FEA3202B6EB020E75EB030E22BFB5
:10087000B61A754640EADC0055EA060E18D04FEA73
:10088000051545EA16754FEA06164FEAC30343EA13
:1008900052734FEAC2025FEA1C1CC0D111F4801FE0
:1008A0000BD141EA00014FF000004FF0004CB6E7D9
:1008B00011F4801F04BF01430020B4F1FD0C88BF78
:1008C000BCF5E06F3FF6AFAEB5EB030C04BFB6EB83
:1008D000020C5FEA500C50F1000041EB045170BD76
:1008E0000EF0004E4EEA113114EB5C04C2BFD4EBA3
:1008F0000C0541EA045170BD41F480114FF0000E27
:10090000013C90E645EA060E8DE60CEA135594EAA2
:100910000C0F08BF95EA0C0F3FF43BAF94EA0C0FA5
:100920000AD150EA01347FF434AF95EA0C0F7FF41A
:1009300025AF104619462CE795EA0C0F06D152EA6E
:1009400003353FF4FDAE1046194622E750EA410652
:1009500018BF52EA43067FF4C5AE50EA41047FF463
:100960000DAF52EA43057FF4EBAE12E74FF0FF3CC8
:1009700006E000BF4FF0010C02E000BF4FF0010C99
:100980004DF804CD4FEA410C7FEA6C5C4FEA430C12
:1009900018BF7FEA6C5C1BD001B050EA410C0CBF61
:1009A00052EA430C91EA030F02BF90EA020F0020C3
:1009B000704710F1000F91EA030F58BF994208BF2A
:1009C00090422CBFD8176FEAE37040F001007047E7
:1009D0004FEA410C7FEA6C5C02D150EA013C07D13E
:1009E0004FEA430C7FEA6C5CD6D152EA033CD3D089
:1009F0005DF8040B704700BF8446104662468C4683
:100A00001946634600E000BF01B5FFF7B7FF0028B5
:100A100048BF10F1000F01BD4DF808EDFFF7F4FFDE
:100A20000CBF012000205DF808FB00BF4DF808ED69
:100A3000FFF7EAFF34BF012000205DF808FB00BF8C
:100A40004DF808EDFFF7E0FF94BF012000205DF8AE
:100A500008FB00BF4DF808EDFFF7CEFF94BF012063
:100A600000205DF808FB00BF4DF808EDFFF7C4FF5C
:100A700034BF012000205DF808FB00BF4FEA4102AF
:100A800012F5001215D211D56FF47873B3EB6252E0
:100A900012D94FEAC12343F0004343EA505311F007
:100AA000004F23FA02F018BF404270474FF0000099
:100AB000704750EA013005D111F0004008BF6FF0D7
:100AC000004070474FF00000704700BF000000007A
:100AD00001F0FF01102A2BDB10F0070F08D010F8EF
:100AE000013B013A8B422DD010F0070F42B3F6D1F3
:100AF000F0B441EA012141EA014122F007047FF00C
:100B000000070023F0E80256083C85EA010586EA62
:100B1000010685FA47F5A3FA87F586FA47F6A5FA9E
:100B200087F68EB9EED1F0BC01F0FF0102F00702AA
:100B300032B110F8013B013A83EA010313B1F8D155
:100B40000020704701387047002D06BF3546033836
:100B5000073815F0010F07D1013015F4807F02BF6F
:100B6000013015F4C03F0130F0BC0138704700BFC0
:100B700010F8012B11F8013B012A28BF9A42F7D047
:100B8000D01A7047034613F8012B002AFBD1181A1C
:100B9000013870472DE9F04FAF4DADF6CC2D002256
:100BA0000121722000F0AEFE0FCD05AC0FC40FCDB9
:100BB0000FC40FCD0FC495E8070084E80700382064
:100BC00003F00CF805AC0546061F00F1340854F894
:100BD000047B3846FFF7D6FF013002F0FFFF46F8EE
:100BE000040F394603F0C5FC4645F0D1402002F021
:100BF000F5FF9A4C06462060686802F095FB30606D
:100C000026683068002805DA954803F057FC002074
:100C100002F09CFB800002F0E1FF92497060A8683E
:100C2000DFF8408203F0AEFC002627683B68B34241
:100C30001CDC980002F0D2FF8A49B860E868DFF84F
:100C400028A2DFF828B203F09DFC00268146B046BA
:100C500027683A6842451CDC286902F065FB266873
:100C60003862336A002B4ADC8148CEE77F6802F0A5
:100C70005BFB236847F826005B6853F82630002B9F
:100C800001DC7C48C1E74146002003F07BFC0136D3
:100C9000CBE779494846FFF76BFF58B9BB6801229B
:100CA0009A517049002003F06DFC08F1010881465B
:100CB0000436CDE751464846FFF75AFF10B9BB68E6
:100CC0000222EDE759464846FFF752FF10B9BB68CC
:100CD0000322E5E769494846FFF74AFF10B9BB68B8
:100CE0000422DDE766494846FFF742FF10B9BB68BA
:100CF0000522D5E7634803F0E1FB634885E76F69A8
:100D00005D493846FFF734FF98B901237362A8693B
:100D100002F00AFBFFF7AEFB2668C6E90401E869AA
:100D200002F002FB2568B061AB69002B22DC57485A
:100D30006BE74D493846FFF71BFF08B90223E5E78B
:100D40004A493846FFF714FF08B90323DEE74B4949
:100D50003846FFF70DFF08B90423D7E7484938465E
:100D6000FFF706FF08B90523D0E7494803F0A6FBC3
:100D700048484AE748494FF4FA62BEA802F03EFFED
:100D8000C82002F02BFF0DF53E78E8624FF0000915
:100D90002820EF6A02F022FF47F80900474606467E
:100DA0000FCF0FC60FCF0FC697E8030009F1040954
:100DB000B9F1C80F86E8030008F12808E8D12F68C8
:100DC0003223AB6305232B630421B81C02F0B0FA75
:100DD0000423036007F1804301332A6A40F823208B
:100DE0000646606001239F4222DA0421781C02F04B
:100DF0009FFA4FF000098046E8634F4521DAB1467B
:100E0000B3464FF0000A574561DA0DF1500A234905
:100E10004FF42A72504602F0F1FE00239C46CDF8B2
:100E20000CA09F4279DB59F8042B0292002264E067
:100E30006A6802EB830252F8042C46F8232001333F
:100E4000D1E756F829000421013002F071FA48F880
:100E5000290009F10109D0E7304C00088400002086
:100E6000595700082D5B0008155700081057000857
:100E70005958000887570008B4570008BD570008A4
:100E8000C2570008CA570008FE5700080D5900084D
:100E90007E580008B2580008704C00084054000802
:100EA00058F82A20DBF8040001930821009202F090
:100EB0003FFADDE9002342F823000133DBF800208C
:100EC0009A42EDDA0AF1010A0BF1040B9BE70023C9
:100ED000F4E70199F1E802AB019158F8231051F8B9
:100EE0000E1001EBC001C1E900AB01300099814255
:100EF000EFDC0029A8BF8C440132029991420ADB41
:100F0000D9F80010009191008E46039901EBCC01B5
:100F100001910020EAE7013383E73146284600F0DB
:100F200049F90026B74242DB4FEA8608002506E071
:100F300052F8083053F8250002F058FE01352368B6
:100F4000DA6B636853F80830AB42F1DA0136E9E74F
:100F500050F8250002F04AFE01352368AF42D86BF5
:100F6000F6DA02F043FE606802F040FE00252368D6
:100F70005A6BAA421DDC002523689A6BAA421FDC2B
:100F8000986A02F033FE2368D86A02F02FFE2368C5
:100F9000986802F02BFE2368586802F027FE20684C
:100FA00002F024FE00200DF6CC2DBDE8F08F0025C8
:100FB000D3E79B6A53F8250002F018FE0135D6E707
:100FC000DB6A53F8250002F011FE0135D4E700BFBB
:100FD00008B500F05BFD00F099FD00F0D5FD00F0D4
:100FE0007FFC044A0021612000F060FC00F0E0FC7E
:100FF000FCE700BF950B00082DE9F84F074688462F
:101000009946A2F1080400250A9B9D4201DBBDE838
:10101000F88F00220023E4E902234FEAC50BA7F171
:10102000080A00264E4501DB0135EDE758F8263069
:1010300003EB0B01D1E90001FAE90223FFF784FA7F
:1010400002460B46D4E90001FFF7C8F80136C4E9AF
:101050000001E7E730B5074D0024C2E90045083933
:101060000023834200DB30BDF1E902450133E2E9B0
:101070000245F6E70000F03F2DE9F843124F002645
:10108000C2E9006780461446A1F108054FF0000947
:10109000C14501DBBDE8F88355F8082F6B681046A1
:1010A00003F1004101F0B0FC32463B46FFF796F8F1
:1010B00002460B4630463946FFF770FB09F101093D
:1010C000E4E90201E4E700BF0000F03FF8B50A4B95
:1010D00014460022C4E900230646A1F108050027B2
:1010E000B74200DBF8BDF5E9020101F009FC013768
:1010F000E4E90201F4E700BF0000F03F2DE9F84FFA
:10110000104B14460022C4E900238246A1F10805D1
:101110004FF0000B4FF000084FF00009D34501DB02
:10112000BDE8F88FF5E9026742464B46304639463E
:10113000FFF77CFC08B146464F46E4E902670BF135
:10114000010BEBE70000F03F194B2DE9F047144687
:101150000022C4E90023A1F108058046AA46002622
:1011600000274FF00009C14505DB4FF00009C145DC
:1011700010DBBDE8F087FAE9020101F045FC024608
:101180000B4630463946FFF729F809F101090646B2
:101190000F46E8E7F5E9020101F036FC32463B462E
:1011A000FFF7FCFA09F10109E4E90201DFE700BFFA
:1011B0000000F03F2DE9F04F036891B0044608931A
:1011C0000233894618460421049302F0B1F8002541
:1011D0000590049B9D423CDB0421184602F0A8F8D0
:1011E00000250390049B9D423DDBA56B042128460E
:1011F00002F09EF800260290B5423FDC089B089A58
:101200009B000993039B03EB82030B93099B1E1D19
:10121000059B33440C93099B4B440D93039B09EBB3
:10122000060B4FF0000A1E44A56B55452FDC266ABD
:10123000012E00F08A814FF0000A554540F38C8260
:10124000029B53F82AB0B24B0022CDE906230027B7
:1012500093E159F82500082102F06AF8059B43F84C
:1012600025000135B5E759F825000821013002F0C5
:101270005FF8039B43F825000135B3E7206A082196
:1012800002F056F8029B43F826000136B4E70AF153
:1012900001032A4619469F480F9303F075F8039BF4
:1012A000276B1D689C4B0022C5E90023013F4FEAD4
:1012B0008A0C00239F4224DC00F08AFC039F4D46E9
:1012C00001230693069A089B93422BDA00F087FCD1
:1012D0000C9BE16B1D680D9BDBF8002009981B68D7
:1012E000009209580B98013300682A46FFF784FEE4
:1012F000636A013B042B55D8DFE803F05A676E752B
:101300007C00E26A52F80C2002EBC302D2E9000131
:10131000059A126802EBC302C2E90001E5E9020185
:101320000133C7E7069BE16B9B00043B0A93DDE9B1
:1013300005320A9853F822802B6855F8042F009242
:10134000095857F8040B01334246FFF755FEA368CE
:101350000A9A9B58013B042B24D8DFE803F0030BC7
:1013600011171D003A6828684146FFF773FE069B77
:101370000133A6E73A6828684146FFF77DFEF6E7A5
:101380003A6828684146FFF7A1FEF0E73A68286806
:101390004146FFF7B3FEEAE73A6828684146FFF79F
:1013A000D3FEE4E75D4803F089F8002001F0CEFFAA
:1013B0003268DBF800002946FFF74CFE256A00235F
:1013C0009D421EDCDDF83CA02EE73268DBF8000011
:1013D0002946FFF751FEF1E73268DBF800002946A5
:1013E000FFF774FEEAE73268DBF800002946FFF7F2
:1013F00085FEE3E73268DBF800002946FFF7A4FE2C
:10140000DCE7326802EBC302D2E90201029A52F829
:101410002A2002EBC302C2E900010133D0E7029B9C
:1014200053F828903246D9E900013B46FFF7FEFA0F
:10143000002840F0878052465B46C9E9002308F146
:1014400001084545EBDC0026B246B046B1463746BA
:101450006FF0604BBD4200F39A80314803F02EF8E4
:10146000304803F02BF8304803F028F82F4803F0F9
:1014700025F8524641462E4802F086FF4A4631463C
:101480002C4802F081FF09EB0800FEF7F3FF064647
:1014900028460F46FEF7EEFF02460B463046394619
:1014A000FFF77CF9244B0022FFF74EF802460B466B
:1014B00006460F46214802F067FF39463046FFF7DF
:1014C000DDFA01210246722000F01CFA029B226A1A
:1014D000A16B1B4800F058F90025A36BAB4200F349
:1014E0002681029802F082FB0024049B9C42C0F2F9
:1014F0002581039802F07AFB0024049B9C42C0F2F1
:101500002481059811B0BDE8F04F02F06FBB00BF19
:101510000000F0BF405900080000F03F6359000888
:101520009B590008AE590008C15900084E5A0008DE
:10153000E0590008F6590008000059400C5A00080C
:101540008C5A00080022002377E7874FDFF81CB28F
:101550004FF0000800264FF0000A72E70BEBC703BC
:10156000D3E90089DDE90623404649460137FFF704
:101570007BFA10B1CDE906890E97BE42EEDC0E98DB
:10158000FEF778FF0AF1010ACBE9000155E6D4E93C
:101590000B130BEB030251F8273003EBC203D3E923
:1015A0000023CDE90623029B53F827100022D1E93E
:1015B00000010023FFF730FA002260B1DDE90601E7
:1015C0000023FFF729FA18B108F10108013741E7B4
:1015D0000AF1010AFAE7DDE90601644BFFF71CFA9C
:1015E00010B109F10109F1E70136EFE704213046B6
:1015F00001F09EFE47F8280008F101084645F5DC99
:10160000DFF8689100266FF0604B4FF00008B5429C
:1016100035DC092002F0D0FE554E0125236AAB428D
:1016200052DA5448544DDFF8549102F047FF4FF01E
:10163000000AA7F10408266A56454BDC4FF0000863
:101640004FF000090025AE425BDCA06BFEF712FFF5
:1016500002460B4640464946FFF7A0F8484B002299
:10166000FEF772FF02460B46464802F08DFE00254B
:10167000236AAB4255DC384602F0B8FA26E7D4E9D3
:101680000B210BEB010352F8261001EBC30142467C
:101690004B46D1E90001FEF79FFDFFF7EFF9029BF2
:1016A00053F8261042464B468246D1E90001FEF728
:1016B00093FDFFF7E3F957F82A2052F82030013361
:1016C00042F820300136A2E72946304602F05CFE9F
:1016D0000135A3E70AF1010A5146284602F054FEFB
:1016E0000026236AB34203DC0A2002F065FEA2E76B
:1016F00058F82A30484653F8261002F045FE0136C5
:10170000EFE757F8253053F82500FEF7B3FE024601
:101710000B4640464946FEF761FD01358046894645
:1017200091E757F8250002F061FA0135A0E7029B26
:1017300053F8250002F05AFA0135CEE6039B53F820
:10174000240002F053FA0134CFE6059B53F824003D
:1017500002F04CFA0134D0E60421304601F0E8FDF5
:101760004FF00008074649E70000E03F0000F03F67
:101770001F5A00082E5A00087B5A0008885A000891
:10178000000059400C5A00082DE9F74F01912649F5
:1017900006461546994602F049F8044630BB2348F0
:1017A000314602F0F1FD204601F0D0FD32463946C7
:1017B000204602F043F80136AE42F7DB2A461C49C8
:1017C000DFF870A0DFF870B0204605F1005602F097
:1017D00035F8013EF6000027013D019B9F421FDBCB
:1017E000204603B0BDE8F04F01F030BE134F012694
:1017F000E2E703EBC803D3E900235146204602F099
:101800001DF808F10108454559F82730F1DC33444B
:10181000D3E900235946204602F010F80137DCE7EF
:101820004FF00008EFE700BFA65A0008A85A0008CA
:101830001A5B00082A5B00082F5B00080A5B00089F
:101840000346014400208B4200D1704713F8012B5E
:101850005040082210F0800F4FEA400018BF80F07F
:101860004D00013AC0B2F5D1EDE730B50022044693
:1018700001238B4201D3002030BD14F8015F15B95C
:101880009D1A85541A460133DBB2F2E710B502788F
:101890000024034604701046884200D202B910BDED
:1018A0001A5C1C541044C0B2F6E7000038B50B4D6A
:1018B0002B680F2B04DD612000F0B2F9012038BD48
:1018C000FF2901D96220F7E70C2404FB03540133FC
:1018D0002071C4E902122B600020F0E78C00002088
:1018E00008B5064A00217620FFF7E0FFBDE8084072
:1018F000034A00217720FFF7D9BF00BF5B1900081A
:101900007919000870B5C0B00C46002511468DF855
:10191000010022460DF103008DF802408DF80050C1
:1019200002F06CF9A11CC9B20DF10100FFF788FFAC
:101930000DEB0403261D611DD870C9B268460DF871
:101940000650FFF792FF6C4614F8010B013500F0CA
:1019500067F9AE42F8DA40B070BD07B503230DF168
:101960000702012172208DF80730FFF7CBFF00201E
:1019700003B05DF804FB000030B50C48017885B079
:1019800000220C24D3B28B4202F1010206DB6A462C
:101990007220FFF7B7FF002005B030BD04AD1D4435
:1019A00004FB03031B7905F8103CEBE78C000020D7
:1019B0002DE9F047C2B0002502AE8DF8075034463D
:1019C00000F014F906F8010B58B905238DF807301B
:1019D0000DF1070201216520FFF794FF42B0BDE839
:1019E000F0870135042DEBD129462046FFF74EFF45
:1019F000254F61783A68804600230C205FFA83F90E
:101A0000914502DB07D10123E0E700FB09760133B2
:101A100036798E42F2D1E3780533434502DA042366
:101A2000D4E7354600F0E2F860550028CDD0E378E1
:101A30006E1C0433B342F4DA00F0D8F8A055002845
:101A4000EDD1C8F1010151FA86F1C9B25FFA86FA07
:101A500004EB0800FFF71AFFAAF10201C9B20DF169
:101A60000900FFF7EDFE635D834201D00223ADE77D
:101A70000C2303FB0977E278FD68A17860786B445A
:101A8000A8478DF80700A3E78C00002070B596B03A
:101A9000002403264FF4A0230CA80125CDE90C63F4
:101AA0001094149400F0D4F80F23214602A8CDE935
:101AB0000235CDE90444069400F038FB114B5A6915
:101AC00042F400225A615B69CDE9094603F4002320
:101AD0000D4C0193019B07A94FF4C0432046CDE96B
:101AE000073500F0C9FB2A4620464FF4005100F0AC
:101AF00087FC2A464FF48041204600F081FC16B056
:101B000070BD00BF001002400008004810B54FF43F
:101B1000C06288B00223CDE9032301210323CDE96C
:101B20000513164C07230793636943F4003363617D
:101B3000636903F40033019303A94FF09040019BC4
:101B400000F09AFB0E48DFF83CC04FF46133C0E967
:101B500000C30023C0E90233036183610C234361A6
:101B6000A36943F48043A361A36903F48043029310
:101B7000029B00F099FD08B010BD00BF00100240AC
:101B80005001002000380140104B30B55A6942F432
:101B900000325A615B6987B003F400330093009B05
:101BA0004FF480540123CDE901430025032301A90B
:101BB0004FF09040CDE9035300F05EFB2A462146EA
:101BC0004FF0904000F01CFC07B030BD0010024008
:101BD00001224FF480514FF0904000F011BC0022E0
:101BE0004FF480514FF0904000F00ABC37B50A4DD9
:101BF0000A4C41F2883301220DF10701284600F01A
:101C0000D4FD18B99DF8070003B030BD236A43F036
:101C100008032362EDE700BF5001002000380140B7
:101C200007B541F288338DF8070001220DF1070155
:101C3000024800F064FD03B05DF804FB5001002091
:101C4000024B1868421C1A60704700BFC001002098
:101C500003682DE9F341D907044611D423689A0794
:101C600000F1868023681E0700F1F48023685D0779
:101C700000F14081E269002A40F0CB81002021E0A0
:101C80009A494B6803F00C03042B07D04B6803F010
:101C90000C03082B19D14B68DB0316D54FF4003326
:101CA00093FAA3F2096893FAA3F3B3FA83F303F068
:101CB0001F03012202FA03F30B42CFD06368002B0B
:101CC000CCD1012002B0BDE8F0816268B2F5803F5E
:101CD00024D10B6843F480330B60CB6AA06823F0F7
:101CE0000F030343CB624AB3FFF7AAFF4FF400365A
:101CF0000546012796FAA6F30A6896FAA6F3B3FA00
:101D000083F303F01F0307FA03F31342A6D1FFF78F
:101D100097FF401B6428EDD90320D3E70B6832B945
:101D200023F480330B600B6823F48023D4E7B2F5EF
:101D3000A02FF5D143F480230B60CAE7FFF780FFA3
:101D40004FF400360546012796FAA6F30A6896FA7C
:101D5000A6F3B3FA83F303F01F0307FA03F3134266
:101D60003FF47CAFFFF76CFF401B6428ECD9D3E74E
:101D70005E494B6813F00C0F07D04B6803F00C035F
:101D8000082B21D14B68DF031ED4022393FAA3F260
:101D9000086893FAA3F3B3FA83F303F01F03012255
:101DA00002FA03F3034202D02369934289D10868FF
:101DB000F82393FAA3F3B3FA83F26369934020F014
:101DC000F80213430B604DE72269012502B395FA2F
:101DD000A5F3B3FA83F303F1845303F584139B0053
:101DE00002271D60FFF72CFF064697FAA7F30A6843
:101DF00097FAA7F3B3FA83F303F01F0305FA03F38B
:101E00001342D4D1FFF71CFF801B0228EDD983E7D2
:101E100095FAA5F3B3FA83F303F1845303F584131E
:101E20009B0002271A60FFF70BFF064697FAA7F3FD
:101E30000A6897FAA7F3B3FA83F303F01F0305FACE
:101E400003F313423FF40EAFFFF7FAFE801B0228A4
:101E5000ECD961E7A269254D2548012112B391FA19
:101E6000A1F3B3FA83F303449B0002261960FFF742
:101E7000E7FE074696FAA6F396FAA6F396FAA6F3B5
:101E80006A6A96FAA6F3B3FA83F303F01F0301FA22
:101E900003F313427FF4EAAEFFF7D2FEC01B022821
:101EA000E8D939E791FAA1F3B3FA83F303449B002D
:101EB00002261A60FFF7C4FE074696FAA6F396FAC2
:101EC000A6F396FAA6F36A6A96FAA6F3B3FA83F330
:101ED00003F01F0301FA03F313423FF4C7AEFFF709
:101EE000AFFEC01B0228E8D916E700BF0010024071
:101EF000208190108A49CB69D80033D4CB6943F054
:101F00008053CB61CB6903F080530193019B012582
:101F1000844E3368DA0527D5E368012B34D10B6A88
:101F200043F001030B62FFF78BFE022607464FF0DA
:101F3000010896FAA6F396FAA6F3002B61D00A6A76
:101F400096FAA6F3B3FA83F303F01F0308FA03F338
:101F500013424ED0002D3FF48DAECB6923F0805359
:101F6000CB6187E60025D3E7336843F480733360A1
:101F7000FFF766FE07463368DB05CDD4FFF760FE4A
:101F8000C01B6428F7D9C7E62BBB0B6A23F00103FB
:101F90000B620B6A23F004030B62FFF751FE02266B
:101FA00007464FF0010896FAA6F396FAA6F363B334
:101FB0000A6A96FAA6F3B3FA83F303F01F0308FA4A
:101FC00003F31342C6D0FFF73BFE41F28833C01B38
:101FD0009842E8D9A0E6052B0B6A03D143F004032D
:101FE0000B629CE723F001030B620B6A23F00403EE
:101FF00098E7FFF725FE41F28833C01B984298D935
:102000008AE696FAA6F34A6A9AE796FAA6F34A6A25
:10201000CFE743494B6803F00C03082B3FF451AE64
:10202000022A4FF0807354D193FAA3F3B3FA83F3E7
:1020300003F1845303F584139B0000221A60FFF719
:10204000FFFDDFF8E48006464FF00077012597FAA0
:10205000A7F30A6897FAA7F3B3FA83F303F01F0311
:1020600005FA03F313422ED1D4E908034A68034367
:1020700022F4741213434B604FF0807393FAA3F36E
:10208000B3FA83F303F1845303F584139B00264FC3
:102090001D60FFF7D5FD4FF000750446012695FA47
:1020A000A5F30A6895FAA5F3B3FA83F303F01F03C7
:1020B00006FA03F313427FF4E1ADFFF7C1FD001B05
:1020C000B842ECD928E6FFF7BBFD801B4045BED9DE
:1020D00022E693FAA3F3B3FA83F303F1845303F5EF
:1020E00084139B0000221A60FFF7AAFD0E4F0446DE
:1020F0004FF00075012695FAA5F30A6895FAA5F345
:10210000B3FA83F303F01F0306FA03F313423FF419
:10211000B5ADFFF795FD001BB842ECD9FCE500BF5B
:102120000010024000700040400D0300504AF8B516
:10213000136803F007038B4204461BD32268900701
:1021400024D4D2072AD44A4A136803F007038B42E7
:102150007AD82068430700F1828010F0080014D07C
:10216000444A2169536823F4605343EAC10353602E
:1021700000200AE0136823F007030B431360136881
:1021800003F007038B42D9D00120F8BD3948A56878
:10219000436823F0F0032B434360D2E76268354D78
:1021A000012A27D14FF4003393FAA3F0286893FA59
:1021B000A3F3B3FA83F303F01F0302FA03F303421A
:1021C000E2D06B6823F003031A436A60FFF738FD1F
:1021D0006368012B064641F288371ED16B6803F015
:1021E0000C03042BAFD0FFF72BFD801BB842F5D9B1
:1021F0000320CAE7022A0CBF4FF00073022393FAB0
:10220000A3F02E6893FAA3F3B3FA83F303F01F034A
:10221000012000FA03F33342D2E7022B0FD16B689F
:1022200003F00C03082B8ED0FFF70AFD801BB84289
:10223000F5D9DDE7FFF704FD801BB842D8D86B68FD
:1022400013F00C0FF6D17EE7136823F007030B435E
:102250001360136803F007038B4295D179E70549B2
:10226000E3684A6822F4E0621A434A6075E700BFF7
:1022700000200240001002402DE9F74FDFF8748182
:102280005D4C00234FF001090A6832FA03F502D1D0
:1022900003B0BDE8F08F09FA03FA1AEA020200F06F
:1022A0009E804D6825F0100EBEF1020F14D14FEA4A
:1022B000D30C00EB8C0C03F0070BDCF820604FEA2A
:1022C0008B0B0F2707FA0BF726EA07070E6906FAAA
:1022D0000BF63E43CCF82060D0F800B04FEA430C38
:1022E000032606FA0CF72BEA070BFE4305F003075B
:1022F00007FA0CF70EF1FF3E47EA0B07BEF1010F9C
:10230000076011D8876806EA070ECF6807FA0CF74E
:1023100047EA0E078760476827EA0A0AC5F30017ED
:102320009F4047EA0A074760C76837408E6806FA49
:102330000CF63E43C660EE0051D5D8F8186046F062
:102340000106C8F81860D8F8186023F0030707F1F1
:10235000804706F0010607F58037019603F0030E6B
:10236000019EBE684FEA8E0E4FF00F0C0CFA0EFC69
:10237000B0F1904F26EA0C0C33D0204EB04232D050
:1023800006F58066B04230D006F58066B0422ED0A9
:1023900006F58066B0420CBF0426052606FA0EF646
:1023A00046EA0C06BE602668D74315F4803F0CBF92
:1023B0003E4016432660666815F4003F0CBF3E4061
:1023C00016436660A66815F4801F0CBF3E40164396
:1023D000A660E668AD0254BF3E401643E660013396
:1023E00052E70026DAE70126D8E70226D6E70326D9
:1023F000D4E700BF00100240000401400004004880
:102400000AB181617047816270470000026881688B
:10241000C36930B5056914682943456924F4164435
:10242000294324F00C041943214311605168C46806
:10243000056A21F44051214351609468816924F474
:10244000306429432143916062498A4216D101F5E3
:102450005841096B01F003010139022900F2B280F1
:102460005D4CB3F5004F615C77D1082972D8DFE885
:1024700001F0ACAC2471AC717171A40057498A426F
:102480002CD101F5E631096B01F44031B1F5003F83
:1024900000F090800BD8002900F09480B1F5803FC7
:1024A00000F09080B3F5004F54D0012015E0B1F555
:1024B000403FF7D1B3F5004F66D141684B0803F1B7
:1024C000F47303F59043B3FBF1F300209BB223F0C8
:1024D0000F01C3F342030B43D36030BD40498A422E
:1024E00010D101F5E431096B01F44021B1F5002F61
:1024F00060D004D8002965D0B1F5802FD0E7B1F5C0
:10250000402FD6E737498A4210D101F5E231096BF5
:1025100001F44011B1F5001F4CD004D8002951D06E
:10252000B1F5801FBCE7B1F5401FC2E72E498A42D2
:10253000B8D101F5E031096B01F44001B1F5000FAC
:1025400038D004D800293DD0B1F5800FA8E7B1F507
:10255000400FAEE701200023B9E70829A5D801A361
:1025600053F821F0A1250008A125000889250008BD
:10257000AB240008A1250008AB240008AB24000808
:10258000AB240008AB25000841684B0803F5740331
:1025900003F51053B3FBF1F39BB2D36000209CE72B
:1025A00041684B0803F5E103F4E741684B0803F584
:1025B0000043EFE7B3F5004FF7D141684B0803F54F
:1025C000803380E7B3F5004FEAD141684B0803F54B
:1025D000610378E700380140E856000800440040F5
:1025E00000480040004C004000500040F8B5069FF5
:1025F000044615461E462268D36931EA03030CBF20
:1026000001230023AB4201D0002014E07B1CF3D057
:1026100097B923681A6822F4D0721A609A6822F077
:1026200001029A60202384F8693084F86A3000231C
:1026300084F868300320F8BDFFF702FB801BB84226
:10264000D9D9E6E737B504460021C166FFF7F8FAA5
:1026500023681B681A07054617D423681B685B07A5
:102660000AD56FF07E43009300222B464FF4800181
:102670002046FFF7BBFFA0B92023002084F8693073
:1026800084F8680084F86A300CE06FF07E430093B1
:102690000A4603464FF400112046FFF7A7FF002823
:1026A000DBD0032003B030BD10B5044628B390F84A
:1026B000693003F0FF020BB980F8682022682423F8
:1026C00084F86930136823F0010313602046FFF794
:1026D0009DFE012811D023685A6822F490425A6066
:1026E0009A6822F02A029A601A6842F00102204693
:1026F0001A60BDE81040FFF7A5BF012010BDF7B577
:102700001E4690F86930202B0D46044611464AD1EA
:10271000002D46D0002A44D090F86830012B42D0DA
:10272000012380F868300023C366212380F86930D4
:10273000FFF786FAA4F850100746A4F85210B4F830
:10274000522092B262B900963B4640212046FFF7E4
:102750004DFF98B9202384F8693084F868000EE0B2
:10276000B4F852200096013A92B2A4F852203B46A7
:10277000002280212046FFF739FF10B1032003B06B
:10278000F0BDA3682268B3F5805F07D123692BB938
:1027900035F8023BC3F308031385D0E715F8013B76
:1027A000FAE70120EBE70220E9E72DE9F3411E46B5
:1027B00090F86A30202B0D46044611465CD1002D5E
:1027C00058D0002A56D090F86830012B54D00123FD
:1027D00080F8683003684FF0FF321A620023C36646
:1027E000222380F86A30FFF72BFAA368A4F8581068
:1027F000B3F5805F8046A4F85A1015D123698BB9D0
:1028000040F2FF13A4F85C30B4F85C70B4F85A00DE
:1028100080B280B9202384F86A3084F8680002B05E
:10282000BDE8F081FF23EDE7002BEDD12369002BFC
:10283000F8D07F23E6E7B4F85A200096013A92B226
:10284000A4F85A204346002220212046FFF7CEFE5E
:10285000A0B9A2682368B2F5805F06D1226922B9C7
:102860009B8C3B4025F8023BD0E79B8C3B4005F816
:10287000013BCBE70120D2E70220D0E70320CEE7DF
:102880000A4A116808B5034609B909491160106878
:10289000694603448B4206D900F052FD0C230360C5
:1028A0004FF0FF3008BD1360FCE700BFC8010020F7
:1028B000E0010020002103E00B4B5B584350043142
:1028C0000A480B4B42189A42F6D30A4A02E0002308
:1028D00013600432084B9A42F9D3AFF3008001F041
:1028E000EFF8FEF775FBFEE7DC5D00080000002056
:1028F0006800002068000020DC010020FEE70000E6
:102900003C4A21F00043934270B506460D460C4602
:1029100011DD002D02460B464FF00000364939DB31
:10292000FDF73CFF344B0022FDF758FC02460B46F6
:102930001046194670BD314A934208DD2E4B0022E5
:10294000002CB8BF03F100431046194670BDB3F127
:10295000725F2ADB2A4A934232DD00F0B1FC024664
:102960000B46FDF73BFC00F063FA00224FF080437A
:10297000FDF734FC02460B4600204FF08041FDF786
:102980000DFF02460B4600201B49FDF725FC0246C1
:102990000B46D5E7FDF702FF174B0022FDF71CFCA5
:1029A00002460B461046194670BD134B0022FDF738
:1029B00015FC32462B46FDF7C7FD02460B46B7E72E
:1029C00000F07EFC00224FF04043FDF7BDFD00F01B
:1029D0002FFA00224FF08043064601F10045FDF733
:1029E000FDFB02460B4630462946FDF7D7FE024660
:1029F0000B46A5E7FFFFEF7F0000F03FFFFF3540EC
:102A0000FFFFEF3F00000000F8B504460D4600F060
:102A10003BF81B4B93F90030013306460F4614D0A8
:102A20002046294600F050FC78B111A3D3E90023D9
:102A300020462946FEF718F888B90FA3D3E90023EA
:102A400020462946FDF7F2FF10B930463946F8BD59
:102A500000F076FC2223036000260027F5E700F053
:102A60006FFC2223074F03600026EEE7AFF30080E0
:102A7000EF39FAFE422E864051302DD5104987C0DD
:102A8000000000200000F07F2DE9F04FD44F21F02E
:102A90000042BA4287B005460C464FEAD17612D9B9
:102AA000D04FBA422BD9C1F313030343024640F07F
:102AB0005781002E00F0EE8000252C462846214646
:102AC00007B0BDE8F08FC84B9A4255D8C74B9A4221
:102AD00000F2E580ACA3D3E90023FDF77FFBC44BF4
:102AE0000022FDF7C1FF002800F0D98028462146CA
:102AF000BF4B0022FDF772FB05460C46CAE0A4A3BB
:102B0000D3E90023FDF7B0FF002840F03381A2A3F2
:102B1000D3E9002328462146FDF788FF0028CBD1C2
:102B2000B44B284603EBC60621469DA3D3E90023F8
:102B3000FDF70AFDD6E90023FDF750FBFDF79EFFE8
:102B40000190FDF797FC98A3D3E9002306460F46B2
:102B5000FDF7FAFC02460B4628462146FDF73CFBF2
:102B600093A3D3E900238046894630463946FDF7D2
:102B7000EBFCCDE9020117E09F4B9A42D0D89F4B66
:102B800003EBC603D3E90023FDF726FB9C4BF400BF
:102B90002344D3E90034C6F1010ACDE90234AAEB9B
:102BA0000603804689460193DDE9022340464946F3
:102BB000FDF712FB02460B4682468B4605460C4645
:102BC000FDF7C2FC7CA3D3E9002306460F46FDF7C0
:102BD000BBFC7BA3D3E90023FDF7FEFA32463B465C
:102BE000FDF7B2FC78A3D3E90023FDF7F7FA3246EC
:102BF0003B46FDF7A9FC76A3D3E90023FDF7ECFAE9
:102C000032463B46FDF7A0FC73A3D3E90023FDF752
:102C1000E5FA32463B46FDF797FC0B46024659461D
:102C20005046FDF7D9FA019B06460F46CDE90467E9
:102C3000002B6DD032463B4650465946FDF784FC8A
:102C4000324604460D463B4600204FF08041FDF7DA
:102C5000C3FA02460B4620462946FDF79FFD024671
:102C60000B46DDE90201FDF7B7FA42464B46FDF798
:102C7000B3FA02460B4600205D49FDF7ADFA019C10
:102C80006FF47F739C420246C0F2BC8001EB045398
:102C900005461C462846214607B0BDE8F08F2A4667
:102CA000234628462146FDF74FFC43A3D3E90023E2
:102CB00006460F46FDF748FC41A3D3E90023FDF784
:102CC0008BFA32463B46FDF73FFC3FA3D3E9002396
:102CD000FDF784FA32463B46FDF736FC3CA3D3E9C8
:102CE0000023FDF779FA32463B46FDF72DFC3AA367
:102CF000D3E90023FDF772FA32463B46FDF724FC88
:102D000002460B4628462146FDF766FACDE9040146
:102D1000DDE90489284642464B462146FDF714FC6E
:102D2000002206460F46404649464FF08043FDF7D5
:102D300053FA02460B4630463946FDF72FFD2A4628
:102D40002346FDF749FA02460B4600202849FDF7C5
:102D500043FA05460C462846214607B0BDE8F08FE9
:102D60000B46FDF73BFA05460C462846214607B0C0
:102D7000BDE8F08F04A3D3E9002310461946FDF700
:102D8000E3FB05460C4685E79C7500883CE4377EEE
:102D9000EF39FAFE422E864051302DD5104987C0BA
:102DA000FE822B654715F73F0000E0FE422EE63F0E
:102DB000763C7935EF39EA3DD0A4BE726937663E7C
:102DC000F16BD2C541BDBB3E2CDE25AF6A56113F2B
:102DD00093BDBE166CC1663F3E5555555555C53F12
:102DE000412E8640FFFFEF7F422ED63FFFFF2F3E52
:102DF0000000F03F385B0008B1A2F03F485B0008DC
:102E0000585B0008019800F57A7A01EB0A531046E6
:102E1000194600224FF0B873FDF796FB05460C46A5
:102E20002846214607B0BDE8F08F00BF0000000033
:102E30002DE9F04FD84A21F00043934285B0054672
:102E40000C460E4640F20381D44A934200F2F080D1
:102E5000002E28462146C0F25981B9A3D3E90023A8
:102E6000FDF772FB0B46CE4902460020FDF7B6F98E
:102E7000FDF704FE0190FDF7FDFAB3A3D3E90023AB
:102E800006460F46FDF760FB02460B4628462146E4
:102E9000FDF7A2F9AEA3D3E9002304460D46304660
:102EA0003946FDF751FB06460F4632463B46204663
:102EB0002946FDF791F902460B46204629461C4655
:102EC0001546FDF789F932463B46FDF785F9CDE910
:102ED0000201B34B002228462146FDF735FB06468A
:102EE0000F4632463B4628462146FDF72DFB9AA366
:102EF000D3E9002382468B46FDF726FB98A3D3E94E
:102F00000023FDF76BF952465B46FDF71DFB96A3C8
:102F1000D3E90023FDF760F952465B46FDF714FB49
:102F200093A3D3E90023FDF759F952465B46FDF719
:102F30000BFB91A3D3E90023FDF74EF952465B4604
:102F4000FDF702FB974B0022FDF748F980468946C2
:102F500042464B4630463946FDF7F6FA02460B46E6
:102F600000209149FDF738F906460F4632464046A3
:102F700049463B46FDF730F93246804689463B4696
:102F800028462146FDF7E0FA02460B460020874915
:102F9000FDF722F902460B4640464946FDF7FEFB87
:102FA00052465B46FDF7D0FA019E02460B46002EC4
:102FB00057D0DDE9026732463B46FDF70DF92A4658
:102FC0002346FDF7C1FA32463B46FDF705F95B465D
:102FD0005246FDF701F9019B013306460F4600F00A
:102FE0001581019B012B00F0F580019B0133392BEA
:102FF00078D8019F132F00F31A812A4623464FF4F5
:103000000016FDF7E9F83E41C6F17F55002405F5AD
:10301000401502460B4620462946FDF7DDF801EB38
:10302000075305461C462846214605B0BDE8F08FEB
:103030005F4A93423DD9C1F313030343024600F0B4
:1030400009810B46FDF7CAF805460C4619E0594AB6
:1030500093421BD8584A934240F2B4800023019314
:1030600037E728462146FDF76FFA52465B46FDF7E3
:10307000B3F802460B4628462146FDF7ADF8054653
:103080000C462846214605B0BDE8F08F4B4A9342D6
:1030900000F2F78000292CA3D3E9002317DBFDF70A
:1030A0009BF801232AA7D7E9006704460D46019340
:1030B000FBE633A3D3E90023FDF7D6FC00283FF459
:1030C000C7AE002005B0BDE8F04F00F027B9FDF70E
:1030D00085F84FF0FF332CA7D7E9006704460D466B
:1030E0000193E2E62A462346FDF776F802460B46B0
:1030F00000202C49FDF770F8019A2A4B01EB025190
:103100000022FDF769F805460C46BAE720A3D3E98B
:103110000023FDF763F800220023FDF787FC002859
:1031200040F09B8006A3D3E9002328462146FDF703
:103130000BFA02460B460020214997E6AFF30080C8
:10314000FE822B654715F73F0000E0FE422EE63F6A
:10315000763C7935EF39EA3D2DC3096EB7FD8ABE5D
:103160003952E686CACFD03EB7DBAA9E19CE143FAD
:103170008555FE19A0015A3FF41011111111A13FFC
:10318000EF39FAFE422E8640763C7935EF39EABDBA
:1031900059F3F8C21F6EA50179684340412E86405D
:1031A0000000E03F0000F03F000008400000184031
:1031B000FFFFEF7F422ED63FFFFF8F3CB1A2F03FD3
:1031C0000000E0BF36A3D3E90023FDF707F802466D
:1031D0000B464CE7364B284621460022FDF726FCDD
:1031E00000283DD0334B284621460022FCF7F6FF4D
:1031F00002460B4630463946FCF7EEFF00224FF000
:103200004043FDF7A1F905460C463AE7284621461A
:1032100032463B46FCF7E0FF264B0022FDF794F9CF
:10322000244B0022FCF7D8FF05460C4629E7019FF6
:10323000C7F57F76033633050022FCF7CFFF024641
:103240000B4628462146FCF7C7FF1B4B0022FCF724
:10325000C5FFE4E60029BFF614AF184C002510E7BF
:103260002846214632463B46FCF7B6FF02460B464F
:10327000FCF7B4FF104B0022FCF7B0FF05460C46EC
:10328000FFE609A3D3E90023FDF75EF9002C02460F
:103290000B464FF00000FFF64FAF0649E6E500BFD2
:1032A0009C7500883CE4377EFE822B654715F73F0E
:1032B0000000D0BF0000E03F0000F03F0000F0BF82
:1032C00021F00041704700BF41F0004000F5801040
:1032D000C00F7047D0B506460F46144600F030F8D0
:1032E0000346394630461C60D0BD00BF30B583B0C0
:1032F00080B1144603F10045CDE90045104619465A
:10330000DDE90023FDF720F9222203B0BDE83040BB
:10331000FFF7E0BF14461D46EEE700BF00224FF066
:10332000E043FFF7E3BF00BF0A22002101F002BA29
:10333000024B0A460146186800F076BC04000020E3
:10334000014B1868704700BF0400002008B5074B08
:10335000044613B10021AFF30080054B1868836A5F
:1033600003B19847204601F053FC00BF0000000065
:10337000C85B000870B505460C4611B900263046FA
:1033800070BD18B183690BB900F07EF92C4B9C42DB
:1033900014D16C68636ED80705D4A389990502D44B
:1033A000A06D00F0B3FBB4F90C308BB9666E16F06B
:1033B0000106E3D1A06D00F0AAFBE0E7214B9C429F
:1033C00001D1AC68E6E7204B9C4208BFEC68E1E71E
:1033D0002146284600F042F8236B064633B1216AA5
:1033E000284698470028B8BF4FF0FF36A3891A0631
:1033F00003D52169284600F025FC616B41B104F139
:103400004403994202D0284600F01CFC0023636369
:10341000A16C21B1284600F015FC0023A36400F044
:103420001BF90023A381636EDB0702D4A06D00F0BB
:103430006EFBA06D00F069FB00F014F99FE700BF80
:10344000885B0008A85B0008685B0008024B014627
:103450001868FFF78FBF00BF040000208A89F8B505
:10346000054610070C4657D44B68002B04DC0B6C48
:10347000002B01DC0020F8BDE66A002EFAD0002304
:1034800012F480522F682B6032D0606DA3895A07E6
:1034900005D56368C01A636B0BB1236CC01A002397
:1034A0000246E66A216A2846B047431CA38906D132
:1034B00029681D292CD8294ACA40D60728D50022B8
:1034C0006260D9042269226004D5421C01D12B68B4
:1034D00003B96065616B2F600029CBD004F1440310
:1034E000994202D0284600F0ADFB00206063C2E79D
:1034F000216A01232846B047411CC7D12B68002B05
:10350000C4D01D2B01D0162B01D12F60B2E7A389A7
:1035100043F04003A381AEE70F69002FAAD09307C1
:103520000E6808BF4B690F6018BF0023F61B8B6045
:10353000002E9FDD216AD4F828C033463A4628463B
:10354000E047002806DCA38943F04003A3814FF045
:10355000FF3090E70744361AEAE700BF0100402039
:1035600038B50B6905460C4613B90025284638BD09
:1035700018B183690BB900F087F8144B9C421BD13A
:103580006C68B4F90C30002BEFD0626ED00704D415
:10359000990502D4A06D00F0B9FA28462146FFF73C
:1035A0005DFF636EDA070546E0D4A3899B05DDD491
:1035B000A06D00F0ACFAD9E7054B9C4201D1AC6894
:1035C000DFE7044B9C4208BFEC68DAE7885B000841
:1035D000A85B0008685B0008002310B50446C0E93A
:1035E0000033C0E90433836081814366C281836113
:1035F000194608225C3000F00FFB054B6362054B57
:10360000A362054BE362054B2462236310BD00BF38
:10361000ED4400080F450008474500086B450008C9
:10362000014900F02DBA00BF6135000870B568226D
:103630004D1E55430E4605F1740100F04DFB044646
:1036400040B10021C0E900160C30A06005F168020D
:1036500000F0E2FA204670BD014800F057BA00BF02
:10366000CD010020014800F052BA00BFCD0100207A
:10367000014800F04BBA00BFCE010020014800F025
:1036800046BA00BFCE01002010B50446FFF7F0FF98
:10369000A3691BB1BDE81040FFF7F0BFC4E91233C6
:1036A0002365134B134A1B68A262A34204BF012384
:1036B000A361204600F020F86060204600F01CF86E
:1036C000A060204600F018F80022E0600421606845
:1036D000FFF782FFA06801220921FFF77DFFE06864
:1036E00002221221FFF778FF0123A361D2E700BF76
:1036F000C85B000821360008F8B50746FFF7ACFFA5
:103700001E4B1E68B36913B93046FFF7BDFF48363C
:10371000D6E90134013B03D533680BB33668F7E7CC
:10372000B4F90C50D5B9164BE36004F15800656646
:1037300000F0EAF9FFF796FFC4E90155C4E9045522
:103740002560A5610822294604F15C0000F064FAB6
:10375000C4E90D55C4E912552046F8BD6834D9E7CF
:1037600004213846FFF762FF044630600028D5D1B7
:10377000FFF778FF0C233B60EEE700BFC85B000853
:103780000100FFFFF7B50F46114601AA054601F0FB
:10379000DBF8064618B90024204603B0F0BD2846E1
:1037A000FFF7AAFF04460028F5D03946019A4FF4E6
:1037B000DB73284600F0D6FD071E09DA0025FFF767
:1037C0004BFFA06DA58100F0A0F9FFF74BFFE2E7EA
:1037D000636EDB0705D4A389980502D4A06D00F0C1
:1037E00095F90E4B63620E4BA3620E4BE362F1053B
:1037F0000D4BE781A6812462236305D502230022B5
:103800002146284600F02CF8636EDA07C4D4A38959
:103810009B05C1D4A06D00F07AF9BDE7ED44000826
:103820000F450008474500086B450008024B0A4653
:1038300001461868FFF7A6BF040000200EB403B5C8
:10384000014603AB054853F8042B0068019300F0D0
:10385000C5FA02B05DF804EB03B070470400002025
:1038600000F000B82DE9F0410C4617461E4605460B
:1038700018B183690BB9FFF707FF444B9C4222D173
:103880006C68636ED90705D4A3899A0502D4A06D2C
:1038900000F03CF9A38903F48473B3F5847F03D16A
:1038A00021462846FFF75CFED4F82C80B8F1000FC3
:1038B00013D11D232B60636ED9075DD54FF0FF3602
:1038C0003046BDE8F081324B9C4201D1AC68D8E76C
:1038D000304B9C4208BFEC68D3E7012E36D036F05F
:1038E000020347D123691BB92146284600F036F967
:1038F00021462846FFF734FE0028DCD1216A3346F2
:103900003A462846C0470130D5D0616B41B104F139
:103910004403994202D0284600F094F900236363DF
:1039200023692360A389002523F402636560A381D2
:103930000822294604F15C0000F06EF9666E16F06C
:10394000010620D1A3899B05BAD40CE02146284664
:1039500000F022F8431C064609D1636EDD07ADD4A2
:10396000A3899805AAD4A06D00F0D1F8A8E7074470
:103970000026B7E716239DE7A3899A059ED4A06D7C
:1039800000F0C5F89AE72E469AE700BF885B00086A
:10399000A85B0008685B000870B50C46054618B1C6
:1039A00083690BB9FFF770FE324B9C4214D16C68EF
:1039B000636EDA0705D4A3899B0502D4A06D00F0DD
:1039C000A5F8E66ACEB91D232B60636EDE070DD520
:1039D0004FF0FF35284670BD274B9C4201D1AC68A3
:1039E000E6E7264B9C4208BFEC68E1E7A3899D050A
:1039F000EED4A06D00F08BF8EAE7A28902F00C0388
:103A0000082B19D12368BBB121695B1A002B13DD88
:103A1000D00511D502230022216A2846B047411C57
:103A200005460DD1636EDA07D2D4A3899B05CFD4A6
:103A3000A06D00F06CF8CDE712F480520FD0656DE8
:103A4000A28956070DD56368ED1A636B0BB1236C21
:103A5000ED1A636ED907BDD49305BBD4E8E7012303
:103A6000DAE71007F5D52368002BF2D021695B1A3D
:103A70001D44EEE7885B0008A85B0008685B00084F
:103A80002DE9F8430646884600F148040027D4E9AA
:103A90000195B9F1010905D52468002CF7D1384604
:103AA000BDE8F883AB89012B07D9B5F90E30013396
:103AB00003D029463046C04707436835E9E7000090
:103AC00070B50D4D0D4C641BA4100026A64209D103
:103AD0000B4D0C4C01F09EF8641BA4100026A6426E
:103AE00005D170BD55F8043B98470136EEE755F80F
:103AF000043B98470136F2E7D45D0008D45D000826
:103B0000D45D0008D85D0008704770477047704763
:103B100070B50E46B1F90E10002996B014461D4638
:103B200008DAB6F90C3000222A601A0610D44FF4D5
:103B300080630EE06A4600F03DFF0028F1DB019A49
:103B400002F47042A2F500535A425A412A60EEE74D
:103B500040230020236016B070BD00008B8973B530
:103B60009D0706460C4607D504F1470323602361F1
:103B70000123636102B070BD01AB6A46FFF7C8FF65
:103B800000990546304600F0A7F848B9B4F90C3062
:103B90009A05EFD423F0030343F00203A381E3E784
:103BA0000D4BB362A389206043F08003A381009B87
:103BB0006361019B20615BB1B4F90E10304600F0E7
:103BC0000BFF28B1A38923F0030343F00103A38172
:103BD000A0890543A581CDE721360008024B0146A7
:103BE000186800F079B800BF04000020024B0146BD
:103BF000186800F027B800BF040000200A44914272
:103C000000F1FF3300D1704710B511F8014B03F8F4
:103C1000014F9142F9D110BD02440346934200D1B5
:103C2000704703F8011BF9E738B502FB01F5294697
:103C300000F052F8044618B12A460021FFF7ECFFC5
:103C4000204638BD38B50546002941D051F8043C1E
:103C50000C1F002BB8BFE41800F0E0FE1D4A1368EB
:103C600033B9636014602846BDE8384000F0DCBE1C
:103C7000A34208D9206821188B4201BF19685B68EC
:103C800009182160EDE71A465B680BB1A342FAD927
:103C900011685018A0420BD120680144501883428B
:103CA0001160E0D118685B68536001441160DAE785
:103CB00002D90C232B60D6E7206821188B4204BF61
:103CC00019685B68636004BF091821605460CAE723
:103CD00038BD00BFD0010020F8B5CD1C25F003058C
:103CE00008350C2D38BF0C25002D064601DBA942F6
:103CF00003D90C2333600020F8BD00F08FFE21496A
:103D00000A6814469CB9204F3B6823B921463046C7
:103D100000F0DCFB38602946304600F0D7FB431C3E
:103D200023D10C233360304600F07EFEE3E72368A6
:103D30005B1B17D40B2B03D923601C44256004E0C4
:103D40006368A2420CBF0B605360304600F06CFE0B
:103D500004F10B00231D20F00700C21ACCD01B1A5F
:103D6000A350C9E722466468CCE7C41C24F00304CE
:103D7000A042E3D0211A304600F0A8FB0130DDD18B
:103D8000CFE700BFD0010020D40100209368013BA1
:103D9000002B10B4936007DA9469A34201DB0A296F
:103DA00002D110BC00F0D0BC1368581C1060197010
:103DB000084610BC7047F8B506460F461446D5189D
:103DC000AC4201D1002007E014F8011B3A4630460E
:103DD000FFF7DCFF431CF3D1F8BD00002DE9F04FE5
:103DE0000D469DB014469846064618B183690BB936
:103DF000FFF74AFC894B9D421BD175686B6ED90752
:103E000005D4AB899A0502D4A86DFFF77FFEAB8974
:103E10001B0701D52B69EBB92946304600F0F8FCA9
:103E2000C0B16B6EDC070ED54FF0FF301DB0BDE8A2
:103E3000F08F7B4B9D4201D1B568DFE7794B9D4206
:103E400008BFF568DAE7AB899805EDD4A86DFFF7F0
:103E50005EFEE9E70023099320238DF82930CDF891
:103E60000C803023DFF8C0818DF82A304FF0010933
:103E700023469A4613F8012B0AB1252AF9D1BAEB49
:103E8000040B0BD05B46224629463046FFF793FFD2
:103E9000013000F0AA80099A5A4409929AF8003039
:103EA000002B00F0A28000234FF0FF32CDE9052364
:103EB0000AF1010A049307938DF853301A9354467C
:103EC000052214F8011B5848FCF702FE049AD8B9E1
:103ED000D10644BF20238DF85330130744BF2B2352
:103EE0008DF853309AF800302A2B15D0079A544693
:103EF00000204FF00A0C214611F8013B303B092B02
:103F00004ED9B0B1079214E0A0EB080309FA03F30D
:103F100013430493A246D2E7039B191D1B68039128
:103F2000002BBBBF5B4242F0020207930793B8BF6E
:103F3000049223782E2B0CD163782A2B35D1039B46
:103F40001A1D1B680392002BB8BF4FF0FF330234D9
:103F50000593DFF8D8A0217803225046FCF7B8FD7E
:103F600040B14023A0EB0A0003FA00F0049B034396
:103F70000134049314F8011B2D488DF828100622F3
:103F8000FCF7A6FD00283FD02A4B1BBB039B073341
:103F900023F0070308330393099B3B44099367E726
:103FA0000CFB02320C460120A5E7002301340593E7
:103FB00019464FF00A0C204610F8012B303A092A16
:103FC00003D9002BC5D00591C3E70CFB01210446A2
:103FD0000123F0E703AB00932A46174B04A93046B0
:103FE000AFF300800746781CD6D16B6ED90705D495
:103FF000AB899A0502D4A86DFFF789FDAB895B06F2
:104000003FF512AF099811E703AB00932A460A4B1C
:1040100004A9304600F080F8E4E700BF885B0008A0
:10402000A85B0008685B0008CC5B0008D25B000856
:10403000D65B000800000000B73D00082DE9F047FE
:10404000164699468A680B69DDF820809342B8BF0E
:104050001346336091F8432007460C460AB10133FA
:1040600033602368990642BF3368023333602568A2
:1040700015F0060506D104F1190AE36832689B1AA7
:10408000AB4226DC94F84320131E226818BF01239C
:1040900092062BD404F1430249463846C04701300A
:1040A0001ED02368E568326803F00603042B08BFBE
:1040B000AD1AA36822690CBF25EAE5750025934275
:1040C000C4BF9B1AED1800261A34B5421AD100203D
:1040D00008E00123524649463846C047013003D123
:1040E0004FF0FF30BDE8F0870135C6E7E1185A1CF4
:1040F000302081F84300224494F8451082F84310A0
:104100000233C7E70123224649463846C0470130FB
:10411000E6D00136D9E700002DE9FF470F7E0C9D60
:10412000782F914680460C469A4601F1430207D803
:10413000622F0AD8002F00F0D880582F00F0A380FB
:1041400004F1420584F842703AE0A7F16303152BAD
:10415000F6D801A151F823F0B1410008C54100088B
:104160004141000841410008414100084141000827
:10417000C541000841410008414100084141000893
:1041800041410008D1420008F5410008B34200084F
:104190004141000841410008F34200084141000844
:1041A000F54100084141000841410008BB420008B8
:1041B0002B681A1D1B682A6004F1420584F84230FE
:1041C0000123A3E020682968060601F104030AD54B
:1041D0000E682B60002E03DA2D23764284F84330DC
:1041E0005E480A2319E00E682B6010F0400F18BFDC
:1041F00036B2EFE72B682068191D2960010601D54A
:104200001E6802E04606FBD51E8854486F2F0CBF7F
:1042100008230A23002184F843106568A560002D57
:10422000A2BF216821F0040121600EB9002D4DD0FC
:104230001546B6FBF3F103FB1167C75D05F8017D79
:104240003746BB420E46F4D9082B0BD12368DE0754
:1042500008D5236961689942DEBF302305F8013C27
:1042600005F1FF35521B2261CDF800A04B4603AA91
:1042700021464046FFF7E2FE01304CD14FF0FF30BF
:1042800004B0BDE8F087354881F845702968236897
:1042900051F8046B29601D0614D5DF0744BF43F0B5
:1042A000200323601EB9236823F02003236010231A
:1042B000B0E7236843F0200323607823284884F87C
:1042C0004530E3E7590648BFB6B2E6E71546BBE717
:1042D0002B6826686169181D286035061B6801D5A2
:1042E000196002E07006FBD5198000232361154692
:1042F000BAE72B681A1D2A601D68626800212846EB
:10430000FCF7E6FB08B1401B606063682361002393
:1043100084F84330A8E723692A4649464046D047F7
:104320000130ABD023689B0713D4E068039B98420D
:10433000B8BF1846A4E70123324649464046D04755
:1043400001309BD00135E36803995B1AAB42F2DC84
:10435000EBE7002504F11906F5E700BFDD5B000877
:10436000EE5B000838B5074D0446084611460022AA
:104370002A601A4600F034FC431C02D12B6803B1BA
:10438000236038BDD80100200FB40A4B13B51C6858
:1043900024B1A36913B92046FFF776F905AB049A57
:1043A000A16801932046FFF719FD02B0BDE8104057
:1043B00004B070470400002038B5084B1C6805465F
:1043C00024B1A36913B92046FFF75EF9A268294614
:1043D0002046BDE8384000F02DBB00BF040000209F
:1043E00070B50E46054618B183690BB9FFF74CF955
:1043F000AB69AC6813B92846FFF746F92C4B9C42D1
:1044000020D16C68636EDB0705D4A389980502D4BC
:10441000A06DFFF77BFBA38919071DD52369DBB1CD
:10442000013EA36816F8011F013BA36039BB002BB6
:1044300038DA22460A21284600F086F9013011D0E8
:104440000A2511E01B4B9C4201D1AC68DAE71A4BFC
:104450009C4208BFEC68D5E72146284600F0D8F911
:104460000028DDD04FF0FF35636EDA0705D4A3894D
:104470009B0502D4A06DFFF74AFB284670BD002BB8
:1044800004DAA2699A4206DC0A2904D023685A1C7D
:1044900022601970C5E72246284600F055F9013020
:1044A000BFD1DFE723680A255A1C22601D70DBE7B5
:1044B000885B0008A85B0008685B0008024B0146A7
:1044C0001868FFF78DBF00BF0400002038B5064D07
:1044D0000023044608462B60FEF7D2F9431C02D1A4
:1044E0002B6803B1236038BDD801002010B50C46FD
:1044F000B1F90E1000F0E6FA0028ABBF636DA38996
:104500001B1823F48053ACBF6365A38110BD2DE954
:10451000F0411F468B89DB0505460C46164605D53E
:10452000B1F90E100223002200F066FAA389B4F953
:104530000E1023F48053A38132463B462846BDE843
:10454000F04100F053B910B50C46B1F90E1000F06F
:1045500053FA431CA38915BF606523F4805343F4C9
:104560008053A38118BFA38110BDB1F90E1000F0D4
:10457000DBB9034611F8012B03F8012B002AF9D10E
:1045800070470000164B2DE9F0411F68BC6D0546D1
:104590000E46ECB95020FFF721FB0246B86520B962
:1045A000104B1148572100F0A1F9C0E90044C0E9BF
:1045B0000244C0E90444C0E90A44C0E90C44C0E92B
:1045C0000E44C0E91044C0E9124484610477446297
:1045D000BA6D314628460123BDE8F04100F006B827
:1045E00004000020FF5B0008165C0008F0B508B965
:1045F000106888B10446204614F8015B0F4617F88E
:10460000016B1EB965B91560284605E0B542F6D1C3
:10461000002BF0D114600370F0BD1C460CE015B9FE
:1046200014F8013B0E4616F8015BAB42F7D1002BA4
:10463000F3D0002304F8013C1460EDE7012B2DE9D1
:10464000F047804601D0242B06D9FEF779FE1623C9
:1046500003600020BDE8F087354F0D46284615F869
:10466000014BE65D16F00806F8D12D2C2FD12C78E1
:104670000126851C002B57D0102B09D1302C07D1D7
:10468000287800F0DF00582849D16C7810230235D3
:1046900006F1004E0EF1FF3E0027BEFBF3F938464F
:1046A00003FB19EAA4F1300CBCF1090F14D86446DD
:1046B000A34222DD002F1DDB81451BD301D1A24582
:1046C00018DB00FB0340012715F8014BEAE72B2C10
:1046D00004BF2C78851CCDE7A4F1410CBCF1190F67
:1046E00001D8373CE4E7A4F1610CBCF1190F04D800
:1046F000573CDDE74FF0FF37E6E7002F07DA2223CC
:10470000C8F800307046002AA4D0691E05E006B142
:104710004042002A9ED0002FF7D111609AE7302442
:10472000002BB5D10823B3E7302CA9D00A23AFE77B
:10473000D25C000813460A46014602480068FFF7AB
:104740007DBF00BF04000020F8B50E4614460546A4
:1047500018B183690BB9FEF797FF214B9C422BD10F
:104760006C68A369A360A3891A072FD523696BB36B
:1047700023692068C01A6369F6B28342374604DCB5
:1047800021462846FEF7ECFE30BBA368013BA36040
:1047900023685A1C22601E7063690130834204D072
:1047A000A389DB0706D50A2E04D121462846FEF749
:1047B000D7FE88B93846F8BD0A4B9C4201D1AC6897
:1047C000CFE7094B9C4208BFEC68CAE72146284660
:1047D00000F01EF80028CBD04FF0FF37EAE700BF0B
:1047E000885B0008A85B0008685B000838B5074DC7
:1047F00004460846114600222A601A4600F000FAD4
:10480000431C02D12B6803B1236038BDD8010020BE
:10481000324B70B51D6806460C4625B1AB6913B91D
:104820002846FEF731FF2E4B9C420FD16C68A389BE
:10483000B4F90C2019072CD4DD0611D409233360F8
:1048400042F04003A3814FF0FF303EE0254B9C42F5
:1048500001D1AC68EBE7244B9C4208BFEC68E6E76B
:10486000580712D5616B41B104F14403994202D05B
:104870003046FFF7E7F900236363A38923F024039D
:10488000A3810023636023692360A38943F00803A5
:10489000A38123694BB9A38903F42073B3F5007F87
:1048A00003D021463046FFF759F9A089B4F90C200E
:1048B00010F001030AD00023A36063695B42A36187
:1048C000236943B910F08000BAD170BD810758BF89
:1048D0006369A360F4E70020F7E700BF040000204D
:1048E000885B0008A85B0008685B00081FB51446D9
:1048F0001A46094B1B680546D8684CB1074B009116
:10490000CDE9013406492B46FEF798FF00F0ECF89C
:10491000044B1C46F3E700BF04000020955C000830
:10492000A25C00088B5A000838B5064D00230446E7
:1049300008462B6000F024F9431C02D12B6803B118
:10494000236038BDD80100200B78722B30B522D0FF
:10495000772B24D0612B27D016230360002030BD95
:10496000622D12D0782D13D02B2D07D120F01C00F2
:1049700023F0030340F0100043F0020311F8015F3D
:10498000002DEDD123431360E9E743F48033F5E7CD
:1049900043F40063F2E7002423460420EEE74FF4DB
:1049A000C06401230820E9E74FF4027401234FF4A7
:1049B0008470E3E738B5074D0023044608461146E6
:1049C0002B6000F0E5F8431C02D12B6803B1236093
:1049D00038BD00BFD801002038B5064D002304467D
:1049E00008462B6000F0E4F8431C02D12B6803B1A9
:1049F000236038BDD801002038B5074D044608466D
:104A0000114600222A601A4600F0E2F8431C02D147
:104A10002B6803B1236038BDD80100200148FFF79F
:104A200075B800BFCC0100200148FFF770B800BF87
:104A3000CC01002070B50D461446064618B18369B6
:104A40000BB9FEF721FE1C4B9C4224D17468636EA7
:104A5000D80705D4A389990502D4A06DFFF756F8AD
:104A6000A368013B002BA36005DAA26993421CDB1B
:104A7000EBB20A2B19D023685A1C22601D70EDB2CC
:104A8000636EDA0705D4A3899B0502D4A06DFFF7F6
:104A90003EF8284670BD094B9C4201D1B468D6E768
:104AA000074B9C4208BFF468D1E7294622463046AE
:104AB000FFF74AFE0546E3E7885B0008A85B0008AD
:104AC000685B000838B5074D0446084611460022C9
:104AD0002A601A4600F08CF8431C02D12B6803B1FF
:104AE000236038BDD801002008B5062000F02CF85E
:104AF000012000F08DF81F2938B504460D4604D971
:104B0000162303604FF0FF3038BD426C12B152F8EB
:104B100021304BB9204600F031F82A4601462046A4
:104B2000BDE8384000F018B8012B0AD0591C03D159
:104B3000162303600120E7E7002442F825402846B9
:104B400098470020E0E70000024B01461868FFF795
:104B5000D2BF00BF0400002038B5074D0023044633
:104B6000084611462B6000F02BF8431C02D12B683D
:104B700003B1236038BD00BFD801002000F010B899
:104B8000024B58221A604FF0FF307047D8010020C6
:104B9000024B58221A604FF0FF307047D8010020B6
:104BA000024B58221A604FF0FF307047D8010020A6
:104BB000024B58221A600020704700BFD801002025
:104BC000024B58221A604FF0FF307047D801002086
:104BD000024B58221A604FF0FF307047D801002076
:104BE000024B58221A604FF0FF307047D801002066
:104BF000024B58221A604FF0FF307047D801002056
:104C0000024B58221A604FF0FF307047D801002045
:104C1000FEE700BFF8B500BFF8BC08BC9E46704771
:0C4C2000F8B500BFF8BC08BC9E46704709
:104C3000EB560008FB560008FD5600080357000815
:104C4000DE590008155700081D57000822570008B4
:104C5000295700083D57000801570008425700082F
:104C60005557000801570008000000000000000030
:104C70006F1283C0CAA1F93F1CEBE2361A801840BC
:104C8000728577B988EFE03F3134D769A4A5DE3F5C
:104C900000000000000000004BC8073D9B5502C00B
:104CA000BC490C022B071DC082E2C798BBD61F402F
:104CB000280F0BB5A679ED3F000000000000F03F83
:104CC0005F6397A8DE1AE6BF662C9ACE4E06E0BF59
:104CD000425BCEA5B8AAD6BFD94290831266DE3F0A
:104CE000000000000000F03FC66D3480B740FA3F7E
:104CF00055C1A8A44E00114024B9FC87F49B13C0F1
:104D0000EB73B515FB4B05C0000000000000F03F41
:104D100004560E2DB29D0C40158C4AEA0434034013
:104D2000C66D3480B740FE3F90149161156FE73F28
:104D300000000000000000003BDF4F8D97EE07C031
:104D4000E25817B7D1801AC076711B0DE04D214093
:104D50003D2CD49AE61DFD3F000000000000F03F0E
:104D6000F41ABB44F5D6DCBF3480B74082E2F5BF0D
:104D7000B9FC87F4DB571C40ECA353573ECBD9BF9B
:104D8000000000000000000082E2C798BB960340CC
:104D900085EB51B81E4519C05F07CE1951DA1F4087
:104DA000AD342905DD5ECA3F0000000000000000B0
:104DB0009D8026C2862708C0713D0AD7A370FC3F9C
:104DC00029ED0DBE3099E73F84D382177D05DDBF05
:104DD000000000000000F03F1C7C613255B002C0B2
:104DE00024287E8CB9EB27405EBA490C02AB084000
:104DF000A01A2FDD24C615C000000000000000002E
:104E00000A3CF71E2E39BE3FD6A887687407D93FE3
:104E100075CDE49B6D6EEFBF9604A8A9656BDB3F73
:104E2000000000000000F03FE17A14AE47E1FB3FD4
:104E3000BADA8AFD65770D403E7958A8350D10C065
:104E40009CA223B9FC87FBBF000000000000F03FDC
:104E5000CDCCCCCCCCCCF4BFD3BCE3141D89244046
:104E60003AB4C876BE9F07C0A323B9FC877417C0A5
:104E7000000000000000000053793BC269C1EB3F15
:104E8000FD87F4DBD74116406DE7FBA9F1D2FA3F6D
:104E9000F4E0EEACDD76C5BF0000000000000000CD
:104EA0008A3C49BA66F2ED3F4C37894160C52140E2
:104EB000925CFE43FAEDFABF1E166A4DF38EFABFFE
:104EC0000000000000000000B6847CD0B359FEBF93
:104ED00063EE5A423E281BC0D0B359F5B91A1540AB
:104EE000F9DA334B02D4D4BF000000000000F03FD9
:104EF000C3D32B6519E20440F931E6AE2504204006
:104F0000FB743C66A032CEBFB1BFEC9E3C2CFCBF14
:104F100000000000000000005DDC4603788B0CC040
:104F2000931804560E6D20C0D122DBF97E2A24404E
:104F3000492EFF21FDF6EE3F000000000000F03F8B
:104F4000CEC29E76F86BEFBFAF946588635D064076
:104F5000C9E53FA4DFBEF3BFFDF675E09C11F9BFC4
:104F6000000000000000F03FB6847CD0B3590C4034
:104F7000A245B6F3FDD4F33FC1CAA145B6F3FF3F46
:104F80009487855AD33C01400000000000000000D7
:104F900044FAEDEBC039F2BFE25817B7D100FD3F3C
:104FA0007FD93D7958A81B40374F75C8CD70E63F73
:104FB00000000000000000009B8F6B43C538BFBF9E
:104FC0005BD3BCE3149D2140DE54A4C2D842EE3F23
:104FD0004703780B24E810C0000000000000000028
:104FE00060E5D022DBF910C0FF21FDF675202AC054
:104FF000CD3B4ED1911C314027A089B0E16906C05C
:10500000000000000000F03F1F680586AC6EEABF9C
:105010001C7C613255B00740BE30992A1895F4BF08
:105020001D386744696FF7BF000000000000F03FC3
:1050300095D40968226CFABFAC1C5A643BFF20C0AF
:10504000EF38454772392240917EFB3A70CEF33FEC
:10505000000000000000F03FF38E53742497F3BF6C
:1050600060E5D022DBF9FB3F1FF46C567DAEF7BF45
:10507000545227A089B0F6BF000000000000F03FA6
:105080001E87C1FC1532A73FAC8BDB6800EF1A40CE
:10509000A7E8482EFF21F13F0612143FC6DCEDBF02
:1050A0000000000000000000AD69DE718A8E05403E
:1050B0008D28ED0DBE301B405E807D74EACAD9BFDD
:1050C00075B0FECF61BEDC3F0000000000000000B4
:1050D0008E06F0164850F6BFFD87F4DBD7810240FC
:1050E000B4024356B77ADCBF0C022B8716D9F7BF40
:1050F000000000000000F03FAC8BDB68006F164042
:1051000099BB96900F9A244088F4DBD7813313C063
:1051100027A089B0E16911C0000000000000000074
:1051200086C954C1A8A403C0F7E461A1D61422C063
:10513000D34D621058B92140BC8C62B9A5D5EBBFE4
:10514000000000000000F03F728A8EE4F29F1240DF
:1051500057EC2FBB278F1E40DB8AFD65F76403C029
:10516000C6DCB5847CD0F3BF000000000000000066
:10517000598638D6C56D01C07B832F4CA6CA19C08D
:10518000FAEDEBC03923184080828B153598CABFE1
:10519000000000000000F03FE10B93A982510540A0
:1051A000355EBA490C822540E02D90A0F8310BC045
:1051B000068195438BAC10C0000000000000000089
:1051C00091ED7C3F35DE0CC0431CEBE2369A0A4081
:1051D000C7D79E5912A0E0BFBBB88D06F0960CC091
:1051E000000000000000F03FC6DCB5847CD0F73F33
:1051F0004D158C4AEA040D40115839B4C8760A405E
:105200000113B875374FDF3F0000000000000000B9
:10521000508D976E12030140A54E401361831B40D1
:105220000CCD751A69A9DC3F0F0BB5A679C701C073
:10523000000000000000000088635DDC468317402A
:10524000C139234A7BC31740849ECDAACFD506C05F
:10525000D2A92B9FE579E3BF000000000000000009
:1052600023DBF97E6ABCF43F3108AC1C5A241140A0
:10527000A7E8482EFF6113C012143FC6DC3507C0F3
:10528000000000000000F03FC74B3789412019C0E3
:10529000454772F90FA91A40C11C3D7E6FD3E03F0C
:1052A000D044D8F0F40A1CC0000000000000F03F19
:1052B000E02D90A0F8310640CA32C4B12E6E1B40DA
:1052C00050FC1873D712F1BFD55A9885764EB33F6C
:1052D00000000000000000004087F9F202ECEB3F04
:1052E0004BEA043411962240F0164850FC18E9BFEE
:1052F000BE30992A189501C000000000000000008F
:10530000B98D06F01648FFBF10E9B7AF03E71BC021
:1053100048BF7D1D382716403A0664AF777FC0BF6F
:10532000000000000000F03F55185B087250EE3F8F
:105330009F76F86BB246E2BF17B7D100DEC21C40C1
:10534000E21E4B1FBAA0E5BF0000000000000000F5
:1053500038F8C264AA60DEBFF5B9DA8AFD6511C00B
:105360004850FC1873D7FF3F04E78C28ED0DE83F49
:10537000000000000000F03F69006F8104C500C01C
:10538000EA95B20C716C1CC0280F0BB5A6791A40B7
:10539000FBAE08FEB792D5BF000000000000F03F52
:1053A000508D976E128304C0B98D06F01648FBBF6E
:1053B0007B832F4CA60AF83F65A54929E8F6D43F20
:1053C000000000000000F03FBEC117265305024058
:1053D000E8D9ACFA5CED23402E90A0F8316609C004
:1053E000A323B9FC87F407C0000000000000000000
:1053F000DCD781734694F13F2EFF21FDF675E43F23
:10540000DBF97E6ABCF41740A0E062450DA6E2BF5E
:105410000000000000000000F4FDD478E926EE3F13
:10542000226C787AA56C17404D158C4AEA04FE3F31
:10543000F9DA334B02D4D4BF0000000000000000B2
:105440000AF4893C493AE73F0D6D00362042DC3FC3
:10545000A779C7293A92E9BFEDD632198EE7833F83
:10546000B83EAC376A85DC3F8CF4A276BF0AE3BF56
:10547000CD57C9C7EE02D0BFE3512AE109BDCA3FEB
:105480008A5B0531D0B5D13F884677103B53C83F82
:105490001A14CD0358E4A7BF09F9A067B36AE83F1F
:1054A000310A82C7B777CBBFCC96AC8A7093D9BF8D
:1054B000B950F9D7F2CAE7BF9544F6419685E73F60
:1054C0008EACFC321823CA3FAAD72D02637DE0BF01
:1054D0008AE942ACFE88E43FF8E28BF67821D1BF3E
:1054E00081CB63CDC820873F6F46CD57C9C7CE3F1C
:1054F000FAB836548CF3DC3F0F43AB933314C33FFD
:10550000842C0B26FE28DEBFF8FC304278B4E23F44
:10551000344C6DA983BCCABFB3976DA7AD11D6BF7C
:10552000C05FCC96AC8AC43F14048F6FEF1AA43FBF
:105530004791B58652FBE53F08C89750C1E1B13F9E
:1055400062D8614CFA7BD5BFB01EF7ADD689E63F75
:10555000B34291EEE794E7BFE5D3635B069CE6BFF9
:10556000ECDCB419A7A1E6BF289EB30584D6C5BF5D
:10557000478FDFDBF467D43FD1AFAD9FFEB3D83F99
:10558000F81C588E9081E9BFAE105663096BE1BFDD
:10559000C493DDCCE847D53FD061BEBC00FBC8BF9B
:1055A00011548D5E0D50C0BF7100FDBE7FF3D93F19
:1055B000AFCDC64ACCB3D1BFDA3C0E83F9ABE7BF5F
:1055C00088BB7A15199DE63F807D74EACA67DBBF08
:1055D0004CC45BE7DF2EC7BFBAD91F28B7EDB7BFF2
:1055E00095D39E927362E23FA51309A69AD9E0BFB4
:1055F000D7DEA7AAD040E7BF5D8B16A06DB5E4BF8C
:1056000048FC8A355CE4E7BFCB82893F8A3AC3BF56
:10561000F6984869368FC9BF257497C45911C73F9A
:1056200079E92631082CE53FC3F2E7DB82A5D4BF38
:1056300056F5F23B4DE6E0BFD33252EFA99CDBBFFB
:10564000E0641BB80375DBBF8657923CD7F7DCBF1D
:105650000CAF2479AEEFD4BFC24CDBBFB2D2D4BF03
:10566000B37DC85BAE7EC43FA647533D99FFE73F7D
:10567000F8C610001C7BE7BFD0B359F5B9DAC63FB6
:10568000B000A60C1C50E1BF5AF0A2AF20CDD63F0F
:10569000276728EE7893E83F0F62670A9DD7BC3FE3
:1056A0004ED026874F3AA1BF9EEFA7C64B37D1BF3A
:1056B000E2218C9FC6BDC73F6B0BCF4BC5C6C6BF93
:1056C0008237A4518193B93FE0F3C308E1D1EFBF22
:1056D000CAC51858C771E63F782975C93846C4BF8E
:1056E000FBAE08FEB792E5BF0408026578656375F6
:1056F0007461626C655F6E616D65003300342C35DA
:105700002C3500736F66746D61782C72656C752C26
:1057100074616E68007369676D6F696400302E3064
:10572000310031303030302000646174612F6461A9
:1057300074615F747261696E2E6373760031303903
:105740003600646174612F646174615F74657374A1
:105750002E63737600323735004572726F723A20CD
:105760004E756D626572206F662068696464656E4F
:10577000206C61796572732073686F756C64206248
:1057800065203E3D2030004572726F723A204869B4
:105790006464656E206C617965722073697A6573E3
:1057A0002073686F756C6420626520706F73697414
:1057B000697665006964656E746974790072656CF8
:1057C0007500736F66746D6178004572726F723A1E
:1057D00020496E76616C69642076616C756520661F
:1057E0006F722068696464656E20616374697661B4
:1057F00074696F6E2066756E6374696F6E00496EB2
:1058000070757420656974686572206964656E746A
:10581000697479206F72207369676D6F6964206F96
:10582000722074616E68206F722072656C75206FD3
:105830007220736F66746D617820666F722068697C
:105840006464656E2061637469766174696F6E204B
:1058500066756E6374696F6E004F75747075742031
:105860006C617965722073697A652073686F756CF5
:105870006420626520706F73697469766500457293
:10588000726F723A20496E76616C69642076616C41
:10589000756520666F72206F757470757420616312
:1058A0007469766174696F6E2066756E6374696F72
:1058B0006E00496E70757420656974686572206940
:1058C00064656E74697479206F72207369676D6F97
:1058D0006964206F722074616E68206F7220726537
:1058E0006C75206F7220736F66746D617820666FBF
:1058F00072206F7574707574206163746976617459
:10590000696F6E2066756E6374696F6E004D6178A5
:105910002E206E756D626572206F662069746572E7
:105920006174696F6E732076616C75652073686F42
:10593000756C6420626520706F73697469766500A8
:10594000436C617373696679696E672074657374FB
:10595000206578616D706C65202564206F66202558
:10596000640D00466F72776172642070726F7061AF
:10597000676174696F6E3A20496E76616C69642064
:1059800068696464656E2061637469766174696FC7
:105990006E2066756E6374696F6E000A0A436F6EDF
:1059A000667573696F6E206D6174726978002D2D54
:1059B0002D2D2D2D2D2D2D2D2D2D2D2D2D2D2D0A3A
:1059C0000009202020207C7072656469637465641E
:1059D0002030092070726564696374656420310049
:1059E00041637475616C2030202020207C2564097F
:1059F0000925640A0A0041637475616C2031202016
:105A000020207C2564090925640A0A000A41636391
:105A100075726163793A20252E326C660A0A00504D
:105A200072656469637465642025642020000A2D12
:105A30002D2D2D2D2D2D2D2D2D2D2D2D2D2D2D2D96
:105A40002D2D2D2D2D2D2D2D2D2D2D2D2D2D2D2D86
:105A50002D2D2D2D2D2D2D2D2D2D2D2D2D2D2D2D76
:105A60002D2D2D2D2D2D2D2D2D2D2D2D2D2D2D2D66
:105A70002D2D2D2D2D2D2D2D2D2D00416374756176
:105A80006C202564207C2000256409006461746119
:105A90002F646174615F746573745F6F7574707582
:105AA000742E63737600770043616E6E6F742063AB
:105AB00072656174652F6F70656E2066696C652014
:105AC00025732E204D616B65207375726520796F8B
:105AD000752068617665207065726D697373696F92
